:020000040000FA
:10000000020526020823FFFFFFFFFF02082BFFFF68
:10001000FFFFFF020833FFFFFFFFFF02083BFFFF68
:10002000FFFFFF020843FFFFFFFFFF02084BFFFF38
:10003000FFFFFF020853FFFFFFFFFF02085BFFFF08
:10004000FFFFFF020863FFFFFFFFFF02086BFFFFD8
:10005000FFFFFF020873FFFFFFFFFF02087BFFFFA8
:10006000FFFFFF020883FFFFFFFFFF02088BFFFF78
:10007000FFFFFF020893FFFFFFFFFF02089BFFFF48
:10008000FFFFFF0208A3FFFFFFFFFF0208AB000313
:100090005F005F003000580000000000000000001A
:1000A0000000000000000000000000000000000050
:1000B0000000000000000000AD03DF03DF03DF03EA
:1000C000DF03E303EB3C904D53444F53352E300098
:1000D000020401000210000000F80100000000000E
:1000E0000400000004000000000029000000004E91
:1000F0004F204E414D452020202046415431322092
:10010000202074F712025E43C707E59D541864105F
:10011000704275210475220078211204EE7C9D7DC9
:10012000147A9C7B0679011205B3740212046E9056
:10013000149DE0F8A3E0F9A3E0687003A3E0697000
:100140001390149DE0F47003A3E0F46007E84960A5
:10015000031205DD781075B60FE5B4A2E750FAE595
:10016000BBC3944A40F018E870EC75A80075B8005D
:10017000759A0075C6809062707408F079017F02EC
:1001800002036DE4CFC0E0E4CEC0E0E4CDC0E0E423
:10019000CCC0E075F020E626F608E633F608E63334
:1001A000F608E633F6181818EC33FCED33FDEE33A1
:1001B000FEEF33FFC3EC9709ED9709EE9709EF9730
:1001C000191919400FFFEC97FC09ED97FD09EE97FF
:1001D000FE191906D5F0BFECF709EDF709EEF7099E
:1001E000EFF7191919D0E0FCD0E0FDD0E0FED0E027
:1001F000FF22253CC582C0E0E53D34FFC583C0E059
:10020000E53CC3958224F810AF0885833D85823C88
:10021000800885833D85823CD2AFCEF0A3E520F0F7
:10022000A37821E608F0A3DEFAEFF0A3E58124FA33
:10023000F8E608F0A3E608F0A3E608F0A30808E64D
:1002400008F0A3E608F0A315811581D0E0FED0E008
:10025000F8158115811581E8C0E0EEC0E022253C4B
:10026000C582C0E0E53D34FFC583C0E0E53CC395F1
:100270008224F910AF0885833D85823C8008858300
:100280003D85823CD2AFCEF0A3E520F0A37821E6F5
:1002900008F0A3DEFAEFF0A3E58124FBF8E608F00E
:1002A000A3E608F0A30808E608F0A3E608F0A31503
:1002B000811581D0E0FED0E0F815811581E8C0E01D
:1002C000EEC0E022120102B90003020311E4793EFC
:1002D0007807B800028004F709D8FCE4900300789E
:1002E0002A79018002F0A3D8FCD9FA7A297B0390FD
:1002F000008E787579018015E493A3AD82AE838A70
:10030000828B83F0A3AA82AB838D828E83D8E9D9B6
:10031000E77582C37583C674071204507582AC7585
:1003200083057400120450853D83853C82E0A3FE62
:10033000E0A3F5207821E0A3F608DFFAE0A3FFE0D0
:10034000A3C0E0E0A3C0E0E0A3C0E0E0A3C0E0E021
:10035000A3C0E010AF0885823C85833D800885827C
:100360003C85833DD2AFD083D082020456853D8345
:10037000853C82E0A3FEE0A3F5207821E0A3F60807
:10038000DFFAE0A3FFE0A3C0E0E0A3C0E0E0A3C089
:10039000E0E0A3C0E010AF0885823C85833D800883
:1003A00085823C85833DD2AFD083D082221201006A
:1003B00002000000205104A81609000102030109EF
:1003C000022000010100800F09040000020806500D
:1003D000000705840240000007050402400000C831
:1003E00003102074038000CCC0E0EDC0E0E53CC306
:1003F0009CCCAD3D50011D10AF068C3C8D3D800660
:100400008C3C8D3DD2AF120410D0E0FDD0E0FC2238
:10041000CAC0E0E0A3C582CCC582C583CDC583F048
:10042000A3C582CCC582C583CDC583DAE6D0E0CA38
:10043000227009080808226016181818C6C333C6A7
:1004400008C633C608C633C608C633C6D5E0EA2296
:10045000C09FF59FE473D09F22D083D082C09FE4D9
:1004600093C0E0740193C0E0740293F59F2200C032
:10047000D0253C10AF08F53C500C053D8008F53CFC
:100480005002053DD2AFD0D022253CF58210AF08F6
:10049000F53C400C153D8008F53C4002153DD2AFBF
:1004A000853D8322BB0102E722C082C08389828A04
:1004B00083BB0003E08002E493D083D08222BB00A0
:1004C0000EC082C0838A838982F0D083D08222BB0F
:1004D0000101F722253C10AF08F53C400C153D808A
:1004E00008F53C4002153DD2AF227403800474022B
:1004F0008000C0E0F404120489D0E012057522C324
:10050000E096F008A3E096F008A3E096F008A3E0D8
:1005100096F022700422600D18C6C333C608C63395
:10052000C6D5E0F4182275D00075814F753C007572
:100530003D03759F000202C4C3E09608A3E096083D
:10054000A3E09608A3E09622600C08C6C313C61861
:10055000C613C6D5E0F422E6F008A3E6F008A3E649
:10056000F008A3E6F022E0F608A3E0F608A3E0F620
:1005700008A3E0F622CAC0E0E6F0A308DAFAD0E069
:10058000FA22E0FAA3E0FBA3E0FCA3E0FD22EAF0FC
:10059000A3EBF0A3ECF0A3EDF022253CF582E435CB
:1005A0003DF58322253CFCE4353DFD220000008022
:1005B000FBE47312045924C107120459A5C10712A0
:1005C000045903C20712045956C2071204595BC2E8
:1005D000071204590FC30712045916C4071204590D
:1005E00065C50712045972C507120459BFC5071221
:1005F0000459DAC60712045954C70712045973C7BD
:1006000007120459B8C707120459EEC70712045954
:1006100091C807120459C9C807120459E8C807123B
:10062000045911CB0712045943CB071204597BCB51
:1006300007120459A4CB07120459E2CB071204593C
:1006400083CC0712045965CD0712045951CE071205
:10065000045963CE0712045975CE07120459BBCE54
:10066000071204594BD007120459A9D10712045993
:10067000E1D10712045988D207120459E5D20712B2
:1006800004595BD307120459F9D3071204598DD4C6
:1006900007120459A7D4071204599DD5071204590B
:1006A000F5D70712045998D9071204595FDA0712CF
:1006B00004595BDC0712045942DD07120459AFDD0F
:1006C00007120459E3DD071204595ADE07120459D0
:1006D0006DE0071204599CE1071204599EE10712CC
:1006E0000459DBE107120459DDE107120459DFE187
:1006F00007120459F0E107120459F2E107120459F4
:10070000F5E1071204591507001204596707001292
:100710000459AD070074F41201F2740C12059AE04A
:10072000F8A3E08015A3AA82AB838C828D83A3AC4F
:1007300082AD83E824FF18E934FFF9E849601F8C93
:10074000828D83E0F5218A828B83E0F523E52165A4
:100750002360D2E523C39521FA95E0FB80047A005B
:100760007B007F0402032774F61201F2EAF8EBF92A
:10077000740A12059AE0FEA3E0FF80188C828D8334
:10078000E088828983F0A3A882A9838C828D83A3C9
:10079000AC82AD838E218F22E52124FF1EE5223419
:1007A000FFFFE521452270D47F02020327C082C0EB
:1007B00083853C82853D83E0F8A3E0F9E849601237
:1007C0008A828B83ECF0A3E824FF18E934FFF94810
:1007D00070F2D083D082020456FFFFFFFFFFFFFFBD
:1007E000FFFFFFFFFFFFFFFFFFFFFFFFFFFFFFFF19
:1007F000FFFFFFFFFFFFFFFFFFFFFFFFFFFFFFFF09
:020000040003F7
:10C00000240354006500780061007300200049009B
:10C010006E0073007400720075006D0065006E00A4
:10C0200074007300008002021F00000047656E6507
:10C030007269632055534220466C617368204469DD
:10C04000736B2020302E3030240354004900200030
:10C05000430043003200350033003100200055001A
:10C060005300420020004D00530044004445464127
:10C07000554C5420434647200015095A473F473F37
:10C0800000008656473F02006400000000000000E8
:10C0900000000000000000000000000000000000A0
:10C0A000000000000000000000000000FFFFFFFF94
:10C0B000FFFFFFFFFFFFFFFFFFFFFFFFFFFFFFFF90
:10C0C000FFFFFFFFFFFFFFFFFFFFFFFF30313233B6
:10C0D000343536373839414243444546000000087C
:10C0E0000000000002000200FFFFFFFFFFFFFFFF54
:10C0F00000000000000002005553424355534253D4
:10C10000FFFFFFFF7D00000004030904FFFFFFFFA6
:10C11000030000000000000043464700000000004C
:10C120007701000074F41201F28921740F5521F592
:10C1300023752400740B7823120513EA2400F8EB0E
:10C140003480F9E82400E93524F9E5C7F522A2AFE7
:10C15000E433F523C2AFE521C4540FFAE5C754F820
:10C160004AF5C7740C12059A12CB75801C88828917
:10C1700083E08C828D83F088828983A3A882A9833F
:10C180008C828D83A3AC82AD83EAFEEBFFEE24FFAD
:10C190001AEF34FFFBEE4F70D48522C7E523A2E0EF
:10C1A00092AF02C7E974F61201F2ED901581F0EC3E
:10C1B000A3F0A37462F0A37473F0A3E0541FF074AF
:10C1C0000A12059A12C542333354FC901586F07456
:10C1D000067821120548E521901585F090158774A1
:10C1E00012F0A37442F075D1FE75D601EA90627127
:10C1F000F0EBA3F0906270E0D2E1F0E0A2E740FB48
:10C2000002C6BE74F61201F275210475220078216F
:10C210001204EE7C9D7D147A9C7B0679011205B395
:10C22000740212046E90149D12C724A3E8F0A3E9CF
:10C23000F090149D74FFF0A3F07521017821120491
:10C24000EE7C9D7D147AA77B031205B9740212045B
:10C250006E790102C6BE790102045674F61201F22B
:10C2600074FC1204D4EAFEEBFF901500E0606D75DB
:10C27000212075220078211204EEEE2408FCE43F10
:10C28000FD7AA57B14120703740212046E8B22EA56
:10C29000452260489014FDE0F8790170111205E321
:10C2A000C2AF75C9AB75C95B80FEE9C333F9E95804
:10C2B00060F8E069F090C100AC3CAD3D740412043C
:10C2C0001012C54C1204EE74021205A47ABF7B034F
:10C2D0001205B9740212046E7900802B901500E4E7
:10C2E000F0752158F52278211204EEEE2404FCE4C6
:10C2F0003FFD7AA17B14120709740212046E901498
:10C300009FE4F0A3F07901740412046E02C6BE74B7
:10C31000F41201F274FC1204D4800790149FE4F02C
:10C32000A3F0120685E9640190149D700302C3EE28
:10C3300012C55E7003A3E06970E890149DE0F4708C
:10C3400003A3E0F460DCE84960D89014A312D1DBC9
:10C3500060D09014F5E0A2E04034A2E15004D2F0A5
:10C360008002C2F0A2F0E433FA7521017522009038
:10C37000159BE0782112051312C6B155216004D235
:10C38000F08002C2F0EAA2E020F001B3408DE59512
:10C39000853C82853D83F0659570F3E596C0E07439
:10C3A0000112059AD0E0F0E597C0E0740212059AF8
:10C3B000D0E0F0740312059AE4F090158D78211204
:10C3C0000566853C82853D8378211204FF74031243
:10C3D000059AE4F0853C82853D83782112056690BC
:10C3E00015897821120538400302C322801A12C52C
:10C3F0005E7003A3E069701690149DE0F47003A3CF
:10C40000E0F4600AE849600612068B1205DD740448
:10C4100012046E02C7E974F01201F274FC1204D423
:10C4200075216475220078211204EE7C9D7D147ABA
:10C430009C7B0679011205B3740212046E752120EB
:10C4400078211204EE7CAC7DC07AA57B1412070320
:10C45000740212046E8B22EA45227005901500E4E6
:10C46000F090149D12C55E7003A3E069600302C5DD
:10C470001F90149DE0F47003A3E0F4700302C51F45
:10C48000E849700302C51F9014F9E0F8603C790197
:10C490008004E9C333F9E95860F8E069F070089066
:10C4A000149FE4F0A3807790C10CAC3CAD3D7404C4
:10C4B00012041012C54C1204EE74021205A47ABEC6
:10C4C0007B031205B9740212046E9014F5E0A2E029
:10C4D00040061205E9E970479014A312C5424522AF
:10C4E00070051205DD8038E4F523F524740C7821FD
:10C4F00012043190C104782512056678217925123D
:10C5000001839015897821120557E59590158DF0D6
:10C51000659570F6E596A3F0E597A3F0A3E4F078AF
:10C520001075B60FE5B4A2E750FAE5BBC3944E40D0
:10C53000F018E870EC12067F740412046E7F080293
:10C540000327E0F521A3E0F522E52122853C828541
:10C550003D83E069F075210175220078212212C720
:10C5600028A3E06822020820C2AF75C9AB75C95B79
:10C5700080FEC082C0837802E97027E81313135449
:10C580001FFA74C52AF582E43414F583E0C0E07420
:10C590000758FAD0E0BA00028004C313DAFCA2E024
:10C5A000500EE8C333906272F0906270E0D2E0F017
:10C5B00008E8C3947840C1906272740202C7647440
:10C5C000F61201F29014F6E0F8131313541FF974E5
:10C5D0000758FCE970047AF3800B74016970047ADF
:10C5E000F480027AF57B70ECF87401B800028004E4
:10C5F000C333D8FCF8F4FD8A828B83E05DF0E970E8
:10C60000047AFD800B74016970047AFE80027AFF5F
:10C610008A82E05DF0E970047A8F800B74016970A2
:10C62000047AF680027AF79014F5E0A2E2502575BC
:10C6300021017522007405297821120513A821E033
:10C64000A2E3E85005F452F7800242F78A828B8316
:10C65000E05D80068A828B83E048F0EC90159BF0C9
:10C66000E970079015957480800E74016990159596
:10C6700070047490800274A0F0A37470F012C6B1BC
:10C68000C0E090159BE0F8D0E0B800028004C3132E
:10C69000D8FCA2E092F09014F5E0A2E120F001B302
:10C6A000500B90149FE4F0A3F07901800279008090
:10C6B0000D90159512C74BE022758B00C2E87F02E2
:10C6C0000203277415F5D575D4811205D71205D14B
:10C6D000C2AF75C9AB75C95B80FEC082C083E9FC7F
:10C6E000EAFD7A007B00800312C72E90030012C778
:10C6F00024900355E0687003A3E069602290030171
:10C70000E0F5838882A3E493F8EC68700B90030053
:10C7100012CB7512C72E8007ED6870CCED60C98012
:10C720004B90031912C72822E0F8A3E0F9229003E6
:10C730000012C74BE493F8900300E028F8A3E0341C
:10C7400000F9900300E8F0A3E9F022E0F8A3E0F597
:10C7500083888222C082C08312C7A97A007901121D
:10C7600005EF8008F0906270E0D2E0F0D083D082D4
:10C7700002045674F61201F2E9FEEAFF12C7A97A22
:10C780000079021205EFEA4B601CEE60108A828B82
:10C7900083A3A3A3A3A3E4936E70E48009EFF874CA
:10C7A000FF281F0470D902C6BE90035312C72890F9
:10C7B0000300E8F0A3E9F02274F41201F2EAFF8B1F
:10C7C000217A001205FB7A0279041205EFEA4B6028
:10C7D000188A828B83A3A3E4936F70EA8A828B8387
:10C7E000A3A3A3E493652170DD7F0402032774F6FD
:10C7F0001201F274F81204D4E97A007B00600B1481
:10C80000600E14601114601480737A087BC1806D0F
:10C810007A007BC080677A487BC08061900329E002
:10C82000705790C0E8AC3CAD3D74081204107C28F1
:10C83000FD853C82853D83E5822DF582E43583F5D7
:10C8400083E0FF74292CF8E43403F9EF12C88288DE
:10C85000828983F0EFC412C882C0E0E824FEF5822A
:10C86000E934FFF583D0E0F00D74FC2CFCEDC394AB
:10C870000840BE900329742AF07A297B03740802C9
:10C88000C309540FFA74CC2AF582E434C0F583E06E
:10C8900022C082C0837A0079011205FB8A828B83D1
:10C8A000A3A3A3A3A3A3A3E493A2E6900315500418
:10C8B00074018001E4F0900314E4F090620F7403BB
:10C8C000F0E0A2E750FB02C76CC082C08390030275
:10C8D0007402F0A3E4F0900309F0790312061F75C7
:10C8E0003E00753F0002C76C74F51201F290620EB3
:10C8F000E0FEE4F0906211E0FFA2E4501D7480F0CD
:10C900009003097407F0E53E453F6009853E828546
:10C910003F831205B1900309E4F0EFA2E2500B90BF
:10C920006211E4F0900309F08063900309E0F87469
:10C9300002687042906216E0FF9003161203E3EF64
:10C94000F97A207B62120625740312046E8F2190FF
:10C95000031912CB0612CB6FE92F12CAF512D1DBE5
:10C960006004744080027448906211F0E8496003EA
:10C9700002CAEB02CAC77406687009853E82853F09
:10C98000831205B1900309E0600302CA76EFA2E0CA
:10C99000400302CAEB75211B752203752300782121
:10C9A0001204EA79087A207B6212062574031204C5
:10C9B0006E753E00753F0090031BE054E0601D243F
:10C9C000E0700302CA5224E0607224C0604824E090
:10C9D000700302CA5D24E0606E02CA68A3E01460BE
:10C9E0002624FE601D24FE600A24FC601F24FE60D5
:10C9F000208075120655900309E06404707274601B
:10CA0000807012064F80EF12064980EA12066D8090
:10CA1000E512067980E0A3E0600E24FA600F24FEA0
:10CA2000601024FE6011804012063D80C912065B32
:10CA300080C412066780BF12067380BA753EDF7528
:10CA40003F061206DF80AF753EE5753F061206E52C
:10CA500080A4753ED3753F061206D38099753ED9E2
:10CA6000753F061206D9808E9003097404F0808EFB
:10CA70007440906211F0900309E0F8740168705DF1
:10CA80007F0212C721C3E89420E994005007E8F51B
:10CA9000237F0A80037523209003161203E3A92342
:10CAA0007A207B6212062B740312046E85232112F6
:10CAB000CB6FE9252112CAF512CB06EF906211F077
:10CAC000E523C394205024E53E453F6009853E821E
:10CAD000853F831205B1900309E4F0800E74056868
:10CAE0007009853E82853F831205B1EE90620EF09B
:10CAF0007F03020327F9E43AFA900316E9F0A3EA68
:10CB0000F0A3EBF0A322C3E09521F0A3E09400F0A2
:10CB10002274F61201F27800740A28F582E43403D4
:10CB2000F583E9F008E8C3940540ED7800740F2818
:10CB3000F582E43403F583E9F008E8C3940540ED99
:10CB400002C6BE74F71201F2EAFCEBFDE9F87409C3
:10CB500012059A12CB72E860118C828D83E0120468
:10CB6000BEE9240109E43AFAD8EF7F0102032790D5
:10CB70000316E0F9A3E0FAA3E0FB2274F71201F236
:10CB8000EAFCEBFDE9F8740912059A12CB72E86031
:10CB9000111204A48C828D83F0E9240109E43AFA8D
:10CBA000D8EF80C674F61201F27540007541007529
:10CBB00042008A438B44EA90620BF08A218B2274F4
:10CBC000047821120548E521906207F08A218B2222
:10CBD00074097821120548E521543E906209F0025B
:10CBE000C6B974F61201F2E59DA2E650FA9062060B
:10CBF000E0FAA2E25035A843E890620BF0F52185F7
:10CC0000442274047821120548E521906207F085DA
:10CC1000432185442274097821120548E521543EB8
:10CC2000906209F0906201E0D2E0F07840EA46F6C6
:10CC3000906202E0F5217522007404782112051338
:10CC40007840E52146F608E52246F6906204E0F5D4
:10CC500021752200740978211205137841E52246D6
:10CC6000F6EAA2E0500375420174065A6003754269
:10CC700000E58BA2E55006758BDF7542001206FDBC
:10CC800002C6B974F61201F212D1D8600302CD5E69
:10CC9000A3E0F8A3E0600302CD5EA3E064027002AB
:10CCA000A3E0600302CD5E90031BE02480600914C2
:10CCB000604F14605C02CD5EE8600302CD5E9003BD
:10CCC00015E06004780180027800900323E8F0A367
:10CCD000E4F0900314E0600A900323E04402F0A320
:10CCE000E4F0900309E0640460149003167423F0E8
:10CCF000A37403F0A3E4F0A3740212D2DCF002C622
:10CD0000BE900302E064047055900323E4F0A38016
:10CD1000D0E8547FF521900302E064047040E521DF
:10CD2000C39406503974022521F582E43403F58357
:10CD3000E854806018A3A3A3A3A3A3A3E064037093
:10CD400004780180027800900323E88091E5822432
:10CD50000CF58250020583E0640370E980E39003E0
:10CD6000097404809874F61201F2E9FE900321120E
:10CD7000D1DB600302CE46900302E06404600B90B6
:10CD8000031F12D1DB600302CE4690031BE0541F49
:10CD9000600914603014602002CE4690031DE064E8
:10CDA000017022EE900314F0600479058002790688
:10CDB0007A001206F702CE4C90031FE0547FFA90DF
:10CDC000031DE06005790002CE4EEAC3940650765A
:10CDD000EA90620EF074022AF8E43403F990031F1B
:10CDE000E05480602CEE6004741080027440906205
:10CDF00011F0EE600474038001E488828983A3A3A8
:10CE0000A3A3A3A3A3F0EE60047908803079078080
:10CE10002CEE6004742080027480906214F0EE6046
:10CE20000474038001E4C0E0E8240CF582E439F5E1
:10CE300083D0E0F0EE6004790A800279091206F7E7
:10CE400090620EE480059003097404F0790102C633
:10CE5000BEC082C0837900120643E970031206EB5C
:10CE600002C76CC082C0837901120643E9700312C5
:10CE700006F102C76CC082C08390031F12D1DB7021
:10CE800015A312D1DB700F90031D12D0465480FA07
:10CE9000E9FBEA4B60079003097404801AE890628A
:10CEA00000F09003026009E06402700C74038007D4
:10CEB000E0640370037402F002C76C74F21201F2B2
:10CEC00090031DE0FAA3E0146008146010146039A8
:10CED00080571205F512D023A37B80804179001280
:10CEE00005FB12D0237B80E92402F9E43AFA12040C
:10CEF000A4FC1919E0FAA3E92403F9E43AFA1204AC
:10CF0000A4F9ECA3F0A3E9801CEAF9120607900348
:10CF100016EAF0A3EBF0A3E412D032A37B001204D4
:10CF2000A4A3F0A3E4F002CFE4900316E4F0A3F08E
:10CF3000A3F0F52490035712CB7502CFBF752200E2
:10CF400074037821120513EA2521F8EB3522F990B4
:10CF5000031D12D03CE493C0E0EFFCD0E06C705DA8
:10CF6000A3E4936E705790031F12D03CA3A3E493E5
:10CF7000C0E0EFFCD0E06C704488828983A3A3A357
:10CF8000E4936E703888828983A3A3A3A3E493F506
:10CF900021740193F522900316E521F0A3E522F018
:10CFA000A37480F088828983A3A3A3A3A3A3E4939B
:10CFB000F8740193F9900319E8F0A3E9F0052485CA
:10CFC000242190035912D046C39AF525E99BF526F2
:10CFD00074037825120548C3E5219525E49526506C
:10CFE0000302CF3D900316E0FCA3E0FDA3E0FEECBE
:10CFF0004D4E900309700474048022E06404601EA6
:10D0000090032112CB7512C721C3EA98EB995008FF
:10D01000900319EAF0A3EBF09003097401F07F0686
:10D02000020327900316EAF0A3EBF0A3748012D05A
:10D030003222F0900316E0F9A3E0FA22E0FEA3E02A
:10D04000FF888289832212C728E82274ED1201F238
:10D05000EA2404F521E43BF522852182F583E4935B
:10D06000602590035B12D046FEE9FF8007EE2404A2
:10D07000FE50010F8E828F83E493F8740193F9EAD6
:10D08000687002EB6970E6752500803F9062147449
:10D0900090F0741012D19D70037526408E828F839C
:10D0A000A3A3A3E49355296006E526D2E0F526E57F
:10D0B00026906215F0EA906213F0EC240CF582E4FD
:10D0C0003DF583E4F090620EF005258521828522EE
:10D0D00083E493F8E525C398400302D1987A007958
:10D0E000051205EF8A278B28EA452860DCEA24022E
:10D0F000F8E43528F9882389248882F583E4935459
:10D100000FF52B90620EF07526008A828B83A3A305
:10D11000A3A3E4932407F529A3E4933400F52A7428
:10D12000037829120548AA29852B2974022529F894
:10D13000E43403F9E8FCE9FD752901752A00E52BC3
:10D140007829120513E5272403F8E43528F9852307
:10D1500082852483E493A2E7400302D08C9062117D
:10D160007448F0740812D19D70037526408E828F2A
:10D1700083A3A3E49355296006E526D2E0F526E5CE
:10D1800026906212F0EA906210F08C828D83A3A345
:10D19000A3A3A3A3A302D0C37F0B020327F088821B
:10D1A0008983E4935403640122C082C08312D1D8DE
:10D1B0007010A312D1DB700AA3E064017002A3E037
:10D1C00060079003097404800C9003167403F0A3A5
:10D1D000740312D2D202C76B90031D12C728E8490C
:10D1E0002274F41201F2900302E0640260149003CE
:10D1F0001F12D1DB700CA312D1DB700690031EE06E
:10D2000060089003097404F0807B7A0079011206AB
:10D21000F790031DE0FE60587A00F91205FB8A21A1
:10D220008B22EA452260419003027404F0EEA3F0E1
:10D230007E00852182852283A3A3A3A3E493F8EE35
:10D24000C398503A74042EF582E43403F583E4F075
:10D250007A0079041205EF8A828B83A3A3A3E49357
:10D2600070EE1206610E80CA9003097404F0800EFD
:10D27000900303F09003027403F0F912061F7A0082
:10D2800079021206F702C7E974F51201F29003025F
:10D29000E06404701990031BE06481701112D1D80E
:10D2A000700C900321E064017002A3E0600790031A
:10D2B000097404801A90031FE02404F521A3E034CC
:10D2C00003F522900316E521F0A3E52212D2D20243
:10D2D000CAEFF0A3E4F0A30412D2DC22F0A3E4F03E
:10D2E000900309042274F41201F2900302E0640432
:10D2F000706090031BE06401705890032112D1DB31
:10D30000705090031FE0FE90031DE0FBEEFA9003C7
:10D3100003E0F91206018A218B22EA45226033EEEE
:10D32000FA79031206F790031DE0C0E090031FE0B6
:10D330002404F8A3E03403F988828983D0E0F0AABA
:10D3400021AB2212066190031FE0FA79041206F75E
:10D3500080069003097404F002C7E974F61201F222
:10D3600012DC4DF52195E0F52274027821120513A7
:10D37000E521240CF8E5223400F9901599E8F0A392
:10D38000E9F0E8FCE9FD90037FECF0A3ED12E1D5B4
:10D39000F0752104F52278211204EE7CFC7DC07A20
:10D3A000747B1512DC0312046E752120782112049F
:10D3B000EE12DBFB12046E7521007522017821123A
:10D3C00004EE7C9D7D137A007B0790C121E0F91269
:10D3D00005B3740212046E90149CE0F4700B782173
:10D3E0001204EE12DD3412046E1206B512060D7A26
:10D3F000FF7BFF12063102DA5274F51201F280034C
:10D40000120637A2E840F990620E7404F0A840E8D2
:10D41000540460097840E654FBF6120613A840E86D
:10D42000541060097840E654EFF612061990621421
:10D43000E0A2E050031206C1906211E0A2E0403A7F
:10D44000900326E0700D900325E06402702C7403B5
:10D45000F0802F64027023E4F0752174752215F5B5
:10D460002378211204EA790D7A287B6212062B7444
:10D470000312046E9062117401F0900325E06403BE
:10D4800070047901800279007F03020327C082C003
:10D490008375AC00759A0012DD2B90620FE4F0E00A
:10D4A000A2E740FB02E1E974F61201F2752104756E
:10D4B000220078211204EE7C457D157A787B1512C6
:10D4C000DC0312046E90C11C12058290157C1205BB
:10D4D0008E901580E4F075211478211204EE7C0002
:10D4E0007D007A607B1512DD3C12046E901560E0C1
:10D4F0005480F8A3E0F9E84470901560F0A3E9F0D7
:10D50000901569740AF090154912058290159112D0
:10D51000058E120697E9F8901550E0642A700512FE
:10D5200006C780769003267402F01468600E90158A
:10D530009112058290157C12058E805E901550E048
:10D540006428704A906211E0A2E040F812E01B12D9
:10D55000051312E003901532F0E9901531F075D6FD
:10D5600008E5D6A2E350FA75D70890159EE014F0AE
:10D57000700512E04E602390159DE004F064207069
:10D58000C3E4F090159CE004F01206A380B6901559
:10D5900091E060069062117401F002DA5A74F5129B
:10D5A00001F274E71204D47F01901550E0604B241F
:10D5B000FD607024F1700302D65A24F8700302D67D
:10D5C000A114700302D6CE24FE700302D7DF1470BC
:10D5D0000302D6E024FB700302D6EC24FE700302A3
:10D5E000D74F24FD700302D78C24FE700302D78C22
:10D5F000248A700302D79102D7D2900325E0600DF0
:10D60000901580EFF090032504F002D7DF900327F8
:10D61000E0700302D7DF14F0600302D7DF1206AF19
:10D6200002D7DF901549E0FAA3E0FBC3EA9415EBBB
:10D63000940040027A1475216075221575230078D4
:10D64000211204EAEAF97A287B6212062B7403128B
:10D65000046E901560E0547F80AF901549E0F8A308
:10D66000E0F9C3E89425E994004017E824DCF8E9E0
:10D6700034FFF9E8FAE9FB90157CEAF0A3EB12E13C
:10D68000D5F07521247522C075230078211204EA93
:10D6900079247A287B6212062B740312046E02D757
:10D6A000DF740912059AAC82AD837583C17582104F
:10D6B0007404120410740912059AA982AA8389219C
:10D6C0008A2275230078211204EA790480C4901517
:10D6D00054E06402600302D7DF900325EF02D6090D
:10D6E000A3E0700302D7DF90158080F0740D12055F
:10D6F0009AAC82AD837583C07582DC740C12041001
:10D7000090159AE0C0E0741312059AD0E0F09015DD
:10D7100099E0C0E0741412059AD0E012D7E9940D94
:10D72000ED940040027C0C906215E0D2E7F090622C
:10D7300012E0D2E7F0740D12059AA982AA8389211A
:10D740008A2275230078211204EAECF902D692EFBE
:10D7500012059AAC82AD837583C07582F07408128D
:10D76000041090159AE0C0E0740312059AD0E0F01E
:10D77000901599E0C0E0740412059AD0E012D7E940
:10D780009409ED940040027C08EF80AB1206CD8036
:10D790004E901549E0FAA3E0FB853C82853D83ACC1
:10D7A00082AD837583C1758222EF120410C3EA949F
:10D7B00002EB940040027A01853C82853D83AC8275
:10D7C000AD838C218D2275230078211204EAEA02B0
:10D7D000D74B901580EF12E183742012E17A1FEF8E
:10D7E000F9741912046E02D488F0901549E0FCA374
:10D7F000E0FDC3EC2274F61201F290159CE0648007
:10D80000702F900D5B7480F0900D5F7401F0900D9F
:10D81000637404F0901599E0900D67F090159AE00C
:10D82000900D68F0900D9B7455F0A374AAF002D986
:10D8300080E06481600302D98075213E7522007802
:10D84000211204EE7C5F7D037A9D7B0B12DC0312B8
:10D85000046E900D9B7455F0A374AAF0A374F8F0B5
:10D86000A374FFF0A3F090151BE0900DA07021E4CD
:10D87000F0A3F0F52175220178211204EE7C9D7D44
:10D88000137A9D7B1112DC0312046E90129C803976
:10D8900074FFF0A3740FF075212078211204EE7C40
:10D8A000017D157A9D7B1112DC0312046E75210037
:10D8B00075220178211204EE7C9D7D137ABD7B11C7
:10D8C00012DC0312046E9012BCE4F090149CE07021
:10D8D0000302D96712DC442404FEE93400FF7A0411
:10D8E0007B007C047D0280227AFF7B0FEAC0E0127D
:10D8F000D983D0E012D98EEB540FC0E012D983D077
:10D90000E0F0EA24010AEB3400FBC3EE9AEF9B40FF
:10D9100056EE6A7002EF6B70047AFF7B0FECF8ED45
:10D92000F9E824010CE93400FDEAC454F0F521744F
:10D930009D28F582740B39F583E04521F08A218B0F
:10D94000227404782112054812D983E52112D98E58
:10D95000EA24010AEB3400FBEE6A7002EF6B608888
:10D96000C3EE9AEF9B508575210075220278211233
:10D9700004EE7C9D7D0D7A9D7B0F12DC0312046EFC
:10D9800002DA5A749D2CF582740B3DF58322F0EC7B
:10D9900024010CED3400FD2274F61201F274FF1222
:10D9A00004D490159CE0C39480503290149CE060A5
:10D9B0002C90159CE05407F87401B800028004C351
:10D9C00033D8FCC0E0E0131313541FF874E528F5B6
:10D9D00082741412E016D0E0F8E0586037853C827B
:10D9E000853D83E4F0E58290153AF0853D83E5833B
:10D9F000901539F09015407412F075D610E5D6A246
:10DA0000E450FA75D71090159CE0C39480403E1204
:10DA1000069D8039E5C7FA90153A12E03C120513CD
:10DA20002400E5223480901539F090154012E02949
:10DA300075D610E5D6A2E450FA75D710E5D6A2E463
:10DA400040FA8AC77A9D7B0BE0F91205C574010282
:10DA5000DBF553F4FED29043FE017F0202032774EC
:10DA6000F61201F274FC1204D490159DE0C39419CF
:10DA7000500302DBB0853C82853D83AC82AD83756B
:10DA800083C175821474041204107EBD7F11800856
:10DA9000EE2420FEEF3400FF75212075220078214E
:10DAA0001204EE7C8C7DC0EEFAEF12DC2512046EBF
:10DAB0008B22EA452270D9EE24E0FEEF34FFFF7599
:10DAC000210375220078211204EE7C187DC1EE241A
:10DAD0000812DC1D12046E8B22EA452275210475A2
:10DAE0002200782170551204EE740212059A12DC9D
:10DAF0001612046E8B22EA4522900328700A7404E1
:10DB0000F090151BE402DBEC740212E00F740212B9
:10DB1000DC2C7464F0EE241D12DC0CEE241E12DCEE
:10DB20000C12DC09752120F52278211204EEEEFC9E
:10DB3000EFFD12DBFF12046E02DBED1204EE740245
:10DB400012059A12DC1612046E8B22EA4522700B23
:10DB50009003287403F090149C80A912DC442401E3
:10DB6000F521E93400F5227403782112051390039E
:10DB7000280412E00F740312DC2CE4F0EE241D12D2
:10DB8000E013E521F0EE241E12E013E522F012DC92
:10DB900009F52175220178211204EE7CBD7D117AF0
:10DBA0009D7B1312DC0312046E90149C7401803C64
:10DBB000E0C394114037900FA0E0701B90151BE05C
:10DBC0006015E4F09003287404F090149CE0701D3C
:10DBD00079011205E38016900FA1E054F0700E90C9
:10DBE000149CE06008E4F09003287403F09003278D
:10DBF0007408F0740412046E02DA5A7C6C7DC07AE8
:10DC0000017B15120709740222EE241FF582EF34FE
:10DC100000F583E4F022AC82AD83EE241CFAEF34ED
:10DC20000012DC2522FB120703740222F0EE241BF3
:10DC3000F582EF3400F583E4F0EE241CF582EF3436
:10DC400000F5832212DC4DF895E0F9E82290C1201E
:10DC5000E0F890C121E0FAE8C39A2274F61201F2CA
:10DC600012DD2B900328E014600A24FE604E14603D
:10DC70007102DD1C901500E0600302DD1C1205BF7F
:10DC8000E9700302DD1C7521407522007821120421
:10DC9000EE7C9D7D1390C121E0F52174097821125D
:10DCA000051324C0FAE5223401FB1205B9740212EF
:10DCB000046EC2AF75C9AB75C95B80FE901500E0FC
:10DCC00070047900800890151BE060167901120538
:10DCD000E375210075220178211204EE12DD341261
:10DCE000046E90149FE4F0A3F090149CE0702D90CB
:10DCF000151BE0702775212075220078211204EE93
:10DD000012DBFB12046E75216478211204EE7CFF95
:10DD10007D007A9D7B1412DD3C12046E900328E492
:10DD2000F07AD07B071206BB02DA5253F4FEC2909F
:10DD300043FE01227C007D007A9D7B1312070F7445
:10DD40000222C082C0837415F5D375D221901522AA
:10DD50007428F09015217462F090152512DDA374DB
:10DD600012F090152C749DF0740390152BF0901503
:10DD70002D12E1D37420F09015347428F0901533EF
:10DD80007462F090153512DDA37442F090153C7466
:10DD90009DF0740B90153BF090153D12E1D374206B
:10DDA00002E1E8E4F0A37440F0A37420F0A322EBB6
:10DDB000C313FBEA13FAEAF8EBF9E824FFFAE934B3
:10DDC000FFFBE849601A00000000000000000000AE
:10DDD000000000000000000000000000000080D6ED
:10DDE00002045674F61201F2906216E0FA741F6A89
:10DDF000705578417915906228E088828983F0A374
:10DE0000A882A9831AEA70EE752104752200782190
:10DE10001204EE7CF87DC07A417B1512DC261204D8
:10DE20006E8B22EA4522702A90154EE070249015E0
:10DE30004DE060046480701A90154FE014C3941094
:10DE40005010120691800B9062147410F0E0A2E45E
:10DE500040FB906214E4F002DA5A74F61201F29078
:10DE60006214E4F0906214E0A2E0400302DFEA12E0
:10DE7000E01B12051312E003901524F0E99015231E
:10DE8000F075D602E5D6A2E150FA75D70290621479
:10DE9000E4F090159EE014F0700B12E04E700690C6
:10DEA00003267402F090159DE004F06420600812CF
:10DEB000E062600302DFEA90159CE06481700C125E
:10DEC00006A990159CE004F002DFE5900328E064C9
:10DED00002702F90159CE064826006E0C39480502D
:10DEE000217A9D7B0B1205CBE9600302DFE57521EA
:10DEF0002075220078211204EE12DBFB12046E0260
:10DF0000DFE590159CE0C39480400302DFE59015A7
:10DF100000E0600302DFE57A9D7B0B90159CE0F941
:10DF20001205C5E9700512DFF580FE752100752226
:10DF30000278211204EE7C9D7D0B90159CE0F5216A
:10DF400075220074097821120513FAAB221205B963
:10DF5000740212046EE5C7FA90152A12E03C12050D
:10DF6000132400E5223480901529F090153012E03A
:10DF70002975D604E5D6A2E250FA75D704E5D6A2F3
:10DF8000E240FA8AC775220878211204EE7C9D7D52
:10DF9000037A9D7B0B12DC2612046E8B22EA45224B
:10DFA000600512DFF580FE12E062603990159CE09A
:10DFB00004F0C39478400512DFF580FEE05407F8C2
:10DFC0007401B800028004C333D8FCC0E0E013132E
:10DFD00013541FF874D528F582741412E016D0E09B
:10DFE000F8E05860C790159DE4F012E0626003020B
:10DFF000DE6402DA5A79011205E3C2AF75C9AB7566
:10E00000C95B22749D2521F8740B3522F9E822F0B2
:10E01000EE241AF582EF3400F5832290159DE0F589
:10E020002175220074067821227452F090159CE02C
:10E03000C4540FF8E5C754F848F5C722E4F090152A
:10E040009CE0540FF521752200740B78212274088E
:10E05000F0901597E024FFF0F8A3E034FFF0F9E822
:10E060004922901597E0F8A3E0F9E8492274F612E6
:10E0700001F274FC1204D4901558E0FA901557E0A0
:10E08000F9EA901597F0A3E9F0901552E0C0E0741A
:10E090000312059AD0E0F0901553E0C0E07402122C
:10E0A000059AD0E0F0901554E0C0E0740112059A92
:10E0B000D0E0F0901555E0853C82853D83F07402F8
:10E0C00012059A12E0657028853C82853D83E0F850
:10E0D000A3E0F9901597E028FAA3E039FB90159991
:10E0E000E0240CF8A3E03400F9C3EA98EB99401C53
:10E0F000901580740112E1837421F0A3E412E17A97
:10E1000090159112058290157C12058E90159E74C3
:10E1100008F0853C82853D83E0FAA3E0FBC3EA94E6
:10E120000CEB94004008EA24F4FAEB34FFFB8A215C
:10E130008B2274027821120548A821E8333354FC5D
:10E14000F9EAC39933333354F890159DF0853C8236
:10E15000853D83C3E0940CA3E09400500474808058
:10E160000490C121E028F8E890159CF0901550E04B
:10E17000642870031206A302DBF3F0901560E044FC
:10E1800080F022F0901563E054F0F8A3E0F9E84441
:10E1900005901563F0A3E9F090156E228041C082CE
:10E1A000C08390031CE064FE7021900309E07017A7
:10E1B0009003167423F0A374C112E1D504F0A3E414
:10E1C000F090030904800964016006900309740457
:10E1D000F080167408F0A3E4F0A32280028000C04F
:10E1E00082C0839003097404F0D083D08202045665
:10E1F00080ED020456020456FFFFFFFFFFFFFFFF02
:10E20000FFFFFFFFFFFFFFFFFFFFFFFFFFFFFFFF1E
:10E21000FFFFFFFFFFFFFFFFFFFFFFFFFFFFFFFF0E
:10E22000FFFFFFFFFFFFFFFFFFFFFFFFFFFFFFFFFE
:10E23000FFFFFFFFFFFFFFFFFFFFFFFFFFFFFFFFEE
:0400000500000526CC
:00000001FF
