:020000040000FA
:0600000002011A0220ECCF
:03002B000227D5D4
:030033000227B7EA
:03003B0002283464
:030043000227652C
:0300530002216225
:03006B000227F970
:10008300021F9BE5C754F84401F5C779012200001C
:100093000080FB120086B90003020104E47944786E
:1000A30008B800028004F709D8FCE4794C7802B858
:1000B30000028004F709D8FCE4900281789579095D
:1000C3008002F0A3D8FCD9FA784390014A7A01BAA6
:1000D30000028007E493A3F608DAF97A157B0B9004
:1000E300014B781A79048015E493A3AD82AE838A19
:1000F300828B83F0A3AA82AB838D828E83D8E9D9C6
:10010300E775825B7583A6740312012C7582917562
:100113008300740012012C75D00075814F754181E5
:10012300754202759F00020096C09FF59FE473D04D
:100133009F22D083D082C09FE493C0E0740193C018
:10014300E0740293F59F2201FF0000B40000280031
:100153002800283075A000A000A000A0000008001F
:1001630008E001F000100010001000100010001053
:100173000050005000500010001000D00700000095
:100183000000000F0001000500307507001000019A
:100193000081FF00000000FF620680066806FF0280
:1001A300020208025000A0000000E80302AB920123
:1001B30000009C9202A7920100006C0B02A1920125
:1001C3000000B30202A7920100006D0B029F92018F
:1001D3000000C90202A7920100006E0B02B6910152
:1001E3000000CB0202A7920100006F0B02A392084A
:1001F3000000CC0202A792010000700B02AF920133
:100203000000710BFF0100FF2002AB92010000967A
:100213009202A792010000D50B02C19200000000D8
:100223000002B1920300001903920C920C920C92FB
:100233000C920C920C920C920C920C920C920C92CB
:100243000C920C6E0F860F680FFFFF020202020270
:1002530002020202010D000000100102AB92010034
:1002630000999202A792010000180C02C5920100A6
:1002730000C00702A792010000190C02C3920100FB
:1002830000529102A7920100001A0C02BF920100D2
:1002930000449102A7920100001B0C02BD920100D1
:1002A30000B19002A7920100001C0C02BB92010056
:1002B30000C39002A7920100001D0C02B992010035
:1002C300009F9002A7920100001E0C02B79201004A
:1002D300008D9002A7920100001F0C02B59201004D
:1002E30000369102A792010000200C02B392010094
:1002F30000210C01E803053F100AFF0001307503DC
:1003030002010600000000000000000000000000E1
:10031300000000000000000000000000000000FFDB
:10032300FF0600800CE803140953696D706C654285
:100333004C455065726970686572616C05125000B6
:100343002003020A000201060302F0FF53696D70E5
:100353006C6520424C452050657269706865726116
:100363006C2A140000301468656C6C6F2C41542C9B
:100373002049206D6973732075200D0A0000000A5F
:100383004368617261637465726973746963203170
:1003930000024368617261637465726973746963AF
:1003A3002032000843686172616374657269737413
:1003B3006963203300104368617261637465726915
:1003C3007374696320340002436861726163746506
:1003D30072697374696320350002AB920100009364
:1003E3009202A7920100004C0D02CF920300000677
:1003F3000B02A5920100004D0D02A7920100005EC1
:100403000D02D192010000070B02A5920100005FCB
:100413000D02A792010000700D02D39202000008A2
:100423000B02A592010000710D02A7920100008248
:100433000D02D592000000090B02B1920300000ADD
:100443000B02A592010000830D02A7920100009404
:100453000D02C992040000100B02A5920100009541
:100463000D1201352896031201353F96031201350B
:10047300709603120135AB9603120135D59603121C
:100483000135FF96031201351697031201352D9797
:10049300031201354497031201356D970312013599
:1004A300809703120135969703120135A99703121A
:1004B3000135D097031201350198021201350599D0
:1004C300021201353D99021201356099021201357C
:1004D3006B99021201358E99021201359D9A02120F
:1004E3000135729B02120135ED9B02120135759C99
:1004F30002120135B09C02120135E79C021201354C
:10050300759D021201354E9E02120135AE9E0212F6
:100513000135B99E02120135389F021201353B9F06
:10052300021201353E9F02120135CD9F02120135A1
:10053300D09F0212013500A0021201352AA0021237
:10054300013518A102120135CAA10212013530E6A4
:100553000212013558E60212013586E60212013510
:10056300BDE6021201351BE70212013566E70212EE
:100573000135B1E702120135F1E70212013537E81F
:100583000212013565E80212013522E90212013532
:100593002CE90212013539E9021201356CE9021224
:1005A300013538EA0212013544EA021201355CEAE8
:1005B3000212013566EA021201351AA2031201354D
:1005C30028A20312013540A20312013558A20312D7
:1005D3000135D1B2011201357DB301120135F8B3F2
:1005E3000112013519B50112013555B50112013555
:1005F300FEB501120135E5B60112013549B8011204
:100603000135A0B80112013521B90112013511BA22
:10061300011201355EBA01120135E4BA0112013546
:1006230016BB011201352ABD011201356CBD011241
:1006330001358ABD011201350DBE01120135E1BE3E
:1006430001120135A9BF0112013551D5021201353D
:1006530024D602120135CDD60212013520D702125B
:100663000135D0D7021201355CD80212013548D9C1
:100673000212013577D9021201358ADA02120135E5
:10068300D2DA02120135A7DB02120135E3DB0212D3
:100693000135FFDB0212013578A503120135008015
:1006A300031201351680031201353C800312013514
:1006B30058810312013562810312013597820312B7
:1006C30001358F830312013563F90112013593FA62
:1006D30001120135C6FA0112013510FB0112013571
:1006E300D7FC01120135E2A2011201354CA301121C
:1006F3000135ABA401120135BBA401120135E8A4F5
:10070300011201353FA501120135E8A5011201359A
:10071300EFA601120135B9A70112013519A901127A
:1007230001355CA90112013501AA011201354EAA56
:100733000112013574AA0112013582AC011201358F
:1007430087AC011201358CAE01120135D9AE01120D
:1007530001354CAF011201357FAF0112013521B0D4
:1007630001120135CAB00112013502B1011201357E
:1007730005B1011201354DB1011201358DB10112DF
:100783000135E4B101120135288A03120135408A8B
:1007930003120135888A031201359E8A031201353B
:1007A300E58A03120135F98B03120135868C031296
:1007B3000135D18C03120135A82800120135B42864
:1007C30000120135EF2800120135342900120135DA
:1007D300F429001201357A2A00120135DF2A0012AA
:1007E30001350B2B00120135442B00120135822DEC
:1007F30000120135662F001201354C31001201350C
:100803008F3200120135DD3400120135EF3500124D
:1008130001353A37001201354A380012013567387D
:1008230000120135A23800120135C4380012013517
:10083300273900120135E83D001201357D3E0012D3
:100843000135CE3E00120135F53E00120135473F1A
:1008530000120135653F00120135BF3F001201351B
:10086300A840001201351E4200120135A2420012B7
:100873000135EDEA02120135F7EA021201353AEBCE
:100883000212013555EB02120135E5EB0212013577
:100893000DEC021201354AEC0212013581EC021211
:1008A3000135AAEC021201351FED0212013534EDB8
:1008B3000212013549ED021201357AED02120135BA
:1008C3008EED02120135B3ED02120135EDED021288
:1008D300013519EE0212013551EE02120135D0EE47
:1008E3000212013519EF0212013543EF02120135ED
:1008F3006EEF021201351F9E0312013500800212B2
:1009030001352E80021201357C81021201355C8291
:10091300021201357B8202120135F882021201357F
:100923003B83021201359184021201355285021272
:100933000135D987021201357A880212013570898F
:10094300021201356D8A02120135C78B021201357D
:10095300528C02120135C49C031201352D9D0312E2
:100963000135819D03120135A89D03120135D99DDF
:100973000312013515F40212013582F40212013516
:10098300C9F402120135E1F502120135DDF6021256
:100993000135C0F7021201357EB502120135C0B52B
:1009A3000212013592B6021201356BB702120135FC
:1009B30065B80212013547B902120135B0B9021206
:1009C300013566BA02120135DABA0212013546BBA5
:1009D300021201356FBB02120135E9BB0212013568
:1009E30082BC02120135E7BC02120135FCBC0212C3
:1009F300013542BD021201355BBD02120135C0BD96
:100A030002120135C3BD021201352F8703120135CE
:100A13005787031201359587031201355388031253
:100A23000135BA8803120135D68803120135FE88D1
:100A3300031201352E89031201353D890312013555
:100A4300BA8903120135E08903120135DB920112E1
:100A53000135799401120135949601120135D0962E
:100A630001120135FD9601120135E297011201359C
:100A73002998011201356D98011201357F980112F1
:100A83000135BF9801120135EC98011201353799F0
:100A930001120135779901120135A599011201352A
:100AA300F79901120135879A01120135259D01122B
:100AB30001353B9F01120135799F011201350AA1CE
:100AC300011201354FA101120135C6A101120135F1
:100AD30010A2011201353BA20112013505AC02122D
:100AE300013584AC0212013546B20212013555B309
:100AF30002120135BDB40212013554B5021201359B
:100B03003357001201357C5700120135A9570012E3
:100B13000135DC5700120135E95700120135F5574D
:100B230000120135075800120135EE580012013545
:100B33004C5900120135815900120135C45A001273
:100B43000135115B00120135355B00120135A25BE3
:100B530000120135605C00120135195D0012013588
:100B6300865D00120135385E00120135485E0012C1
:100B73000135CF5E001201358E5F00120135BB5F78
:100B83000012013534600012013591600012013505
:100B9300DB60001201357161001201353C62001205
:100BA3000135F16200120135666300120135C76336
:100BB300001201353164001201356A6400120135F7
:100BC3000C65001201351C66001201355C660012CB
:100BD3000135796600120135986600120135DF662A
:100BE3000012013504670012013531670012013527
:100BF300AB6700120135EC67001201351069001272
:100C03000135C06900120135176A00120135816A86
:100C1300001201359A6A001201353BA20212013516
:100C23008EA2021201359AA2021201356FA302129B
:100C3300013596A302120135D1A3021201353DA459
:100C43000212013579A402120135B2A40212013550
:100C5300CAA4021201351FA50212013538A50212DA
:100C6300013581A50212013594A502120135AEA505
:100C730002120135C4A502120135F7A6021201358D
:100C83003EA80212013540A9021201353AAA021206
:100C930001359D28001201352CEC011201355CEC65
:100CA3000112013524F0011201357BF101120135E6
:100CB30044F201120135C4F30112013595F4011216
:100CC3000135D2F401120135F5F40112013533F582
:100CD300011201353CF50112013586F5011201358A
:100CE30090F5011201353AF60112013513F701129D
:100CF300013567F701120135C9F7011201351CF8F7
:100D0300011201354BF80112013588F80112013542
:100D1300CC6A00120135336E00120135396E0012B0
:100D23000135BB73001201353478001201350A7C9A
:100D330000120135597C00120135CF7C00120135B8
:100D4300E57C00120135267D00120135607D00121D
:100D53000135D97D00120135147E00120135877EDD
:100D630000120135C57E00120135CE7E0012013519
:100D7300DA7E00120135F67E00120135217F001262
:100D83000135377F00120135607F00120135C37FC3
:100D9300001201356DE10212013580E102120135C5
:100DA3009AE102120135C3E10212013506E2021291
:100DB300013545E20212013583E202120135E8E210
:100DC30002120135FDE20212013508E30212013578
:100DD30015E3021201352CE3021201353AE3021244
:100DE300013545E30212013551E30212013564E393
:100DF300021201356FE30212013592E3021201354B
:100E030039E40212013549E40212013563E40212A6
:100E1300013580E4021201359CE402120135C1E47C
:100E230002120135CCE402120135E1E4021201356C
:100E3300F5E40212013556E5021201355CE50212B2
:100E4300013562E50212013568E50212013580E5DC
:100E530002120135B3E50212013533D00112013517
:100E6300B7D00112013566D101120135C5D2011285
:100E73000135E6D401120135D2D50112013507D669
:100E83000112013529D601120135D8D601120135D7
:100E9300D0D801120135F9D8011201358BD90112CD
:100EA3000135BDD901120135CAD90112013521DA43
:100EB3000112013547DA01120135B4DC01120135A3
:100EC300B7DD011201350FDE01120135C2C1011276
:100ED3000135CCC201120135B3C301120135BDC3C3
:100EE30001120135DFC301120135EBC301120135D4
:100EF30084C501120135B3C501120135CFC60112F4
:100F0300013528C7011201358EC8011201356DC99B
:100F130001120135C9C90112013536CA0112013561
:100F230071CA01120135B0CA0112013569CD01122E
:100F3300013583CD011201350FCE011201351DCECE
:100F43000112013576CE0112013584CE011201352D
:100F5300F7CE011201355BCF01120135A5CF011286
:100F63000135D38C02120135F58C021201351B8F2A
:100F730002120135309202120135489302120135F3
:100F8300FB9302120135DD9402120135E29703123D
:100F93000135079803120135799803120135D7CD2E
:100FA30002120135E0CD02120135E9CD02120135FD
:100FB300C0CE0212013571D002120135A7D0021240
:100FC3000135E1D00212013517D10212013551D199
:100FD3000212013585D102120135B1D10212013558
:100FE300FAD10212013534D2021201357DD2021236
:100FF3000135D5D2021201350AD30212013565D368
:10100300021201359FD302120135F0D302120135CA
:1010130026D40212013560D4021201358ED4021295
:101023000135B1D402120135A7A303120135D3A3AD
:10103300031201352EA40312013538A4031201351E
:1010430048A403120135E7BD02120135F1BD0212B6
:1010530001352FBE0212013578BE02120135B2BE30
:101063000212013508BF0212013529BF02120135F0
:10107300AEC102120135B7C10212013502C202121A
:1010830001352BC20212013535C202120135A1C24C
:101093000212013537C30212013581C30212013531
:1010A300B1C3021201353AC4021201357AC40212E5
:1010B3000135B2C402120135C4C402120135E3C4BE
:1010C30002120135ECC402120135B7C50212013513
:1010D3003CA0031201353994031201356F940312B6
:1010E3000135A59403120135EE950312013552A47F
:1010F3000312013568A40312013572A403120135EA
:10110300BCA403120135FCA50312013596EF0212AC
:101113000135ABEF021201355BF0021201359BF092
:1011230002120135B4F002120135E8F00212013562
:1011330035F10212013569F102120135ABF10212E8
:101143000135AFF3021201358AFE01120135B3FEF8
:1011530001120135DCFE0112013577FF0112013561
:10116300B9FF01120135EAA403120135EDA40312FC
:101173000135FB8C03120135208D031201354A8D95
:1011830003120135FCA60312013509430012013590
:101193006D45001201351E4700120135204800122B
:1011A3000135A948001201352D4900120135524974
:1011B300001201358B4C00120135FF4C0012013532
:1011C300F04D001201352A4E001201356A4E00120D
:1011D30001351D5000120135705000120135B95010
:1011E3000012013527510012013559510012013502
:1011F30071510012013586520012013596520012C8
:101203000135B15300120135D3530012013509548E
:1012130000120135AD5500120135EC5500120135B0
:101223000E5700120135F1A20312013502A3031276
:101233000135B3A603120135F2A603120135E3A764
:101243000312013533A10312013543A10312013502
:101253005BA1031201350DA203120135389F03125E
:101263000135BD9F0312013523A003120135879970
:1012730003120135B09903120135169A0312013591
:10128300369A03120135879A03120135E09A031245
:1012930001351A9B031201351D9B0312013582F898
:1012A30002120135B9F80212013529F9021201358A
:1012B3003EF90212013554FA02120135D6FA02122E
:1012C30001359CFB02120135BBFB02120135E2FB27
:1012D3000212013517FC021201352FFC02120135EF
:1012E30080FC02120135CDA703120135DDA70312DD
:1012F3000135E0A703120135F87F0012013504928E
:10130300031201358F9303120135F0930312013554
:10131300369403120135F6A703120135B5FC021208
:10132300013550FD02120135E7FD02120135A9FE18
:10133300021201351BFF0212013543FF0212013570
:101343004CFF02120135BBFF02120135CFFF02121F
:101353000135D9FF02120135279B03120135779B13
:1013630003120135009C03120135669C03120135FB
:10137300C78F03120135F18F03120135B7900312A2
:101383000135929103120135E1C5021201359EC662
:1013930002120135D9C60212013501C70212013505
:1013A30063C702120135AFC7021201350FC802121B
:1013B3000135A2C802120135A1C90212013530CB91
:1013C30002120135B3CB021201351ACC02120135D8
:1013D30031CC021201353BCD0212013579CD021217
:1013E30001355DDE01120135BDE10112013545E331
:1013F300011201359CE301120135BBE301120135F2
:1014030039E401120135C9E501120135ADE60112D6
:101413000135B9EA0112013589EB0112013574DC9A
:1014230002120135AADE021201358FDF02120135E5
:101433000BE102120135998303120135DE83031296
:101443000135FB8303120135B18403120135048591
:1014530003120135E28503120135F68603120135C5
:1014630079A70312013543A703120135A5A7031278
:101473000135DCFF02E066701008A3E066700A081D
:10148300A3E066700408A3E06622C3E7960809E7B1
:10149300960809E7960809E79622C3E09608A3E0B1
:1014A3009608A3E09608A3E09622C021C3E096F530
:1014B3002108A3E096422108A3E096422108A3E075
:1014C3009645217001D3D02122080808EAC0E0EB39
:1014D300C0E086F0E7A4FA180986F0E7A42AFA1810
:1014E3000986F0E7A42AFA180986F0E7A42AFA196C
:1014F30086F0E7A4FBE5F02AFA190886F0E7A42BA7
:10150300FBE5F03AFA190886F0E7A42BFBE5F03A7D
:10151300FA18180986F0E7A4C5F02BFBE43AFA1988
:1015230008E7C5F0C6A426F6E5F03BFBE43AFA1853
:1015330086F0E7A4F6E5F00826F6E43B08F6E43A7D
:1015430008F6D0E0FBD0E0FA22E4CFC0E0E4CEC05E
:10155300E0E4CDC0E0E4CCC0E075F020E626F60878
:10156300E633F608E633F608E633F6181818EC33D4
:10157300FCED33FDEE33FEEF33FFC3EC9709ED973C
:1015830009EE9709EF97191919400FFFEC97FC091A
:10159300ED97FD09EE97FE191906D5F0BFECF70993
:1015A300EDF709EEF709EFF7191919D0E0FCD0E0D0
:1015B300FDD0E0FED0E0FF226016080808C6C31382
:1015C300C618C613C618C613C618C613C6D5E0EA8E
:1015D300227009080808226016181818C6C333C6F3
:1015E30008C633C608C633C608C633C6D5E0EA22E2
:1015F300E627F60809E637F60809E637F60809E6A6
:1016030037F622E026F608A3E036F608A3E036F61E
:1016130008A3E036F622E026F008A3E036F008A39C
:10162300E036F008A3E036F022C3E697F60809E6B1
:1016330097F60809E697F60809E697F622C3E096B7
:10164300F008A3E096F008A3E096F008A3E096F074
:1016530022E056F608A3E056F608A3E056F608A3E0
:10166300E056F622E056F008A3E056F008A3E05651
:10167300F008A3E056F022E0F608A3E0F608A3E0A2
:10168300F608A3E0F622E6F008A3E6F008A3E6F0E6
:1016930008A3E6F022E0FAA3E0FBA3E0FCA3E0FD4D
:1016A30022EAF0A3EBF0A3ECF0A3EDF022E0F8A321
:1016B300E0F9A3E0FAA3E0FB22E8F0A3E9F0A3EA50
:1016C300F0A3EBF022CAC0E0E6F0A308DAFAD0E018
:1016D300FA22CAC0E0E0A3C582CCC582C583CDC5CA
:1016E30083F0A3C582CCC582C583CDC583DAE6D09A
:1016F300E0CA22C3E498F8E499F91217378026C3A5
:10170300E49AFAE49BFBE920E7E9121737E498F837
:10171300E499F922C3E498F8E499F9121737E498A5
:10172300F8E499F9C3E49AFAE49BFB22EB20E7CFB0
:10173300E920E7E0B90010BB0008E88AF084F8AAC2
:10174300F022E4FBC8FA22EB70227B10C833C8C92D
:1017530033C9335007C39AC3DBF280069A50012A78
:10176300DBEAC833F4C8C933F4C9FA2275F008E4D4
:10177300C833C8C933C933C99AC99B5004C92AC9D4
:101783003BD5F0ECFBC833F4C8E4C9FA22600D087A
:10179300C6A2E713C618C613C6D5E0F322600C0829
:1017A300C6C313C618C613C6D5E0F422700422605C
:1017B3000D18C6C333C608C633C6D5E0F4182225B0
:1017C3004110AF08F541400C15428008F541400235
:1017D3001542D2AF2200C0D0254110AF08F54150C9
:1017E3000C05428008F54150020542D2AFD0D02209
:1017F3002541F58210AF08F541400C15428008F5EC
:101803004140021542D2AF854283222541F582E44D
:101813003542F583222541F8E43542F9222541FA80
:10182300E43542FB222541FCE43542FD22E47325E5
:1018330041C582C0E0E54234FFC583C0E0E541C352
:10184300958224F810AF08858342858241800885FC
:101853008342858241D2AFCEF0A3E520F0A3782165
:10186300E608F0A3DEFAEFF0A3E58124FAF8E60830
:10187300F0A3E608F0A3E608F0A30808E608F0A33F
:10188300E608F0A315811581D0E0FED0E0F81581BC
:1018930015811581E8C0E0EEC0E0222541C582C074
:1018A300E0E54234FFC583C0E0E541C3958224F9F6
:1018B30010AF0885834285824180088583428582F3
:1018C30041D2AFCEF0A3E520F0A37821E608F0A340
:1018D300DEFAEFF0A3E58124FBF8E608F0A3E608BF
:1018E300F0A30808E608F0A3E608F0A31581158124
:1018F300D0E0FED0E0F815811581E8C0E0EEC0E04D
:1019030022854283854182E0A3FEE0A3F52078216E
:10191300E0A3F608DFFAE0A3FFE0A3C0E0E0A3C082
:10192300E0E0A3C0E0E0A3C0E0E0A3C0E010AF08A4
:101933008582418583428008858241858342D2AF77
:10194300D083D082020132854283854182E0A3FEA7
:10195300E0A3F5207821E0A3F608DFFAE0A3FFE097
:10196300A3C0E0E0A3C0E0E0A3C0E0E0A3C0E010B8
:10197300AF08858241858342800885824185834201
:10198300D2AFD083D08222C0D02541C582C0E0E54A
:101993004234FFC583C0E0E541C3958224F310AF11
:1019A300088583428582418008858342858241D2AE
:1019B300AFC8F0A3E9F0A3EAF0A3EBF0A37921E722
:1019C30009F0A3D8FAECF0A3EDF0A3EEF0A3EFF047
:1019D300A3D0E0F0A3D0E0F0A3D0E0F0A3E520F0A3
:1019E300A3E5F0F0A322854283854182E0C0E0A312
:1019F300E0F9A3E0FAA3E0FBA37821E0F608A3DF74
:101A0300FAE0FCA3E0FDA3E0FEA3E0FFA3E0C0E057
:101A1300A3E0C0E0A3E0F5D0A3E0F520A3E0A3F5A5
:101A2300F010AF0885834285824180088583428513
:101A33008241D2AFD082D083D0E0F8D0E0327404B8
:101A43008006740280027401C0E0F4041217F3D01C
:101A5300E01216C8227404800474028000CCC0E033
:101A6300EDC0E0E541C39CCCAD4250011D10AF0673
:101A73008C418D4280068C418D42D2AF1216D5D057
:101A8300E0FDD0E0FC22D083D082E9C0E0E493A360
:101A9300C386F0C5F095F0F908E493A386F0C5F08A
:101AA30095F0700BE493A3C3994005E9048002A366
:101AB300E475F002A42582F582E5F03583F583D041
:101AC300E0F9E493A3C0E0E493C0E022D083D082A2
:101AD300ECC0E0EDC0E0E493A3FCE493A3FDED4C84
:101AE300600D121B1BEC24FFFCED34FFFD80EFE4C3
:101AF30093A3FCE493A3FDED4C600D121B5AEC245D
:101B0300FFFCED34FFFD80EFD0E0FDD0E0FCE4937B
:101B1300A3C0E0E493C0E022C0E0C3E4939608745A
:101B230001939618400FE493667008087401936656
:101B33001870007019A3A3C3E493960874019396D5
:101B430018A3A3400DD0E0D0E0D0E0021B0BA3A369
:101B5300A3A3A3A3D0E022C0E0C0F088F0E493667F
:101B630070080874019366187000A8F0A3A3700BA3
:101B7300D0F0D0E0D0E0D0E0021B0BA3A3D0F0D094
:021B8300E0225E
:101B880074F512189EEAFEEBFFEE2434F8EF3400E9
:101B9800F988218922EE2435121CB4F8EE24371274
:101BA8001CB4F523EC8523F0A4FCAAF08523F0ED02
:101BB800A42AFDE82CF8E43DF97A257B00121737B2
:101BC800EA852182852283F074075AF87401B800E7
:101BD800028004C333D8FCFBEA131313541FF8EE36
:101BE80028F8EF3400F9E8245DF582E9121CB75BA8
:101BF8006003EA801CEE2436121CB4F5F0EA84A8CF
:101C0800F0EE28F8EF3400F9E82438F582E9121CE0
:101C1800B7F97F0402194A74F512189EEAFEEBFF21
:101C2800EE2434121CB4C0E0EE2435F582EF340003
:101C3800F583D0E0F08E828F83A3A3A3A3A3E0FA59
:101C4800A3E0FB8E828F83A3A3A3A3A3A3A3E0FC9B
:101C5800A3E0FDECC39AF523ED9BF524EE247FF574
:101C680021EF3400F522852182F583E06401702B91
:101C7800EE2480F582EF3400F583121A5C121CBD45
:101C880074021217D8E960137CDC7D04EEFAEFFBCE
:101C9800120BBA852182852283E4F0AC23AD24EEB1
:101CA800FAEFFB121B88122751021C1AF582EF3437
:101CB80000F583E022C082C083854182854283E0AB
:101CC800F8A3E0F9C3EA9CEB9D5010C3EC98ED999A
:101CD800401BC3EA98EB995014800EC3EA98EB991D
:101CE8004007C3EC98ED994004790180027900D04F
:101CF80083D08222EAC39CFAEB9DFB2274ED121872
:101D08009E9003A2E064086005E06407702C90616F
:101D1800C8E060269003D0E0F874FF68601CE8759E
:101D2800F003A4C8AAF02AF974D228FE740339FF74
:101D38008E828F83A3A3A3E070057900021EA4EE10
:101D48002468F529EF3400F52A906060E08529823F
:101D5800852A83F0752345752405752100752200B1
:101D6800E5D914F527E5D95403F528601CEE24823B
:101D7800F525EF3400F526740365286058E52760DB
:101D880013EE2467121CB4700B793DEEFAEFFB12C8
:101D98000BDE80A6900540E06401602685258285DB
:101DA8002683E06004780480027800852721E521F5
:101DB800C398FA95E0FB120A5E8A218B22EA452233
:101DC8007006120E3C021D42852582852683E0702E
:101DD800048A238B2478008016E5D9C0E0882BE597
:101DE80023252BF582E5243400F583D0E0F008E8BC
:101DF800C3952740E4852582852683E0602874FC06
:101E08002527F5277823121A45AC27A928EEFAEFDB
:101E1800FB120C8C74021217D8E9700AAA21AB22A3
:101E280012135E021D917403652860588527257575
:101E380026007825121A45AC23AD24AA21AB22121C
:101E48000C5074021217D8852982852A83E0F87409
:101E58008068700575257F80028825E525F523783B
:101E680023121A49E528F5237823121A49A927AC21
:101E780021AD229003D0E0FA7B001208F67402121A
:101E880017D880139003A2E06408600BAC23AD243C
:101E9800EEFAEFFB120D22120E4879017F0C02199F
:101EA8004A74F312189E74FC1217C2EAFEEBFF89FB
:101EB80021A2AFE433F522C2AFEE2463F523EF3459
:101EC80000F5248010AA23AB24120C0812135E908C
:101ED80004E3E004F0852382852483E0F8A3E0F995
:101EE800E849602FE82402FAE93400FBEA2402F505
:101EF80025EB3400F5267825121A458A828B83E073
:101F0800FCA3E0F9EEFAEFFB120BFC74021217D8EF
:101F1800E960B29004E3E060579004E4E0F89004CC
:101F2800E3E0C398500C7402652170449004E5E026
:101F3800603E8E828F83A3A3A3A3E085418285425E
:101F480083121F88740212180EE8121F889004E288
:101F5800E028F0740212180EAC82AD8385418285A8
:101F68004283AA82AB8379011209029004E3E4F068
:101F7800E522A2E092AF74041217D87F0602194A2C
:101F8800F0A3E4F09004E3E0F8220000854487859C
:101F980045C622C0E074EF12198AA2AFE433FEC22C
:101FA800AF759B00906182E0A2E05012E591A2E03B
:101FB800500C7591FE740165447003121D04E0A273
:101FC800E55051E591A2E5504B7591DF9003A2E0F1
:101FD80064076005E064087023740165447035790E
:101FE800019003D0E0FA75F003A4CAA8F028FB74A6
:101FF800D22AFA74033BFB121EA98018E0640D7004
:10200800139003C4E004F064287002E4F07A00E05E
:10201800F9120E4E906182E0A2E640030220C2E56A
:1020280091A2E640030220C27591BF9003A2E0642A
:10203800057008120D64120D708003120D6A754444
:1020480000120DDCE99003A3F07900120DD0120BF9
:10205800247A017B009003A1E0F91210A69078037E
:10206800E064427055900544E014F0704DC2AF1220
:10207800207A00784DD0E0F618D0E0F6E59F5407B6
:1020880070057522FF800375227FC4C0E0784CE696
:10209800F52108E65522F522740B78211217A0D0F5
:1020A800E02521F8906270E0A2E740F8E8C3339099
:1020B8006272F0906270E0D2E0F0906181E0A2E399
:1020C8005009E5E9A2E3500375E9F7A3E0A2E75058
:1020D80009E591A2E7500375917FEEA2E092AF7FE8
:1020E800040219E9C0E0C0D0C082C083906183E0D7
:1020F800A2E05009E5BFA2E0500375BFFEE0A2E1EF
:102108005009E5BFA2E1500375BFFDE0A2E2500906
:10211800E5BFA2E2500375BFFBE0A2E35009E5BFAB
:10212800A2E3500375BFF7E0A2E45009E5BFA2E4BB
:10213800500375BFEFE0A2E55009E5BFA2E55003E3
:1021480075BFDFE0A2E65009E5BFA2E6500375BF00
:10215800BFD083D082D0D0D0E032C0E074F2121960
:102168008AE5A7A2E4500FE5A1A2E4500953A7EF1E
:1021780075A1EF1221B6E5A7A2E5500CE5A1A2E5ED
:10218800500653A7DF75A1DFE5A7A2E15009E5A135
:10219800A2E1500375A1FDE5A7A2E2500CE5A1A2BA
:1021A800E2500653A7FB75A1FB7F010219E974F8F9
:1021B80012189E7544019003A2E0640670077A0025
:1021C8007B00120D4CA2AFE433FED2AF9003A8E01F
:1021D800640170187A207B009003A1E0F912113095
:1021E8007A207B009003A1E0F91210AC906182E0A4
:1021F800D2E6F0900541E0602185C645801690033F
:10220800A7E064017008E5C654F84405F5C653BE56
:10221800FC121F947401654460E4EEA2E092AF7F63
:102228000102194A8E468F4785824B85834A85412C
:1022380082854283E0CEA3E0CF854B82854A83EB3B
:10224800C9EAC8EDCBECCA75F010C3E833C8E93366
:10225800C9EA33CAEB33CBC3EA9EF549EB9FF5488D
:10226800B35004AB48AA49EC33CCED33CDD5F0DA02
:10227800AE46AF472274E912189E74FA1217C2EAE2
:10228800FEEBFF8C218D229003A2E024F7C3940576
:1022980050067529010223A8120CC28A238B24EA4E
:1022A800452470030223A5120D828A258B26120D60
:1022B80082EA65257003EB652660ECEEFCEFFD8590
:1022C8004182854283AA82AB83120D888523828549
:1022D8002483A3A3782512167A909247782512169C
:1022E80054854182854283782D12167A90924778D8
:1022F8002D1216547825792D12148D501F782579B2
:102308002D12162C90922F78251214AD4047852552
:102318002985262A85272B85282C804590922F856C
:102328002D29852E2A852F2B85302C782979251261
:10233800162C78291214AD501C752900752A0075C1
:102348002B00752C017829792D12162C78297925DE
:102358001215F3800C752901752A00752B00752C50
:1023680000740978291215D490928B782512167A60
:102378007829792512154C9003A2E06408600AE0D8
:1023880064066005E06405702090922B7829121489
:10239800AD50169092237829121606800C752900E4
:1023A800752A00752B00752C00852182852283787B
:1023B8002912168974061217D87F1002194A74F761
:1023C80012189E120D9A90053FE0640170109062F9
:1023D80045E4F0A3F053F4F343FE0C5390F3120DCD
:1023E8003AE5C654804449F5C6E59E547F64497071
:1023F800F8906185740FF090053DE0F47002A3E059
:10240800602C75210175220090053DE07821121796
:10241800AFE521F4FAA3E0600814600A14600C80A8
:102428000DEA52808008EA52908003EA52A07900AF
:102438007F0202194A74F712189EE9FEEAFF740136
:102448006E700C7A807B009003A1E0F91210A690C0
:1024580028A0E493F46008E493F9120B068009536A
:10246800C680E59E547F70FA120D4090053FE064E7
:10247800017003120B3C90053DE0F47002A3E0608C
:102488002A75210175220090053DE078211217AFC9
:10249800AA21A3E0600814600A14600C800DEA42C7
:1024A800808008EA42908003EA42A0120CC28A2186
:1024B8008B22A821A922E8496017E5E170FCE824ED
:1024C80014F582E93400F583E0F874FF6860028847
:1024D800E174016F700A7A019003A1E0F91210FA11
:1024E80002243874F112189E8A218B228C238D24A1
:1024F8009092477821121654740F12180E782512EC
:10250800167A909247782512165478217925121454
:102518008D90922F50107821792512162C7821123F
:1025280014AD4014800E7825792112162C782512C6
:1025380014AD50047901800279007F0802194A74A9
:10254800ED12189E8A218B228C238D249092477835
:1025580021121654741312180E782512167A9092B6
:102568004778251216547825792112148D40117850
:1025780021792512162CAA21AB22AC23AD24802266
:10258800752900752A00752B00752C017829792585
:1025980012162C782979211215F3AA29AB2AAC2B0B
:1025A800AD2C7F0C02194A909247782112167A8A2C
:1025B800828B8378211216677F0402194A74F512F8
:1025C800189E8C828D83782112167A8A828B837862
:1025D80021121640122619C3E098F0A3E09912269A
:1025E8000B401E909263782112167A8A828B837828
:1025F800211216198E828F83E02420F0A3E0344E36
:10260800F080A4F08E828F83C3E09420A3E0944EE0
:1026180022EA2404F8EB3400F9E8FEE9FF8C828D05
:1026280083A3A3A3A3E0F8A3E0F98E828F83227487
:10263800F512189EE9FE9004F7E0FAA3E0FBEEC35A
:1026480033F8E433F9741728F582749139F583E087
:102658002AF521A3E03BF5227821121A4590925FD2
:1026680012169812222C74021217D88A218B228CE7
:10267800238D24741078211215BBAA21AB227F0464
:1026880002194A74F112189E8A258B268C278D28E8
:10269800740F12180EE0FAA3E0FB741112180EE082
:1026A800F521A3E0F5227821121A45EA2401F52143
:1026B800EB3400F522E4F523F5247825792112146A
:1026C800CC90921B782112167A782579211214CC95
:1026D800AA25AB26AC27AD2812222C74021217D8D3
:1026E8008B22EA452260047A0180027A00EC2AFCF7
:1026F800ED3400FD741312180EE0F8A3E0F9E8FEBB
:10270800E9FFECF8EDF97A717B0212173788218915
:1027180022E4F523F5248E828F837821121689EC22
:10272800F8EDF97A717B021217378A218B2274052A
:1027380078211217AF8E828F83A3A3A3A3E521F07C
:10274800A3E522F07F0802194AC082C083E990609D
:1027580000F0D083D08222C2AF02000022C0E07411
:10276800F212198AA2AFE433FED2AFC2C0E5D1A2F9
:10277800E4500653D1EF121352754300EEA2E092D3
:10278800AF7F010219E9C0E074F212198AA2AFE41E
:1027980033FED2AFE589A2E1500312128C7589008D
:1027A800C2C5754300EEA2E092AF7F010219E9C0ED
:1027B800E074F212198AA2AFE433FED2AFE58BA21D
:1027C800E0500312128C758B00C2E880D5C0E0C0BF
:1027D800D0E8C0E0E9C0E0E5A8D2AFC2C7754300C1
:1027E800A2E7A2E792AFD0E0F9D0E0F8D0D0D0E0ED
:1027F80032C0E074F212198AA2AFE433FED2AF7588
:102808008900C2C59008B67401F0754300FA9008B3
:10281800ABE0F91210FA900A3AE0F8A3E068700207
:10282800D285EEA2E092AF7F010219E9C0E0C0D0E4
:10283800E8C0E0E9C0E0C021C022C082C083A2AFE6
:10284800E433F9D2AF900A3AE0F8A3E0687008538D
:102858009AFBA374018025C2E9900A3AE0F5217435
:10286800012521F074BA2521F582E43409F583E0C5
:10287800F5C1900A3AE0C394804002E4F0E9A2E08E
:1028880092AFD083D082D022D021D0E0F9D0E0F826
:10289800D0D0D0E032020132FFFFFFFFFFFFFFFF81
:1028A800C082C083E9900BD4F0022B3774F712185A
:1028B80032E99002E1F07C197D037AFF7BFF120870
:1028C800489002E274FFF0A3F0A3E4F0A3F07905C6
:1028D8001207D09002E1E0F91206F27A667B08123C
:1028E8000A107F0102190474F41218328A218B220B
:1028F800EB548060309002E1E0F912108E8A238B4D
:1029080024AE23AF24EE4F60138E828F83E064B031
:1029180070031207E8EEFAEFFB12107CAA21E522F9
:102928006480FB80047A007B00022B0674F2121884
:102938003274FC1217C2EAFEEBFFEE4F60387402E5
:1029480012180EEEF0A3EF122D6BECF0A3ED122D82
:102958006BAA82AB831206ECE9F52170737412122C
:10296800180E12391FE523452460658E828F831265
:1029780029E2EE4F700575210280557A067B001218
:1029880010E28A258B26A825A926E8497005752115
:1029980013803D88828983E41229ECA3A3EEF0A377
:1029A800EF123DB8E523F0A3E524F09002E7122AE0
:1029B800749002E76017E0FCA3E08003EAFCEBFDFB
:1029C8008C828D83122A7470F38C828D8312384422
:1029D800A92174041217D8023FBAA3A3A3A3E0FE47
:1029E800A3E0FF22F0A3F0888289832274F21218F0
:1029F800328923E975F017A4FEAFF09002E6E4F0FF
:102A08009002E4122A74600A1210E89002E4E4F0DA
:102A1800A3F0EEFAEFFB1210E28A218B22EA45229C
:102A2800602FEEFCEFFD79001210649002E4E521BE
:102A3800F0A3E522F07B008008122A5EE4F0A3F000
:102A48000BEBC3952340F2E5239002E6F079008072
:102A5800027913023FBAEB75F017A4F8A9F09002B7
:102A6800E4E028FAA3E0398A82F583221235DAEA0B
:102A78004B2274F4121832752100752200740C125E
:102A8800180E123D8CFEE9FF800CE5212401F5218A
:102A9800E5223400F522C3E5219CE5229D503285CC
:102AA8002123852224740378231217AFEA2523F8FB
:102AB800EB3524F988828983A3A3A3A3A3A312399E
:102AC8001FEE65237003EF652470BFE8FAE9FB8009
:102AD800047A007B00802774F41218327900EAA285
:102AE800E0501B7521D67522917821121A457C0475
:102AF8007D007AD67B0B1207CA74021217D87F049E
:102B0800021904C082C0839002E7122B3E601C8821
:102B1800828983A3A3E06A7003A3E06B8882898318
:102B280070E8A3A3A3A31235D680047A007B00D053
:102B380083D08202013212408DE8492274EE1218C5
:102B48003274FC1217C2EAFEEBFF8541828542838C
:102B5800E4F0A3F0EE2402123828EE2405122D59D1
:102B6800EE2404F527EF12313EE024FE603924FC00
:102B7800604624FE605224FE605E24FE7003022C30
:102B88005E24FE7003022CD624FE7003022CE5247A
:102B9800FE7003022CF424FC7003022D0324FE7043
:102BA80003022D12022D4F9003007417F0A3E412B4
:102BB8002D7312046A022D4F854182854283AC82AF
:102BC800AD831207EE022D1F854182854283AC82B8
:102BD800AD831207F4022D1F852521852622740254
:102BE80012180EAC82AD838521828522831235D6D8
:102BF8001207108A258B26AC25AD26EC4D6042E4E1
:102C0800F525F5267825121A4575250075260378C9
:102C180025121A457525017526037825121A45745B
:102C28000812180E121A5C79161235D01208307470
:102C3800081217D8E9F525700B1235CC12048280DA
:102C48000F752501852182852283122D6112384452
:102C5800852521022D22740212180EAC82AD8385BF
:102C680025828526831235D61207108A298B2AAC2D
:102C780029AD2AEC4D6043852582852683A3A312BE
:102C88001A5C752900752A037829121A45752901D5
:102C9800752A037829121A45740812180E121A5C3C
:102CA80079161235D012083074081217D8E9F522AF
:102CB800700B1235CC120488800F7522018525828D
:102CC800852683122D61123844852221804C854146
:102CD80082854283AC82AD831207FA803A854182AD
:102CE800854283AC82AD83120800802B85418285A2
:102CF8004283AC82AD83120806801C8541828542DE
:102D080083AC82AD8312080C800D85418285428395
:102D1800AC82AD83120812E9F521E52160298E8283
:102D28008F83A3E06414601F852782852883E09041
:102D38000300122D6B124089900301123844E521DB
:102D4800A3122D73120464EEFAEFFB12078E0237FA
:102D580030F525EF3400F5262212408D8541828515
:102D6800428322F085418285428322F07C007D03E4
:102D78008523828524831235DA2274EE1218327480
:102D8800FC1217C28A238B248C278D28EA2405F588
:102D980021EB3400F5227C157D0079007A007B0355
:102DA800121064E5212402F525E522122D5C8541E7
:102DB8008285428385822985832A7829121A458546
:102DC8002182852283A3A3A3A3123286121A45E582
:102DD800212405F529E5223400F52A7829121A4517
:102DE8008525828526831235E012070A7406121794
:102DF800D88A298B2AAE29AF2AE5232402F523E5B0
:102E08002412382BEE4F7003022F488017740212D9
:102E1800180E1235D688828983EAF0A3EBF0900366
:102E280000E004F0900300E0C394054003022F483B
:102E3800E4F529F52A7829121A457529E9752A022F
:102E48007829121A457529EA752A027829121A452D
:102E5800740612180E121A5C7910EEFCEFFD12358A
:102E6800D012083074081217D8E9705E852182855F
:102E78002283A3A3A3A3A3A3A3E0F89002E9E06895
:102E88007048123286121A457CEA7D02E521240830
:102E9800FAE5223400FB12105E74021217D8E960BA
:102EA800298E828F83A3A3A3A31235D6900300E0B3
:102EB800F529740278291217AF74012529F582744F
:102EC80003352AF583EAF0A3EBF0740212180E8595
:102ED800822985832A7829121A45740212180E123B
:102EE8001A5C85258285268312409E120716740473
:102EF8001217D88A298B2AAE29AF2A900300E0F549
:102F080029752A00740278291217AF74002529F848
:102F18007403352AF988828983A3122A74700302FC
:102F28002E0CE82403F8E93400F9EE4F6003022E72
:102F3800158882898374FFF0A3F0900300E004F001
:102F4800900300E0600A1235CC1204767900800BF9
:102F580085218285228312383B790A02373074EA48
:102F680012183274FE1217C28C2B8D2CEA2405F528
:102F780025EB1242081229E6752100752200EA2481
:102F880002F529EB3400F52A854182854283858242
:102F9800238583247823121A45852582852683A3D1
:102FA800A3A3A3123148121A45E5252405F523E504
:102FB8002612382B7823121A4585258285268312F6
:102FC800409C12070A74061217D88A238B24EA45F4
:102FD8002470030230F9EA2404F527EB12313E127B
:102FE80029E68A828B83A3A3A3E0F9852982852A0F
:102FF800831235D61206F8E9F52260030230F9E4A7
:10300800F52DF52E782D121A45752DE9752E0278B5
:103018002D121A45752DEA752E02782D121A45744F
:103028000612180E121A5C7913AC23AD2485298276
:10303800852A831235D612083074081217D8E9F594
:103048002260030230F99002E9E0F8E5217009E016
:103058002402900301F08017900301E0FCE82402A9
:10306800FAE43400FBEA6C7001EB60030230FD8582
:103078002182AA8212327D941412327550738527E8
:1030880082852883E0C0E074022A123135D0E0F04E
:103098000521852782852883A3E0C0E08521237444
:1030A800022523123135D0E0F005219002E91231D2
:1030B80048121A457CEA7D0285212374022523FAE9
:1030C80074033400FB12104C74021217D89002E9F2
:1030D800E02521F52174FF6E700374FF6F6012EE16
:1030E80024010EEF3400FFE521C394145003022F8E
:1030F80090E52160131234C1852982852A8312350F
:10310800D612047C79008014E522700375220A85A2
:103118002B82852C83EEF0A3EFF0A92274021217FC
:10312800D87F0E02190485212574022525F582749D
:10313800033400F583223400F528852782F583229D
:10314800123DCB2274EE12183274FE1217C28C276D
:103158008D28EA2405F525EB122D5C7524009003D3
:1031680000E4F0F523EA2402F521EB3400F522808F
:1031780049900300E0FA9002E9E0F812327D9417D2
:10318800123275400D900300E0F87416C39890024F
:10319800E9F0123286121A457CEA7D0274012AFA95
:1031A80074033400FB12104C74021217D89002E911
:1031B800E0F8900300E028F00523E5252416F582C1
:1031C800E526123139E0F8E523C398400302325E60
:1031D800900300E0C39416507DE523C333F8E4332D
:1031E800F9E52528FEE52639FF854182854283AC2D
:1031F80082AD838E828F831235D61207108A298B6F
:103208002AAC29AD2AEC4D70057524018043E4F5FC
:1032180029F52A7829121A457529E9752A02782983
:10322800121A457529EA752A027829121A45740670
:1032380012180E121A5C791685218285228312359E
:10324800D612083074081217D8E9F5247003023131
:103258007912383780107C007D038521828522838E
:103268001235D612048EA9247402023732E994006A
:10327800C365D03322EA28F8E43400F9E822E0F5FF
:1032880029752A0078292274EA12183274FC121758
:10329800C28A258B268C2B8D2CEA2405F523EB126C
:1032A800382B752100752200E5232402F529E52431
:1032B8003400F52A740212180E858227858328782F
:1032C80027121A45852382852483A3A3A3A3123D2D
:1032D80077121A45E5232405F527E5243400F52857
:1032E8007827121A45852982852A831238311235A2
:1032F800D012070A74061217D88A278B28AE27AF70
:1033080028E5252402F527E5263400F5288040889D
:1033180082898374FFF0052112312E74FFF0052194
:103328009002E9E0F5257526007825121A457CEA11
:103338007D0285212574022525FA74033400FB12C9
:10334800104C74021217D89002E9E02521F521EEFD
:103358004F60718E828F83A3A3A3E0F985278285AE
:1033680028831235D61206F8E9F522EE2404122D28
:1033780059E97044E4F52DF52E782D121A45752D6E
:10338800E9752E02782D121A45752DEA752E0278E8
:103398002D121A45740812180E121A5C7911EEFCD7
:1033A800EFFD8527828528831235D61208307408E8
:1033B8001217D8E9F52260278525828526831234DD
:1033C800B7123844E521700302349D1234C18527B1
:1033D800828528831235D612049479000234B28586
:1033E8002182AA82EA9002E97009E024049003018C
:1033F800F08022E0F8900301E0F52DE82404FCE4D5
:103408003400FDEC652D7001ED70C012327D941210
:1034180012327550B6852582852683E0C0E0740295
:103428002A123135D0E0F00521852582852683A32F
:10343800E0C0E012312ED0E01234D3858225858396
:10344800267825121A45740412180E121A5C85295A
:1034580082852A8312409E12071674041217D88A8E
:10346800258B26AE25AF2685212574022525F874DF
:10347800033400F9EE4F7003023317854182854209
:1034880083E0888289831234D3A3E0C0E012312E0E
:10349800D0E0023325E522700375220A8523828550
:1034A80024831234B7123844A92274040231261234
:1034B800408D852B82852C8322900301E0F5F0E571
:1034C8002184900300F07C007D0322F005218541D2
:1034D800828542832274EC12183274FE1217C28A53
:1034E800218B228C278D28EA2405FEEB3400FF85EA
:1034F8004182854283AC82AD838E828F831235D61A
:103508001207108A238B24EE2418122D59EA452419
:1035180070030235A71237195032854182854283DC
:103528001235D61208248A298B2AEA452A606B7933
:1035380012AC23AD248521828522831235D68529B4
:1035480082852A83121830E9F5237058E4F523F5AB
:10355800247823121A458E828F83A3A3E0F523785B
:1035680023121A45EE24031238287823121A458E9E
:10357800828F831235E012083674061217D8E9F5DF
:10358800237021852582852683E0701F8521828509
:1035980022831235D612049A801175230E8009757C
:1035A80023018004E52360031238378525828526A8
:1035B80083E0600479008002A92374021217D87F7F
:1035C8000C0219047C007D0385238285248312352F
:1035D800DA22E0FAA3E0FB22E0FCA3E0FD852182E9
:1035E8008522831235DA2274EE12183274FE12170D
:1035F800C28A218B228C258D26EA2405FEEB340015
:10360800FF752700854182854283AC82AD838E8217
:103618008F831235D61207108A238B24EA4524702B
:1036280003023705123719503585418285428312C6
:1036380035D61208248A278B28EA4528605E791235
:10364800AC23AD248521828522831235D685278235
:10365800852883121830E9F5276003023708852189
:103668008285228312391FAA23FB1208188A298B04
:103678002AA829A92AE849701E7AFF7BFF12081890
:103688008A298B2AA829A92AE849606C8882898313
:10369800E523F0A3E524F0752300800775270E8045
:1036A8005F05239002E6E0FAE523C39A504AE52332
:1036B80075F017A4FAABF088828983A3A3E02AFAED
:1036C800A3E03BFB8A828B83123831EC4D70D275B4
:1036D80023177524007823121A45EEFCEFFD12100B
:1036E8004C74021217D8EEFCEFFD852182852283E7
:1036F8001235D61204A08014752709800375270196
:10370800124085852582852683123844A9270232EE
:1037180070E5212402F521E5223400F5228A828B06
:1037280083A3A3A3E0A2E52274041217D87F0A0298
:10373800190474EC1218328C298D2AEA2405F5250F
:10374800EB122D5C752800EA2402F523EB12382BC6
:10375800852382F5831235D61208188A218B22EA2E
:103768004522700302381D752700807185258285E2
:103778002683E06401704F8E828F83A3A3121A5CA4
:103788008E828F83A3A3A3A3E0F52B752C00782B3F
:10379800121A45EE2405F52BEF3400F52C782B1280
:1037A8001A451235D012083674061217D8E9F528CA
:1037B8006014852582852683E4F012408585298258
:1037C800852A831238447C177D007900EEFAEFFBD6
:1037D8001210648E828F83E4F0A3F005279002E62E
:1037E800E0F8E527C398501EE52775F017A4F8A957
:1037F800F0852182852283A3A3124212123831EC6C
:103808004D600302377485218285228374FFF0A3FB
:10381800F0E52870061235D01204A6A9280235C78B
:10382800F523EF3400F52422A3E0FCA3E0FD228E6B
:10383800828F8312408D852782852883E8F0A3E94B
:10384800F022C082C0839002E2E06A7003A3E06BBA
:1038580070067AE27B0280047A007B00022B37C074
:1038680082C08378008C828D83E06A7003A3E06B4A
:103878007010E875F003A4F8A9F0EC28FAED39FB0C
:103888008015088C828D83A3A3A3E06A7003A3E04C
:103898006B60DF7A007B00022B3774F61218321245
:1038A80007E28A828B83E582458370067A007B0073
:1038B8008007A3A3A3A31235D6023F3674F21218C9
:1038C80032E9FE740E12180E12391F741012180EF7
:1038D800123D978C828D83E064027036A312409368
:1038E800F525A3E0F9A825740268700374296970A6
:1038F800217525027526007825121A457821121A95
:10390800457823121A45EEF912085A74061217D888
:1039180080027901023FBAE0F523A3E0F52422747E
:10392800E812183274FB1217C2E985418285428376
:10393800F08A2F8B30ECFEEDFF752900741D1218EC
:103948000E124089741D12180E1238448E828F830D
:10395800A3A3A3E0A2E4502D741D12180E1235D6AD
:103968001208248A828B83E58245837003023D68AE
:10397800790AEEFCEFFDAA2FAB30121830E9F529D1
:103988006003023D6B741F12180E123D97742112CA
:10399800180E12391F742312180EE0F527A3E0F54C
:1039A800288E828F83E064026003023D16A31240D2
:1039B80089852182852283A385822B85832CEE2409
:1039C80006122D5988828983E0FAA3E0F9EA2400D7
:1039D800F52DE439F52E782D121ACF0100002801B3
:1039E800280B3A07000228D03A03283D3A00290755
:1039F8003C0129323C0229D33B0329073C0429B165
:103A08003C163DE52745286003023D118525828542
:103A18002683123D8CFAE9FB8A828B83E085238218
:103A2800852483123DC2121A458A828B83A3E0FC47
:103A3800A3E0023C9BE52745286003023D1185234E
:103A4800828524837401F0123D9F8521828522831B
:103A5800F07C007D008E828F83A3A3A3A3E02401C2
:103A6800FAA3E03400FB120710EA4B60418A828B0C
:103A780083E02402F8852382852483E028F0EA2461
:103A880004F8EB3400F988828983E0852B82852C41
:103A980083123DD4123DC2121A458A828B83123892
:103AA80030E5212403FAE5223400FB023CA08523FB
:103AB80082852483E02404F07C047D007900AA2B0D
:103AC800AB2C121064023D6BE52745286003023DCC
:103AD80011123D9FFEA3E0FF852382852483740491
:103AE800F0EE852182852283F0EF852B82852C8359
:103AF800F0740312180EAC82AD83EEFAEFFB1207D6
:103B0800108A258B26EA45267003023BB48A828BED
:103B180083A3A31229E2740112180E8582278583D4
:103B2800287827121A45740512180E121A5C7CFFA1
:103B38007DFF12071674041217D88B28EA452870DF
:103B480033852582852683123D77121A458525827D
:103B5800852683A3121A5C7C027D007AA97B9212C7
:103B6800054274041217D8E9700A740112180E7409
:103B7800FFF0A3F08E828F83E0640270397525020E
:103B88007526007825121A458E828F83123830E503
:103B9800212404FAE5223400FB12104C7402121797
:103BA800D8852382852483E02402800974011218B1
:103BB8000EEEF0A3EFF0740112180E123D88F074A7
:103BC8000112180EA3123D80023D0BE5274528601F
:103BD80003023D11852582852683123831AA2FAB31
:103BE8003012084E8523828524837402F0EA8521E9
:103BF80082852283F0852B82852C83EB023D0EE59E
:103C08002745286003023D11123D9FF8A3E0F9857E
:103C180023828524837402F0E8852182852283F03B
:103C2800E9852B82852C83023D0E85258285268396
:103C38001235D6121046EAFC8C82A882C39527E476
:103C48009528405FE865277002E52870047C0080AD
:103C580022854182854283E0FAE5272AFAE528345D
:103C680000FBC3EA98EB94005003E08005E527CCFD
:103C7800C39CFCEC852382852483F08C2375240067
:103C88007823121A45852582852683E02527FCA3FB
:103C9800E03528FDAA21AB2212104C74021217D865
:103CA800023D6B752907023D6BE5274528705A854B
:103CB800258285268312408985238285248374077B
:103CC8001229EE123D801229EEA3E0852B82852C65
:103CD80083F0E82402FAE93400FB8A828B83123DE0
:103CE80080123DAF123D88A3123DB8123D91F0E815
:103CF8002405F8E93400F988828983123D91A312DA
:103D08003DD4A3A3A3A3F0805A75290B8055741D35
:103D180012180E1235D61207E28A828B83E5824585
:103D280083603D12408988258926E84526603178D8
:103D380027121A457823121A457821121A45740653
:103D480012180EE0F9EEFCEFFDAA2FAB30852582A4
:103D580085268312183074061217D8E9F5298003CE
:103D680075290EA92974051217D87F10021904E0C5
:103D7800F527752800782722E0852182852283226D
:103D8800123DDE2212408DE822123DDEA3A322E07E
:103D9800F521A3E0F52222852582852683E0F8A374
:103DA800E0F5838882E022A3A3F08A828B83A32292
:103DB800F088828983A3A3A3A322F08A828B83122B
:103DC8003DCB22E0F523752400782322F0888289F0
:103DD80083A3123DDE22E0852182852283A3A322CC
:103DE80074EE12183274FE1217C28A238B24ECFA6E
:103DF800EDFB741412180EE0F529A3E0F52A7416E9
:103E080012180EE0FE741812180EE0F527A3E0F55C
:103E180028854182854283AC82AD831207108A25AA
:103E28008B26EA452660498541828542831235D62C
:103E38001207E28A828B83E5824583602FA3A3124F
:103E48003D97E521452260247827121A45782912E2
:103E58001A45EEF9AC25AD26AA23AB248521828527
:103E6800228312183074041217D88006790E800243
:103E7800790102327074F612183274FE1217C27485
:103E88000C12180E123D8C854182854283F0740114
:103E980012180EE9F0E4F521F5227821121A457579
:103EA80021027821121A45740412180E8582218580
:103EB80083227821121A4512083674061217D8740C
:103EC800021217D8806874F7121832EAFEEBFF89DD
:103ED800217C197D0312084EEA5402600BA921EED9
:103EE800FAEFFB120704800279010228EA74F6123D
:103EF800183274FF6A700374FF6B70168C828D839E
:103F0800123F3BE4F08C828D83A3A3A3123F3BA313
:103F1800801812081E8A218B22A821A922E849604C
:103F28000D8882898374FF1229ECA3A3E4F07F0231
:103F380002190474FFF0A3F08C828D83A3A322746A
:103F4800F612183212081E8A828B83E58245836036
:103F580006A3A3E0FA80027A007B0080D174F212F3
:103F680018328A218B22ECFEEDFF740E12180EE037
:103F7800F52312081E8A258B26A825A926E849704C
:103F880026EEFCEFFD7AFF7BFF12081E8A258B26A2
:103F9800A825A926E84970047911801688828983A2
:103FA800E521F0A3E522F088828983A3A3E523F025
:103FB80079007F0602190474EE121832EAFEEBFF4C
:103FC8008C218D228925741412180E1240897416BA
:103FD80012180E1235D6752600E849600302407D96
:103FE800740265256003024078741212180E12409C
:103FF80093FCA3E0F9EC2400F527E439F528EAF46A
:10400800F8EBF4F9EC58F8E52859F9E849705CE55B
:10401800212406F8ED3400F9882389248882F58361
:1040280012409E12084E8A298B2AE52765297004BA
:10403800E528652A60427827121A45852382852457
:104048008312409E12085474021217D8E9F526709C
:10405800277827121A45852182852283A3A3124037
:104068009C12086C74021217D8800D75268080087F
:1040780075260D800375260BA9260237358E828F8B
:104088008312408D22E0F8A3E0F92212408D888245
:104098008983E022A3A3E0FCA3E0FDEEFAEFFB2274
:1040A80074E812183274E71217C285418285428378
:1040B800EAF0A3EBF08C2F8D30892775210075224B
:1040C80000743112180EE0F52BA3E0F52C743312AE
:1040D800180EE0F52DA3E0F52E743512180EE0F554
:1040E80028E52275F003A4F8A9F08541828542836A
:1040F800124212E0F47003A3E0F470030241F5EEFB
:104108002402F525EF124208E070030241F5852FDD
:10411800238530247823121A45AC2DAD2EAA2BAB5B
:104128002C1207D674021217D88A238B24EA452446
:1041380070030241F5E4F529F52A7829121A457425
:104148000612180E85822985832A7829121A457441
:104158000912180E85822985832A7829121A45851D
:104168002B82852C83A3A3A3A3121A5C7914AC23F6
:10417800AD248E828F831235D61208307408121738
:10418800D8E97069852382852483A3A3A3A3124059
:1041980089740212180E123844852582852683E018
:1041A800A2E05018A927740212180EAC82AD838EB3
:1041B800828F831235D6120728E942218525828508
:1041C8002683E0A2E15026E528F5237823121A4930
:1041D800A927740312180EAC82AD838E828F8312C6
:1041E80035D612072274011217D8E942210522E5B3
:1041F80022C3940250030240E9A9217419023D6FB9
:104208003400F526852582F58322E028FEA3E039CF
:10421800FF8E828F832274F2121832EAFEEBFF8936
:104228002474016524600E74026524706A79011291
:104238000A2EE97062EEFAEFFB1208188A218B2227
:10424800EA45226047752300800B7C177D007900C2
:1042580012106405239002E6E0F8E523C398502184
:10426800E52375F017A4F8A9F0852182852283A398
:10427800A3E028FAA3E039FB8A828B83122B3E70D5
:10428800C985218285228374FFF0A3F07C197D0300
:10429800EEFAEFFB120848023FBA74F21218328A9B
:1042A800218B22ECFEEDFF740E12180E12391F90AE
:1042B8000BD4E0F4603D7A097B00121076EA4B607B
:1042C800328A828B8374B1F0A3E4123DB1A3123D0C
:1042D800AFA3E521F0A3E5221242FEEEF0A3EF1210
:1042E80042FEA3A3E523F0A3E524F0900BD4E0F964
:1042F800121082023FBAF08A828B83A3A3A3A3A3DE
:104308002274F012183274FA1217C28924ECFEEDE6
:10431800FF7523008A218B227821121A8900041044
:1043280031454C436A4384439C43BA43D243F543E3
:104338000D4421444B44C844D944F0440B4531450D
:104348003145614474016524600302452C8E828FD7
:1043580083E0F8C39403400302452CE8900CC002A4
:10436800450874026524600302452C8E828F8312EF
:104378004C6E900CC1E8F0A3E9024508740165246D
:10438800600302452C124559400302452CE890076A
:10439800C902450874016524600302452C8E828F8A
:1043A80083E0F8C39405400302452CE89007CA024D
:1043B800450874016524600302452C1245594003E1
:1043C80002452CE89007CB02450874106524600369
:1043D80002452C7521107522007821121A457ACCD5
:1043E8007B0712104C74021217D8024552740165EB
:1043F80024600302452C124559400302452CE890DD
:1044080007DC02450874016524600302452C8E828E
:104418008F83E0900CC4024508740465246003028D
:10442800452C8E828F83782512167A90925F782594
:104438001214AD500302452C9007DE782512168918
:10444800024552E9600302452C1206B0E9700512D4
:1044580011EA80569008718063740765246003022E
:10446800452C7521067522007821121A458E828FF7
:1044780083A3AC82AD837402121820121052740206
:104488001217D87C007D00AA41AB428E828F83E050
:10449800F9121196E9F521C3940A400302454F1217
:1044A80006B0E9700CA9211211F079501213DC80C2
:1044B8006E74722521F582E43408F5837401804016
:1044C80074016524705E1245595059E89007DD80E3
:1044D8002F74016524704D8E828F83E0F8C3940A8F
:1044E8005042E8900CC380187401652470368E829F
:1044F8008F83E0F874F928C3940A5028E8900CC513
:10450800F0804774016524701B900870E0F88E8273
:104518008F83E0900870F0E87030E06401702B122F
:1045280011DE80267523188021C3EA9427EB9400B6
:10453800501574026524700F8E828F8312501712E3
:10454800054EE9F5238003752302A9237406024862
:10455800188E828F83E0F8C3940222740E1217D843
:104568007F0402190474F012183274B11217C28C45
:10457800258D269091E8742012182874061216D5F5
:104588007420121828121196E9FE745F12180EE0B2
:10459800F523EEC3940A40030246EA75F006EEA43A
:1045A800F52174411218287A0E74202521F9121366
:1045B800D6E97009744D12180EE0FF80027F009052
:1045C8000CC0E0640270057527018003752700742C
:1045D80008652370047422800274212521F5287C43
:1045E8001B7D0079007426121820121064EFA2E0D7
:1045F800E433F52274261218287A1BA9281213D638
:10460800E97025744012180EE024F9C3940A501872
:104618007827121A497427121828A922AA25AB2626
:104628001205F074011217D87C147D007900740CFF
:10463800121820121064740C1218287A1074242589
:1046480021F91213D6E970307C1079FF740C121816
:10465800201210CAE97021741C12180EAC82AD83A6
:104668007A0474252521F91213D6740C121828A976
:1046780022AA25AB261205D8AC41AD427A0C74703B
:104688002EF91213D6E97049AA41AB421211C67E1F
:1046980000EE75F003A4F8A9F0854182854283E510
:1046A8008228F8E583124E23125011601D888289F2
:1046B80083A3A3E0F5217522007821121A45AA25C3
:1046C800AB2612083C74021217D80EEEC3940440AD
:1046D800C0EFA2E1500C9007C8E0F9AA25AB26125A
:1046E8000842740465237027900CC0E06402701FB0
:1046F8007A009007DCE060010A9007C9E06004785E
:104708000480027800E84AF9AA25AB2612069879AF
:1047180000744F02481874F012183274F01217C25D
:10472800EAFEEBFF8C218D2275230AE9600C1460E8
:104738000914603B14607D0248141211D8E9F5236E
:10474800C3940A4003024814E52145227003024835
:10475800147525067526007825121A45EEFCEFFD1E
:10476800AA21AB2212104C74021217D802481475F1
:1047780025007527067528007827121A45EEFCEFE4
:10478800FDE52575F00EA4F8A9F074EA28FA740777
:1047980039FB12105E74021217D8E9700B0525E573
:1047A80025C3940A506680CA852523E523C3940A45
:1047B800505A8049752500AC41AD427A1075F00613
:1047C800E525A42423F91213D6E9701C7C1079FF7F
:1047D800AA41AB421210CAE9700EEEFCEFFDAA41E5
:1047E800AB421205BAE9600B0525E525C3940A50CA
:1047F8001B80C4852523E523C3940A500FE5214572
:10480800226009AA21AB22A9231211D2A92374106C
:104818001217D87F0802190474F412183289217506
:10482800221574FF6A700374FF6B70277E00AC2139
:104838007A027B00EEF91211B4E960037522000ECA
:10484800EEC3940A40E8E52160527A027B12120A0C
:10485800408049120A228A238B24AE23AF24EE4FCC
:1048680060377C007D00EE2405FAE43FFB8E828FE2
:1048780083A3A3A3A3E0F9121196E9C3940A500CE9
:10488800AC217A027B001211B4752200E521600C7C
:10489800EEFAEFFB1212028003752214A9220245D8
:1048A8006874F2121832ECFEEDFF752115740E12C1
:1048B800180EE0F523A3E0F52474FF6A700374FF73
:1048C8006B7021752200AC23AD24EEFAEFFBA92210
:1048D8001211BAE960037521000522E522C3940A82
:1048E800503E80E2120A228A828B83E582458360E9
:1048F8002C7C007D00E5822405FAE43583FBA3A324
:10490800A3A3E0F9121196E9C3940A5013AC23AD9E
:1049180024EEFAEFFB1211BA7521008003752114F9
:10492800A921024DEBC082C0839007E2EAF0A3EB15
:10493800F09007C8E0FC7D007A267B0012054E90B7
:1049480007C8E0F91207B802540274F0121832745A
:10495800EC1217C2EAFEEBFFEE240CF525E43FF556
:1049680026EE2405F527E43FF528EE2409F523E48F
:104978003FF524EE2403F521E43FF5228E828F8350
:10498800A3A3E024FA7003024C0D24FD7003024B2C
:104998002B147003024A2814601024FD7003024B84
:1049A80002147003024B62024C641257036049E020
:1049B800F5838882124C6E88278928E84528603854
:1049C800852582852683E0F5257825121A49EE2467
:1049D8000BF582E43FF583E0F98523828524831271
:1049E80050170A0A0AAB22852782852883121830B5
:1049F80074011217D8024C64852382852483121A05
:104A08005C9007DE1216981205EA74021217D8E9AC
:104A18007003024C647901852382852483024BD874
:104A28008E828F83A3858223858324E06003024AD4
:104A3800E5852782852883E0A2E04003024AE590C5
:104A4800087C1257066003024AE57C0E7D00790057
:104A5800AA41AB421210648525828526831253CD64
:104A6800EA4B60107525067526007825121A45EA66
:104A78002410801B1253C7120A22EA4B7003024CFF
:104A8800647525067526007825121A45EA2405FC62
:104A9800E43BFD740212182012104C74021217D84D
:104AA800852782852883E0A2E25004D2F08002C2E2
:104AB800F0A2F0E433F8740C12180EE048F0EEFCA3
:104AC800EFFDAA41AB421211CCE970117A027B00CA
:104AD8009007C8E0F91210A67900024C6612570335
:104AE8007003024C64124C747003024C6485238278
:104AF800852483E0FC7901024C01125703700302FC
:104B08004C64124C6B8924E845247003024C648E73
:104B1800828F83A3E0FC79021253C788828524839D
:104B2800024C087C007D00EE2404FAE43FFB85215A
:104B380082852283E0F9121196E9F8C3940A4003AA
:104B4800024C64EE240AFCE43FFD7A0475F006E8A2
:104B5800A42425F91213D0024C641253C79007DD20
:104B6800E06007900CC3E0F98069900CC0E0700425
:104B78007905805F120A228A258B26A825A926E8AE
:104B88002404F525E439F5268E828F83A3A3A3A3F5
:104B9800A3A3A3E0A2E05041E8497003024C648556
:104BA8002582852683E0FE6030852382852483E084
:104BB80054107025740E121828E82405FAE439FBFD
:104BC800EEF9121196E97011790385218285228305
:104BD8001253CD1205E4024C64AC27AD288525821A
:104BE800852683E0F91253C712120E125703606C20
:104BF800124C7460677C0079001253C78E828F83D1
:104C080012183080571206B0E97051900871E064AC
:104C18000170151211EA900871E4F07C0AFDF97A26
:104C2800727B08121064802C75230085232174720E
:104C38002521FEE43408FF8E828F83E06401700B27
:104C4800A9231211F08E828F83E4F00523E523C394
:104C5800940A40D779501213DC1211DE79017414CA
:104C6800024818124C83E0F8A3E0F922124C83E0C2
:104C7800F8A3E0F9E8FEE9FFEE4F22E0F583888229
:104C8800A3A32274F412183274F21217C2EAFE8C2B
:104C98002475F006E9A42420F521AC41AD427A0E32
:104CA800F91213D6E9704B7C0679FFAA41AB421280
:104CB80010CAE9703D740C12180E124C6EE8F522F9
:104CC800E5246005EE42228004EEF4522285228219
:104CD800AA82E86A7001E96015740C12180EEAF0ED
:104CE800A3E4F0AC41AD427A0EA9211213D07901A8
:104CF8008002790002456374F212183274E61217C2
:104D0800C289238A218B22ECFEEDFF740C1218282D
:104D18007A0E75F006E9A42420F91213D6E9600387
:104D2800024DE47C0679FF740C1218201210CAE9AF
:104D38006003024DE474702523F524AC41AD427A3A
:104D48000CF91213D6E96003024DE0AA41AB4212F6
:104D580011C6E5214522701D7C0C7900AA41AB42A1
:104D68001210CAE970727C0C7D007900AA41AB422E
:104D78001210648051AC41AD42AA21AB221211C07D
:104D88008A258B26A825A926E8497022EE4F604C73
:104D9800AC41AD427A007B001211C0EAF8EBF9EAA7
:104DA8004B603988828983E521F0A3E522F0124E11
:104DB8005FFAEE6A7001EF601FEEF04F70088882AC
:104DC8008983E4F0A3F0AA41AB421211C6AC41AD0D
:104DD800427A0CA9241213D0790180027900741A3E
:104DE8001217D87F0602190474F71218327F00EFE1
:104DF80075F003A4F8A9F0EC28F8ED124E23E06A48
:104E08007003A3E06B7006E8FAE9FB800B0FEFC3B1
:104E1800940440DB7A007B0002515439F988828976
:104E2800832274F71218327E00EE75F003A4F8A9F5
:104E3800F0EA28F8EB124E23E0F4FCA3E0F4FD8836
:104E4800828983ECF0A3EDF0124E5FF4F00EEEC30E
:104E5800940440D5025154E82402F582E439F583DC
:104E6800E02274F412183274F41217C2EAFEEBFF4F
:104E78008C218D2290087C125706704FEE4F7003DC
:104E8800024FF0EC45227003024FF01211D8E9905E
:104E98000CC6F0C3940A40337524007C0679FFE5FC
:104EA8002475F00EA4FAABF074E42AFA74073BFBFD
:104EB8001210CAE96003024F500524E524C3940A7E
:104EC80040D975230AE523900CC6F0900CC6E0C3C0
:104ED800940A4003024FF075F006E0A4FB90087CAA
:104EE8001257067069EEFCEFFD7A0E74202BF9124A
:104EF80013D07C0C7D0079FFAA41AB42121064AC40
:104F080041AD427A0C900CC6E02470F91213D075AA
:104F1800230E7524007823121A45EEFCEFFD900C41
:104F2800C6E075F00EA4F8A9F074E428FA740739FD
:104F3800FB12104C74021217D890087CE521F0A3DC
:104F4800E522F07900024FF2852423024ECDE0C815
:104F5800240612500B60197A1B74212BF91213D0F6
:104F6800124FF72406F582E438F583E4F0A380D2E3
:104F7800124FF7240A12500B60107A1B74222BF977
:104F88001213D0124FF7240A80DB124FF7240C12A9
:104F9800500B60107A1074232BF91213D0124FF7AC
:104FA800240C80C112500012500B60307A10742407
:104FB8002BF91213D0125000F582E438F583E0245F
:104FC80010FCA3E03400FD7A0475F006900CC6E0EE
:104FD800A42425F91213D01250008089900870E09B
:104FE80060031212141212087901740C02456590BC
:104FF800087CE0F8A3E0C82290087CE0F8A3E0C8A9
:10500800240822F582E438F583125017EC4D22E08B
:10501800FCA3E0FD2274F412183274F21217C2EAEB
:10502800FEEBFFE9C3940A5004EE4F700479028046
:1050380034AC41AD427A0E75F006E9A42420F91289
:1050480013D6E9F521701C75230675240078231200
:105058001A457402121828EEFAEFFB12104C74026B
:105068001217D8A92102456374F4121832EAFEEB2C
:10507800FF7521007523067524007823121A45EE62
:10508800FCEFFDE52175F00EA4F8A9F074E428FA08
:10509800740739FB12105E74021217D8E96004A96C
:1050A80021800B0521E521C3940A40C8790A0245ED
:1050B8006874F7121832752100E52175F00EA4F80E
:1050C800A9F074E428FE740739FFEEFCEFFD7A0EB0
:1050D80075F006E521A42420F91213D6E960297C8D
:1050E800067D0079FFEEFAEFFB1210647C067D0066
:1050F80079FFEE2CFAE43FFB121064EE240CF582E3
:10510800E43FF583E4F0A3F00521E521C3940A40C8
:10511800A8900870E06003121214121208802D740F
:10512800F71218327E007F007C0679FFEF75F00ECB
:10513800A4FAABF074E42AFA74073BFB1210CAE92C
:1051480070010E0FEFC3940A40DEEEF97F010219D9
:105158000474F71218327E00EEF91211F00EEEC345
:10516800940A5003E960F180E374F312183274CBA7
:105178001217C2E9FE900CC6E06E701B7A017B0024
:105188009007C8E0F91210AC7A027B009007C8E0DB
:10519800F91210AC12122075F006EEA4FF74202F3D
:1051A800F52174271218287A0EA9211213D6E9605E
:1051B800030252777C0679FF74271218201210CA4E
:1051C800E960030252777C0E7D0079FF742712187C
:1051D800201210647C1B7D0079FF740C12182012B9
:1051E80010647C0C7D0079FFAA41AB4212106474F4
:1051F800271218287A0EA9211213D0E9F521740C68
:105208001218287A1B74212FF91213D0E9F5227489
:105218000C1218287A1B74222FF91213D0E9F523DF
:10522800740C1218287A1074232FF91213D0E9F588
:1052380024740C1218287A1074242FF91213D0E948
:10524800F525740C1218287A0474252FF91213D036
:10525800E9FFAC41AD427A0C74702EF91213D0E913
:10526800F8E5224523452445254F4842218003750A
:105278002100A92174351217D87F0502190474F783
:10528800121832E99007C8F01211DE02515474F472
:10529800121832EAFEEBFF5480700302532E900777
:1052A800C8E0F912108E8A218B22EA4522607078B4
:1052B800018A828B83E02450603D14600624E160FB
:1052C8004F8052A3A3A3A3E0704E8A828B83A3A32B
:1052D800A3A3A3A3A3121A5C8A828B83A3A3A3A369
:1052E800A31250178A828B83A3A31253CD1211A243
:1052F80074021217D88021A3A3A3A3E0641E701818
:1053080079008A828B83A3A31253CD12119C800843
:105318001211AEE9F8E86007AA21AB2212107CEE60
:10532800FAEF64808065EE540260237C007D007A89
:10533800007B001211CCE960117A017B009007C84C
:10534800E0F91210A6EE6402803F7A028046EEA2CF
:10535800E0503F1253A11253CD12121AE9602F12D6
:105368005703601F124C6B88218922E8452260137D
:105378007C0079011253A11253CD852182852283A5
:10538800121830121220EE6401FAEFFB80087A013D
:1053980080027A007B0002456890087CE0F8A3123E
:1053A8004C83A3227F02021904C082C0839007C8DD
:1053B800E0F98A828B83A31253CD120842803B8581
:1053C8002182852283E0FAA3E0FB22C082C0837495
:1053D800FF1217C21211E4E9C39402854182854283
:1053E80083400474028002740AF0AC41AD427A0131
:1053F80079051206C874011217D8D083D082020129
:105408003274F212183274E81217C2EAFEEBFF89FE
:10541800238C218D227C187D007900AA41AB421291
:105428001064854182854283EEF0A3EFF09007CAAD
:10543800E0C0E0740212180ED0E0F09007CBE0C094
:10544800E0740312180ED0E0F0900CC5E0C0E074D0
:105458001712180ED0E0F0741512180EE054FEF86A
:10546800A3E0F9900CC4E0A2E0E433FAE84AF87447
:105478001512180E1255A3A2E15004D2F08002C2F0
:10548800F0E854FDFAA2F0E43325E0F8EA48F874AD
:105498001512180E1255A3A2E35004D2F08002C2CE
:1054A800F0E854F7FAA2F0E433F525752600740302
:1054B80078251217AF12559C12180E1255A3A2E4A4
:1054C8005004D2F08002C2F0E854EFFAA2F0E433BC
:1054D800F525740478251217AF12559C12180E1270
:1054E80055A3A2E55004D2F08002C2F0E854DFFAD6
:1054F800A2F0E433F525740578251217AF12559CF0
:1055080012180E1255A3A2E25004D2F08002C2F083
:10551800E854FBFAA2F0E433F52574027825121753
:10552800AF12559C12180EE8F0A3E9F09007CBE0F3
:10553800601D7525107825121A457CCC7D077406E8
:1055480012180EAA82AB8312104C74021217D8904C
:1055580007DCE06011E5236009741512180EE044B9
:1055680002F0780180027800741412180EE048F0F6
:105578009007C9E060047804800278007414121857
:105588000EE048F0AC21AD22AA41AB421205DE7410
:1055980018024DE8EA4525F8741522E8F0A3E9F069
:1055A800900CC4E02274F71218321208BA75210060
:1055B800E52175F00EA4F8A9F074E428FE74073903
:1055C800FF7C0679FFEEFAEFFB1210CAE97009EECC
:1055D800FAEFFB79001208C00521E521C3940A40BF
:1055E800CF02515474F612183274FD1217C2EAFE33
:1055F800EBFF90087E1257067039752180752208D6
:105608007821121A457521027522007821121A454F
:105618007521B17522927821121A457CFF7DFF7A97
:10562800017B0012070A74061217D890087EEAF068
:10563800A3EBF090087E12570670030256EDE4F5CE
:1056480021F5227821121A45740412181888218924
:10565800227821121A457404121818882189227890
:1056680021121A45900880121A5C790290087E125D
:1056780056FB12083074081217D8E9703685418233
:10568800854283E0FA740112180EE0F8E4C8F9EADA
:1056980028F521E439F522EA452260177821121A03
:1056A8004590087E1253A4A31256FB1211A274024D
:1056B8001217D8E4F521F5227821121A45900880AE
:1056C800121A5C7CFF7DFF90087E1253CD120716DC
:1056D80074041217D890087EEAF0A3EBF090087EC5
:1056E800125706700479018002790074031217D8E2
:1056F8000253AC125017EEFAEFFB229007E2E0F8E3
:10570800A3E0F9E84922C082C08390087C125706BA
:10571800601090087C1253CD12107C90087CE4F045
:10572800A3F0900CC6740AF0025402C082C08390A1
:1057380061907404F0A37448F0A3E4F0906180745D
:1057480040F09061BC7407F09061877469F09061D3
:10575800B67416F07900120B2A7902120B309028D1
:10576800A0E493F46006E493F9120B067905120E8F
:1057780030025B2EC082C083E9540FF9906185E046
:10578800696012E5C654804449F5C6E59E547F64B5
:105798004970F8E9F053C680E59E547F70FA025BC1
:1057A8002E74F7121832E5A8FE53A87E120B12C207
:1057B800BA539AFEC289759B00C2C2120B1875A90A
:1057C8001175B905120B1ED2BA439A0174805E4254
:1057D800A80260C5C082C083906181E4F0A3025B27
:1057E8002B75E90075910075BF00020132C082C0B7
:1057F80083906181E4F0A374C0F0A3E4025B2DC040
:1058080082C08374F81217C29003A4126A5E7003F0
:105818000258E69003A4E054406023790885418249
:10582800854283AA82AB83120C26854182854283F6
:10583800AA82AB831208DE9003A4E054BFF0E054C0
:10584800806010790C7A657B05120C269003A4E021
:10585800547FF0E0A2E0500F7900120B2A1208E4FE
:105868009003A4E054FEF0E05402600F7901120B9B
:105878002A1208E49003A4E054FDF0E05404600FF9
:105888007900120B301208EA9003A4E054FBF0E010
:105898005408600F7901120B301208EA9003A4E053
:1058A80054F7F0E05410600F7902120B301208EA36
:1058B8009003A4E054EFF0E05420600F7903120B3A
:1058C800301208EA9003A4E054DFF0A3E05401602A
:1058D8000D120B3C1208F09003A5E054FEF074087A
:1058E8001217D8025B2EC082C083E9600514602AB3
:1058F800804F90619A7433F0A37455F09061A0744E
:105908003AF090053FE064017009C2919003A674D3
:1059180067802D9003A67461802690619A743FF089
:10592800A3745AF09061A0747FF090053FE0640181
:105938007009D2919003A6747180059003A6746AC9
:10594800F0025B2EC082C083E9600B14600D146006
:105958001714600C80209028A480159028A580102A
:1059680090053FE0640170059028A680039028A761
:10597800E493906186F0025B2E74EE12183274F490
:105988001217C2854182854283AC82AD83758392AA
:1059980075823F74041216D59028A493F46003020C
:1059A8005AAB907808E0C394025003025A8B7404EF
:1059B80012180EAC82AD837583917582BE7408127D
:1059C80016D5FC7EFF7FFF8E257D008C8285822781
:1059D800800F74086D606D74096D6068740A6D607D
:1059E800638D21752200740278211217AF125AB5FF
:1059F80012167AA922E523C9F88829741878211281
:105A080015BBE5294521FAE9FBE527C333F8E4335B
:105A1800F9740412180EE58228F582E58339125FBD
:105A2800B5C3E89AE99B4008E8C39AF8E99B800661
:105A3800EAC398F8EB99F9C3E89EE99F5006E8FE97
:105A4800E9FF8D250DEDC39413408774FF6E700335
:105A580074FF6F6024852521740278211217AF1214
:105A68005AB512167A854182854283E5822527F543
:105A780082E583126454E521F00CECC394045003CE
:105A88000259CB7521017522007821121A4574023A
:105A980012180EAC82AD837A297B0A121262740244
:105AA8001217D8740C1217D87F0A021904744825E3
:105AB80021F58274783522F583782122C082C0834B
:105AC800906186E0F89028A7E4936870099028A66A
:105AD800E493906186F09061AE7468F0A3746AF004
:105AE80090624574FBF0A304F053F4FD43FE02906A
:105AF800053F7401F09061A0E0643A700479008079
:105B0800027901120B2A025B2EC082C0839004F135
:105B1800E06401700A9004F6E06004790C80027970
