:020000040000FA
:060000000201070221E8E5
:03002B0002263674
:030033000226574B
:0300530002225E28
:03007B000225F368
:10008300022097E5C754F84401F5C779012200001F
:100093000080FB120086B900030200F1E479437883
:1000A3000FB800028004F709D8FCE479527802B84B
:1000B30000028004F709D8FCE490028178DB790719
:1000C3008002F0A3D8FCD9FA7A5B7B0990013778D8
:1000D3005079048015E493A3AD82AE838A828B8327
:1000E300F0A3AA82AB838D828E83D8E9D9E7758288
:1000F300A77583FF740112011975829175830074CA
:100103000012011975D00075815F75418175420236
:10011300759F00020096C09FF59FE473D09F22D085
:1001230083D082C09FE493C0E0740193C0E0740263
:1001330093F59F22FF0000B4000028002800283018
:1001430075A000A000A000A00000080008E001F0D6
:10015300001000100010001000100010005000509C
:1001630000500010001000D0070000000000000F36
:100173000001000500307507001000010081FF0039
:10018300000000FF9006AE069606FF020202080278
:100193005000A0000000E80302F790010000E29085
:1001A30002F390010000B209022191010000B302A1
:1001B30002F390010000B309020991010000C90292
:1001C30002F390010000B40902FB90010000CB028E
:1001D30002F390010000B50902F990080000CC0277
:1001E30002F390010000B60902EB90010000B70989
:1001F300FF0100FF2002F790010000E89002F39056
:100203000100001B0A02ED90000000000002EF90C5
:100213000300001903C00CC00CC00CC00CC00CC000
:100223000CC00CC00CC00CC00CC00CC00CC00C9695
:100233000FAE0F900FFFFF02020202020202020240
:10024300010D000000100102F790010000E590028B
:10025300F3900100005E0A0211910100005D0702A4
:10026300F3900100005F0A020D91010000C08F02AC
:10027300F390010000600A020B91010000A48F02B9
:10028300F390010000610A020791010000FA8E0257
:10029300F390010000620A0205910100000C8F0235
:1002A300F390010000630A0203910100001E8F0214
:1002B300F390010000640A020191010000428F02E1
:1002C300F390010000650A02FF90010000B28F0263
:1002D300F390010000660A02FD90010000670A0125
:1002E300E803053F100AFF00013075030201060011
:1002F30000000000000000000000000000000000FB
:100303000000000000000000000000FFFF06008066
:100313000CE803140953696D706C65424C455065D4
:10032300726970686572616C051250002003020ADD
:10033300000201060302F0FF53696D706C652042F1
:100343004C45205065726970686572616CDA130000
:1003530000E01368656C6C6F2C41542C2049206DB0
:100363006973732075200D0A0000000A43686172E7
:100373006163746572697374696320310002436851
:100383006172616374657269737469632032000812
:10039300436861726163746572697374696320335E
:1003A3000010436861726163746572697374696391
:1003B3002034000243686172616374657269737407
:1003C300696320350002F790010000DF9002F3908B
:1003D300010000920B021791030000200902F19023
:1003E300010000930B02F390010000A40B0219918A
:1003F300010000210902F190010000A50B02F39016
:10040300010000B60B021B91020000220902F190C9
:10041300010000B70B02F390010000C80B021D910D
:10042300000000230902EF90030000240902F19069
:10043300010000C90B02F390010000DA0B021F91C7
:100443000400002A0902F190010000DB0B000330D5
:1004530000310032003300340035003600370038F5
:1004630000390030003100320033003400350036EB
:1004730000370038003900E21437153715371537C0
:10048300153F15120122F3A903120122F6A9031243
:1004930001221E9B03120122359B03120122669B3C
:1004A30003120122A19B03120122CB9B03120122FF
:1004B300F59B031201220C9C03120122239C0312BD
:1004C30001223A9C03120122639C03120122769CAF
:1004D300031201228C9C031201229F9C031201220E
:1004E300C69C0312012201980212012205990212ED
:1004F30001223D99021201226099021201226B9995
:10050300021201228E99021201229D9A02120122E5
:10051300729B02120122ED9B02120122759C0212B0
:100523000122B09C02120122E79C02120122759D56
:10053300021201224E9E02120122AE9E02120122DB
:10054300B99E02120122389F021201223B9F02121E
:1005530001223E9F02120122CD9F02120122D09F4F
:100563000212012200A0021201222AA00212012279
:1005730018A102120122CAA10212012241E50212AC
:10058300012269E50212012297E502120122CEE55A
:10059300021201222CE60212012277E60212012244
:1005A300C2E60212012202E70212012248E7021206
:1005B300012276E70212012233E8021201223DE80A
:1005C300021201224AE8021201227DE802120122EC
:1005D30049E90212012255E9021201226DE90212D0
:1005E300012277E90212012258A40312012266A410
:1005F300031201227EA40312012296A403120122F4
:100603001FB101120122CBB10112012246B2011224
:10061300012267B301120122A3B3011201224CB4D8
:100623000112012233B50112012297B601120122F0
:10063300EEB6011201226FB7011201225FB8011257
:100643000122ACB80112012232B90112012264B9AC
:100653000112012278BB01120122BABB011201224D
:10066300D8BB011201225BBC011201222FBD011272
:100673000122F7BD0112012256CD0212012229CE19
:1006830002120122D2CE0212012225CF021201222E
:10069300D5CF0212012261D0021201224DD10212E2
:1006A30001227CD1021201228FD202120122D7D25F
:1006B30002120122ACD302120122E8D30212012258
:1006C30004D40212012213A70312012228F70212F3
:1006D30001223EF70212012264F70212012280F87E
:1006E300021201228AF802120122BFF90212012228
:1006F300B7FA02120122BD7A00120122ED7B001229
:100703000122207C001201226A7C00120122317E28
:100713000012012230A1011201229AA10112012229
:10072300F9A20112012209A30112012236A3011227
:1007330001228DA30112012236A4011201223DA53B
:100743000112012207A60112012267A70112012249
:10075300AAA7011201224FA8011201229CA801128B
:100763000122C2A801120122D0AA01120122D5AA94
:1007730001120122DAAC0112012227AD011201227A
:100783009AAD01120122CDAD011201226FAE011209
:10079300012218AF0112012250AF0112012253AFFF
:1007A300011201229BAF01120122DBAF01120122D0
:1007B30032B001120122B28C03120122CA8C03123D
:1007C3000122128D03120122288D031201226F8D43
:1007D30003120122838E03120122108F03120122BE
:1007E3005B8F031201220C2700120122182700122B
:1007F30001225327001201229827001201225828B0
:1008030000120122DE2800120122432900120122D4
:100813006F2900120122A82900120122E62B0012DF
:100823000122CA2D00120122B02F00120122F3303F
:10083300001201224133001201225334001201221B
:100843009E3500120122AE3600120122CB36001271
:1008530001220637001201222837001201228B37AA
:10086300001201224C3C00120122E13C0012012241
:10087300323D00120122593D00120122AB3D00120C
:100883000122C93D00120122233E001201220C3F26
:1008930000120122824000120122064100120122AD
:1008A300FEE90212012208EA021201224BEA0212B5
:1008B300012266EA02120122F6EA021201221EEB6B
:1008C300021201225BEB0212012292EB02120122BD
:1008D300BBEB0212012230EC0212012245EC0212A0
:1008E30001225AEC021201228BEC021201229FEC2C
:1008F30002120122C4EC02120122FEEC02120122B6
:100903002AED0212012262ED02120122E1ED02122E
:1009130001222AEE0212012254EE021201227FEE7C
:100923000212012244A103120122008002120122B9
:100933002E80021201227C81021201225C820212A9
:1009430001227B8202120122F882021201223B83DE
:100953000212012291840212012252850212012203
:10096300D987021201227A880212012270890212A7
:1009730001226D8A02120122C78B02120122528CBC
:1009830002120122E99F0312012252A00312012243
:10099300A6A003120122CDA003120122FEA003127E
:1009A3000122A7EE0212012214EF021201225BEFD1
:1009B3000212012273F0021201226FF102120122CC
:1009C30052F2021201227EB502120122C0B50212B6
:1009D300012292B6021201226BB70212012265B8FC
:1009E3000212012247B902120122B0B902120122F6
:1009F30066BA02120122DABA0212012246BB0212BD
:100A030001226FBB02120122E9BB0212012282BC46
:100A130002120122E7BC02120122FCBC02120122D3
:100A230042BD021201225BBD02120122C0BD0212AD
:100A33000122C3BD02120122B98903120122E189F5
:100A4300031201221F8A03120122DD8A03120122EB
:100A5300448B03120122608B03120122888B031241
:100A63000122B88B03120122C78B03120122448C8B
:100A7300031201226A8C031201222991011201221D
:100A8300C79201120122E294011201221E95011262
:100A930001224B9501120122309601120122779611
:100AA30001120122BB9601120122CD9601120122ED
:100AB3000D97011201223A97011201228597011223
:100AC3000122C59701120122F397011201224598D1
:100AD30001120122D59801120122739B01120122F6
:100AE300899D01120122C79D01120122589F011203
:100AF30001229D9F0112012214A0011201225EA076
:100B03000112012289A00112012205AC0212012265
:100B130084AC0212012246B20212012255B3021220
:100B23000122BDB40212012254B5021201229755CB
:100B330000120122E055001201220D56001201227B
:100B43004056001201224D5600120122595600123E
:100B530001226B5600120122525700120122B05794
:100B630000120122E5570012012228590012012226
:100B7300755900120122995900120122065A0012D6
:100B83000122C45A001201227D5B00120122EA5B9A
:100B9300001201229C5C00120122AC5C00120122B3
:100BA300335D00120122F25D001201221F5E00126A
:100BB3000122985E00120122F55E001201223F5FBE
:100BC30000120122D55F00120122A060001201224F
:100BD300556100120122CA61001201222B62001228
:100BE3000122956200120122CE620012012270637B
:100BF30000120122806400120122C064001201224B
:100C0300DD6400120122FC6400120122436500121C
:100C130001226865001201229565001201220F6608
:100C23000012012250660012012274670012012291
:100C33002468001201227B6800120122E568001279
:100C43000122FE68001201223BA2021201228EA29F
:100C5300021201229AA2021201226FA3021201229E
:100C630096A302120122D1A3021201223DA4021271
:100C7300012279A402120122B2A402120122CAA4FF
:100C8300021201221FA50212012238A5021201221B
:100C930081A50212012294A502120122AEA502121D
:100CA3000122C4A502120122F7A6021201223EA8C4
:100CB3000212012240A9021201223AAA02120122BF
:100CC3000127001201227AEA01120122AAEA011283
:100CD300012272EE01120122C9EF0112012292F0E8
:100CE3000112012212F201120122E3F20112012286
:100CF30020F30112012243F30112012281F30112B5
:100D030001228AF301120122D4F301120122DEF33C
:100D13000112012288F40112012261F5011201225C
:100D2300B5F50112012217F6011201226AF601122A
:100D3300012299F601120122D6F60112012230692D
:100D430000120122976C001201229D6C00120122F5
:100D53001F72001201229876001201226E7A00128D
:100D630001220080031201227680031201228C806B
:100D730003120122CD8003120122078103120122F3
:100D8300808103120122BB81031201222E820312EE
:100D930001226C82031201227582031201228182D5
:100DA300031201229D8203120122C882031201222F
:100DB300DE82031201222283031201227EE0021249
:100DC300012291E002120122ABE002120122D4E0DF
:100DD3000212012217E10212012256E1021201223C
:100DE30094E102120122F9E1021201220EE202123F
:100DF300012219E20212012226E2021201223DE23D
:100E0300021201224BE20212012256E202120122D5
:100E130062E20212012275E20212012280E2021250
:100E23000122A3E2021201224AE3021201225AE33F
:100E33000212012274E30212012291E3021201223F
:100E4300ADE302120122D2E302120122DDE3021218
:100E53000122F2E30212012206E40212012267E4F4
:100E6300021201226DE40212012273E40212012232
:100E730079E40212012291E402120122C4E4021273
:100E8300012281CE0112012205CF01120122B4CF2A
:100E93000112012213D10112012234D301120122C2
:100EA30020D40112012255D40112012277D4011258
:100EB300012226D5011201221ED70112012247D792
:100EC30001120122D9D7011201220BD801120122EA
:100ED30018D8011201226FD80112012295D80112EC
:100EE300012202DB0112012205DC011201225DDC79
:100EF3000112012210C0011201221AC101120122A2
:100F030001C2011201220BC2011201222DC20112E0
:100F1300012239C201120122D2C30112012201C4EA
:100F2300011201221DC50112012276C501120122FF
:100F3300DCC601120122BBC70112012217C801122C
:100F4300012284C801120122BFC801120122FEC876
:100F530001120122B7CB01120122D1CB01120122CE
:100F63005DCC011201226BCC01120122C4CC01120F
:100F73000122D2CC0112012245CD01120122A9CDB9
:100F830001120122F3CD01120122D38C021201229C
:100F9300F58C021201221B8F0212012230920212DF
:100FA3000122489302120122FB9302120122DD94D3
:100FB3000212012257FE021201227CFE02120122BA
:100FC300EEFE02120122DCC502120122E5C5021265
:100FD3000122EEC502120122C5C60212012276C801
:100FE30002120122ACC802120122E6C80212012237
:100FF3001CC90212012256C9021201228AC9021215
:101003000122B6C902120122FFC90212012239CA02
:101013000212012282CA02120122DACA0212012238
:101023000FCB021201226ACB02120122A4CB0212BD
:101033000122F5CB021201222BCC0212012265CC34
:101043000212012293CC02120122B6CC0212012217
:101053002FA5031201225BA503120122B6A50312D9
:101063000122C0A503120122D0A503120122E7BD6C
:1010730002120122F1BD021201222FBE021201222D
:1010830078BE02120122B2BE0212012208BF02126E
:10109300012229BF02120122AEC102120122B7C1ED
:1010A3000212012202C2021201222BC202120122E7
:1010B30035C202120122A1C20212012237C3021257
:1010C300012281C302120122B1C3021201223AC4D6
:1010D300021201227AC402120122B2C402120122B4
:1010E300C4C402120122E3C402120122ECC402129C
:1010F3000122B2C50212012261A3031201222F9918
:10110300031201226599031201229B990312012202
:10111300E49A0312012219A8031201222FA8031231
:10112300012239A80312012283A80312012214F316
:101133000212012229F302120122DCF3021201221C
:101143001CF40212012235F40212012269F4021284
:101153000122B6F402120122EAF4021201222CF552
:1011630002120122759E031201229E9E0312012286
:10117300C79E03120122629F03120122A49F03123E
:101183000122858F03120122AA8F03120122D48F19
:101193000312012276A9031201226D4100120122DA
:1011A300D14300120122824500120122844600121B
:1011B30001220D4700120122914700120122B64776
:1011C30000120122EF4A00120122634B0012012296
:1011D300544C001201228E4C00120122CE4C0012FC
:1011E3000122814E00120122D44E001201221D4F12
:1011F300001201228B4F00120122BD4F0012012267
:10120300D54F00120122EA5000120122FA500012B7
:1012130001221552001201223752001201226D528F
:101223000012012211540012012250540012012213
:10123300725500120122E47F001201222DA903122C
:1012430001226CA90312012292AA031201227BA696
:10125300031201228BA603120122A3A60312012269
:1012630009A7031201225DA203120122E2A20312C3
:10127300012248A303120122DAA503120122DDA5EC
:101283000312012216A60312012269A603120122E8
:101293005283031201226783031201227D84031206
:1012A3000122FF84031201227385031201228D851B
:1012B30003120122A48503120122B785031201221E
:1012C300CF8503120122E48503120122058603124E
:1012D3000122568603120122A3AA03120122FC96BD
:1012E300031201229D9703120122E89703120122A0
:1012F300A89803120122DB98031201220199031219
:101303000122159903120122D89C03120122289D60
:1013130003120122B19D03120122179E031201221F
:10132300BF9403120122E99403120122AF95031221
:1013330001228A9603120122B1F7011201226EF8EB
:1013430001120122A9F801120122D1F8011201228E
:1013530033F9011201227FF901120122DFF901128F
:10136300012272FA0112012271FB0112012200FD16
:101373000112012283FD01120122EAFD0112012261
:1013830001FE011201220BFF0112012249FF01128A
:101393000122ABDC011201220BE00112012293E1D5
:1013A30001120122EAE10112012209E201120122E2
:1013B30087E20112012217E401120122FBE4011268
:1013C300012207E901120122D7E90112012285DB7B
:1013D30002120122BBDD02120122A0DE021201224F
:1013E3001CE002120122C1FA0212012206FB0212C0
:1013F300012223FB02120122D9FB021201222CFC3F
:10140300021201220AFD021201221EFE0212012211
:1014130097A703120122C7A703120122FCA70312F5
:101423000122FEA70312012200A80312012211A820
:101433000312012213A80312012216A80312012288
:10144300589203120122C59203120122E79203125A
:1014530001221F93031201225593031201228B864B
:1014630003120122CE8603120122EC86031201220B
:10147300248903120122588903120122838903124A
:101483000122E2A80312012279D4021201225BD5C0
:101493000212012247D60212012258D60212012259
:1014A30069D602120122B3D6021201224ED80212C9
:1014B3000122ACD902120122DCD902120122A9DADB
:1014C3000212012209DB0212012220AA03120122C5
:1014D300BDA9031201224CAA0312012274AA03120A
:1014E300010002020000205104AA160900010203B0
:1014F30001090243000201008019090400000102EE
:101503000201000524001001042402020524060040
:10151300010524010001070582034000400904017D
:1015230000020A00000007058402400001070504C9
:1015330002400001FD14000020150000E066701059
:1015430008A3E066700A08A3E066700408A3E066D7
:1015530022C3E7960809E7960809E7960809E7967C
:1015630022C3E09608A3E09608A3E09608A3E096BA
:1015730022C021C3E096F52108A3E096422108A3E7
:10158300E096422108A3E09645217001D3D02122A1
:10159300BB0102E722C082C08389828A83BB000326
:1015A300E08002E493D083D08222BB000EC082C0CD
:1015B300838A838982F0D083D08222BB0101F72200
:1015C300080808EAC0E0EBC0E086F0E7A4FA1809CF
:1015D30086F0E7A42AFA180986F0E7A42AFA18097C
:1015E30086F0E7A42AFA1986F0E7A4FBE5F02AFAC5
:1015F300190886F0E7A42BFBE5F03AFA190886F000
:10160300E7A42BFBE5F03AFA18180986F0E7A4C51E
:10161300F02BFBE43AFA1908E7C5F0C6A426F6E571
:10162300F03BFBE43AFA1886F0E7A4F6E5F0082667
:10163300F6E43B08F6E43A08F6D0E0FBD0E0FA2201
:10164300E4CFC0E0E4CEC0E0E4CDC0E0E4CCC0E051
:1016530075F020E626F608E633F608E633F608E6E4
:1016630033F6181818EC33FCED33FDEE33FEEF338D
:10167300FFC3EC9709ED9709EE9709EF971919192D
:10168300400FFFEC97FC09ED97FD09EE97FE191942
:1016930006D5F0BFECF709EDF709EEF709EFF719F7
:1016A3001919D0E0FCD0E0FDD0E0FED0E0FF2260CD
:1016B30016080808C6C313C618C613C618C613C629
:1016C30018C613C6D5E0EA22700908080822601676
:1016D300181818C6C333C608C633C608C633C608A7
:1016E300C633C6D5E0EA22E627F60809E637F60848
:1016F30009E637F60809E637F622E026F608A3E0FE
:1017030036F608A3E036F608A3E036F622E026F024
:1017130008A3E036F008A3E036F008A3E036F02291
:10172300C3E697F60809E697F60809E697F6080967
:10173300E697F622C3E096F008A3E096F008A3E04C
:1017430096F008A3E096F022E056F608A3E056F6DA
:1017530008A3E056F608A3E056F622E056F008A3E5
:10176300E056F008A3E056F008A3E056F022E0F6B6
:1017730008A3E0F608A3E0F608A3E0F622E6F008E3
:10178300A3E6F008A3E6F008A3E6F022E0FAA3E05C
:10179300FBA3E0FCA3E0FD22EAF0A3EBF0A3ECF053
:1017A300A3EDF022E0F8A3E0F9A3E0FAA3E0FB2223
:1017B300E8F0A3E9F0A3EAF0A3EBF022CAC0E0E665
:1017C300F0A308DAFAD0E0FA22CAC0E0E0A3C582A7
:1017D300CCC582C583CDC583F0A3C582CCC582C5E4
:1017E30083CDC583DAE6D0E0CA22C3E498F8E4994E
:1017F300F912182E8026C3E49AFAE49BFBE920E74A
:10180300E912182EE498F8E499F922C3E498F8E46D
:1018130099F912182EE498F8E499F9C3E49AFAE4D2
:101823009BFB22EB20E7CFE920E7E0B90010BB00E8
:1018330008E88AF084F8AAF022E4FBC8FA22EB70E5
:10184300227B10C833C8C933C9335007C39AC3DBDB
:10185300F280069A50012ADBEAC833F4C8C933F48C
:10186300C9FA2275F008E4C833C8C933C933C99A21
:10187300C99B5004C92AC93BD5F0ECFBC833F4C853
:10188300E4C9FA22600D08C6A2E713C618C613C638
:10189300D5E0F322600C08C6C313C618C613C6D519
:1018A300E0F422700422600D18C6C333C608C633A1
:1018B300C6D5E0F41822254110AF08F541400C15B8
:1018C300428008F54140021542D2AF2200C0D02524
:1018D3004110AF08F541500C05428008F541500214
:1018E3000542D2AFD0D0222541F58210AF08F54191
:1018F300400C15428008F54140021542D2AF8542A3
:1019030083222541F582E43542F583222541F8E41B
:101913003542F9222541FAE43542FB222541FCE414
:101923003542FD22E4732541C582C0E0E54234FF20
:10193300C583C0E0E541C3958224F810AF088583D1
:10194300428582418008858342858241D2AFCEF0B1
:10195300A3E520F0A37821E608F0A3DEFAEFF0A3D5
:10196300E58124FAF8E608F0A3E608F0A3E608F018
:10197300A30808E608F0A3E608F0A315811581D0B3
:10198300E0FED0E0F8158115811581E8C0E0EEC0D6
:10199300E0222541C582C0E0E54234FFC583C0E0B3
:1019A300E541C3958224F910AF08858342858241BE
:1019B3008008858342858241D2AFCEF0A3E520F033
:1019C300A37821E608F0A3DEFAEFF0A3E58124FB78
:1019D300F8E608F0A3E608F0A30808E608F0A3E693
:1019E30008F0A315811581D0E0FED0E0F81581152C
:1019F30081E8C0E0EEC0E022854283854182E0A316
:101A0300FEE0A3F5207821E0A3F608DFFAE0A3FFC8
:101A1300E0A3C0E0E0A3C0E0E0A3C0E0E0A3C0E037
:101A2300E0A3C0E010AF088582418583428008852A
:101A33008241858342D2AFD083D08202011F854287
:101A430083854182E0A3FEE0A3F5207821E0A3F69D
:101A530008DFFAE0A3FFE0A3C0E0E0A3C0E0E0A357
:101A6300C0E0E0A3C0E010AF0885824185834280D7
:101A730008858241858342D2AFD083D08222C0D0F1
:101A83002541C582C0E0E54234FFC583C0E0E5419E
:101A9300C3958224F310AF08858342858241800871
:101AA300858342858241D2AFC8F0A3E9F0A3EAF06F
:101AB300A3EBF0A37921E709F0A3D8FAECF0A3EDA7
:101AC300F0A3EEF0A3EFF0A3D0E0F0A3D0E0F0A3F7
:101AD300D0E0F0A3E520F0A3E5F0F0A32285428354
:101AE300854182E0C0E0A3E0F9A3E0FAA3E0FBA311
:101AF3007821E0F608A3DFFAE0FCA3E0FDA3E0FE13
:101B0300A3E0FFA3E0C0E0A3E0C0E0A3E0F5D0A31F
:101B1300E0F520A3E0A3F5F010AF088583428582AA
:101B2300418008858342858241D2AFD082D083D061
:101B3300E0F8D0E0327404800A74038006740280F3
:101B4300027401C0E0F4041218EAD0E01217BF22B5
:101B5300740480087403800474028000CCC0E0ED38
:101B6300C0E0E541C39CCCAD4250011D10AF068CD3
:101B7300418D4280068C418D42D2AF1217CCD0E00A
:101B8300FDD0E0FC22D083D082E9C0E0E493A3C37C
:101B930086F0C5F095F0F908E493A386F0C5F095B7
:101BA300F0700BE493A3C3994005E9048002A3E416
:101BB30075F002A42582F582E5F03583F583D0E044
:101BC300F9E493A3C0E0E493C0E022D083D082EC95
:101BD300C0E0EDC0E0E493A3FCE493A3FDED4C600F
:101BE3000D121C1AEC24FFFCED34FFFD80EFE4938F
:101BF300A3FCE493A3FDED4C600D121C59EC24FFF0
:101C0300FCED34FFFD80EFD0E0FDD0E0FCE493A3D6
:101C1300C0E0E493C0E022C0E0C3E49396087401FB
:101C2300939618400FE4936670080874019366183E
:101C330070007019A3A3C3E49396087401939618D4
:101C4300A3A3400DD0E0D0E0D0E0021C0AA3A3A3DD
:101C5300A3A3A3D0E022C0E0C0F088F0E4936670B1
:101C6300080874019366187000A8F0A3A3700BD042
:101C7300F0D0E0D0E0D0E0021C0AA3A3D0F0D0E083
:101C83002274F5121995EAFEEBFFEE2434F8EF34D3
:101C930000F988218922EE2435121DB0F8EE24378D
:101CA300121DB0F523EC8523F0A4FCAAF08523F0E4
:101CB300EDA42AFDE82CF8E43DF97A257B001218FF
:101CC3002EEA852182852283F074075AF87401B8BD
:101CD30000028004C333D8FCFBEA131313541FF828
:101CE300EE28F8EF3400F9E8245DF582E9121DB31C
:101CF3005B6003EA801CEE2436121DB0F5F0EA8423
:101D0300A8F0EE28F8EF3400F9E82438F582E91258
:101D13001DB3F97F04021A4174F5121995EAFEEB1B
:101D2300FFEE2434121DB0C0E0EE2435F582EF340B
:101D330000F583D0E0F08E828F83A3A3A3A3A3E057
:101D4300FAA3E0FB8E828F83A3A3A3A3A3A3A3E0A1
:101D5300FCA3E0FDECC39AF523ED9BF524EE247F71
:101D6300F521EF3400F522852182F583E0640170CB
:101D73002BEE2480F582EF3400F583121B5B121DDA
:101D8300B974021218CFE960137CDC7D04EEFAEF1C
:101D9300FB120BE8852182852283E4F0AC23AD247A
:101DA300EEFAEFFB121C841225DF021D16F582EFFB
:101DB3003400F583E022C082C0838541828542835B
:101DC300E0F8A3E0F9C3EA9CEB9D5010C3EC98ED57
:101DD30099401BC3EA98EB995014800EC3EA98EB21
:101DE300994007C3EC98ED9940047901800279008A
:101DF300D083D08222EAC39CFAEB9DFB2274ED12BE
:101E030019959003A2E064086005E06407702C90C4
:101E130061C8E060269003D0E0F874FF68601CE8B6
:101E230075F003A4C8AAF02AF974D228FE74033902
:101E3300FF8E828F83A3A3A3E070057900021FA006
:101E4300EE2468F529EF3400F52A906060E08529D7
:101E530082852A83F0752345752405752100752233
:101E630000E5D914F527E5D95403F528601CEE24C1
:101E730082F525EF3400F526740365286058E527BD
:101E83006013EE2467121DB0700B793DEEFAEFFB81
:101E9300120C0C80A6900540E06401602685258223
:101EA300852683E06004780480027800852721E595
:101EB30021C398FA95E0FB120A8C8A218B22EA450A
:101EC300227006120E64021E3E852582852683E05B
:101ED30070048A238B2478008016E5D9C0E0882B10
:101EE300E523252BF582E5243400F583D0E0F008C3
:101EF300E8C3952740E4852582852683E06028741E
:101F0300FC2527F5277823121B40AC27A928EEFAD6
:101F1300EFFB120CBA74021218CFE9700AAA21ABB4
:101F23002212130E021E8D7403652860588527251F
:101F33007526007825121B40AC23AD24AA21AB22C1
:101F4300120C7E74021218CF852982852A83E0F849
:101F5300748068700575257F80028825E525F52343
:101F63007823121B44E528F5237823121B44A92761
:101F7300AC21AD229003D0E0FA7B00120924740255
:101F83001218CF80139003A2E06408600BAC23AD5A
:101F930024EEFAEFFB120D50120E7079017F0C0242
:101FA3001A4174F312199574FC1218B9EAFEEBFF87
:101FB3008921A2AFE433F522C2AFEE2463F523EF08
:101FC3003400F5248010AA23AB24120C3612130E0E
:101FD3009004E3E004F0852382852483E0F8A3E002
:101FE300F9E849602FE82402FAE93400FBEA240205
:101FF300F525EB3400F5267825121B408A828B8366
:10200300E0FCA3E0F9EEFAEFFB120C2A74021218BB
:10201300CFE960B29004E3E060579004E4E0F89005
:1020230004E3E0C398500C7402652170449004E506
:10203300E0603E8E828F83A3A3A3A3E085418285C4
:1020430042831220847402121905E812208490043A
:10205300E2E028F07402121905AC82AD8385418257
:10206300854283AA82AB8379011209309004E3E4A9
:10207300F0E522A2E092AF74041218CF7F06021A91
:1020830041F0A3E4F09004E3E0F8220000854387E5
:102093008544C622C0E074EF121A81A2AFE433FE76
:1020A300C2AF759B00906182E0A2E05012E591A25D
:1020B300E0500C7591FE740165437003121E00E03D
:1020C300A2E55051E591A2E5504B7591DF9003A233
:1020D300E064076005E064087023740165437035AC
:1020E30079019003D0E0FA75F003A4CAA8F028FBA5
:1020F30074D22AFA74033BFB121FA58018E0640D07
:1021030070139003C4E004F064287002E4F07A00D2
:10211300E0F9120E76906182E0A2E640030221BE4E
:10212300E591A2E640030221BE7591BF9003A2E0B0
:1021330064057008120D92120D9E8003120D98759E
:102143004300120E04E99003A3F07900120DF81274
:102153000B527A017B009003A1E0F91210CE907824
:1021630003E064427055900544E014F0704DC2AF33
:10217300122176007853D0E0F618D0E0F6E59F54AC
:102183000770057522FF800375227FC4C0E0785273
:10219300E6F52108E65522F522740B7821121897EB
:1021A300D0E02521F8906270E0A2E740F8E8C3335D
:1021B300906272F0906270E0D2E0F0906181E0A2F0
:1021C300E35009E5E9A2E3500375E9F7A3E0A2E7C9
:1021D3005009E591A2E7500375917FEEA2E092AF1B
:1021E3007F04021AE0C0E0C0D0C082C08390618344
:1021F300E0A2E05009E5BFA2E0500375BFFEE0A2F4
:10220300E15009E5BFA2E1500375BFFDE0A2E25032
:1022130009E5BFA2E2500375BFFBE0A2E35009E565
:10222300BFA2E3500375BFF7E0A2E45009E5BFA2E4
:10223300E4500375BFEFE0A2E55009E5BFA2E55006
:102243000375BFDFE0A2E65009E5BFA2E6500375C0
:10225300BFBFD083D082D0D0D0E032C0E074F212BE
:102263001A81E5A7A2E4500FE5A1A2E4500953A700
:10227300EF75A1EF1222B2E5A7A2E5500CE5A1A2EA
:10228300E5500653A7DF75A1DFE5A7A2E15009E5F5
:10229300A1A2E1500375A1FDE5A7A2E2500CE5A1BF
:1022A300A2E2500653A7FB75A1FB7F01021AE0745B
:1022B300F81219957543019003A2E0640670077A3A
:1022C300007B00120D7AA2AFE433FED2AF9003A8D5
:1022D300E0640170187A207B009003A1E0F91211E9
:1022E300527A207B009003A1E0F91210D49061820E
:1022F300E0D2E6F0900541E0602185C64480169067
:1023030003A7E064017008E5C654F84405F5C65315
:10231300BEFC1220907401654360E4EEA2E092AF2C
:102323007F01021A418E458F4685824A85834985FE
:102333004182854283E0CEA3E0CF854A82854983EB
:10234300EBC9EAC8EDCBECCA75F010C3E833C8E9B2
:1023530033C9EA33CAEB33CBC3EA9EF548EB9FF5A7
:1023630047B35004AB47AA48EC33CCED33CDD5F09B
:10237300DAAE45AF462274F11219958A218B228C6D
:10238300238D249090C3782112174B740F121905D3
:1023930078251217719090C3782512174B782179FD
:1023A30025121554909097501078217925121723F0
:1023B30078211215744014800E7825792112172381
:1023C300782512157450047901800279007F080280
:1023D3001A4174ED1219958A218B228C238D249036
:1023E30090C3782112174B7413121905782512170D
:1023F300719090C3782512174B78257921121554C3
:10240300401178217925121723AA21AB22AC23ADE1
:10241300248022752900752A00752B00752C0178FC
:10242300297925121723782979211216EAAA29ABCB
:102433002AAC2BAD2C7F0C021A419090C378211249
:1024430017718A828B83782112175E7F04021A41E7
:1024530074F51219958C828D8378211217718A82F3
:102463008B8378211217371224A7C3E098F0A3E0D7
:1024730099122499401E9090CF78211217718A8265
:102483008B8378211217108E828F83E02420F0A390
:10249300E0344EF080A4F08E828F83C3E09420A3B7
:1024A300E0944E22EA2404F8EB3400F9E8FEE9FF55
:1024B3008C828D83A3A3A3A3E0F8A3E0F98E828F7C
:1024C300832274F5121995E9FE9004F7E0FAA3E06C
:1024D300FBEEC333F8E433F9748528F582748F393E
:1024E300F583E02AF521A3E03BF5227821121B4076
:1024F3009090BF12178F12232874021218CF8A21CB
:102503008B228C238D24741078211216B2AA21AB4E
:10251300227F04021A4174F11219958A258B268CA5
:10252300278D28740F121905E0FAA3E0FB7411122A
:102533001905E0F521A3E0F5227821121B40EA24D6
:1025430001F521EB3400F522E4F523F52478257910
:10255300211215C390908F78211217717825792154
:102563001215C3AA25AB26AC27AD28122328740263
:102573001218CF8B22EA452260047A0180027A0086
:10258300EC2AFCED3400FD7413121905E0F8A3E006
:10259300F9E8FEE9FFECF8EDF97A717B0212182EE7
:1025A30088218922E4F523F5248E828F83782112F2
:1025B3001780ECF8EDF97A717B0212182E8A218BC1
:1025C30022740578211218A68E828F83A3A3A3A356
:1025D300E521F0A3E522F07F08021A41C082C083FF
:1025E300E9906000F0D083D08222C2AF02000022C3
:1025F300C0E074F2121A81A2AFE433FED2AFE58ACF
:10260300A2E2500790084CE0D2E0F0E58AA2E35042
:102613000790084CE0D2E1F0758A00C2EB7A107B98
:1026230000900848E0F91210CEEEA2E092AF7F01CD
:10263300021AE0C0E0C0D0E8C0E0E9C0E0E5A8D2FB
:10264300AFC2C7A2E7A2E792AFD0E0F9D0E0F8D0DB
:10265300D0D0E032C0E074F1121A81E59DA2E650B9
:10266300FA906206E0FAA2E25035A850E890620BB5
:10267300F0F52185512274047821121897E52190F1
:102683006207F08550218551227409782112189729
:10269300E521543E906209F0906201E0D2E0F078C7
:1026A3004DEA46F6906202E0F52175220074047843
:1026B300211218A6784DE52146F608E52246F69044
:1026C3006204E0F521752200740978211218A678B6
:1026D3004EE52246F6EAA2E05003754F0174065A0E
:1026E3006003754F00E58BA2E55006758BDF754FD0
:1026F3000012143A758B00C2E87F02021AE002014D
:102703001FFFFFFFFFFFFFFFFFC082C083E9900AA7
:102713001AF002299B74F7121929E99002E1F07C5F
:10272300197D037AFF7BFF1208769002E274FFF0B3
:10273300A3F0A3E4F0A3F079051207FE9002E1E011
:10274300F91207207A947B08120A3E7F010219FBD3
:1027530074F41219298A218B22EB54806030900281
:10276300E1E0F91210B68A238B24AE23AF24EE4F97
:1027730060138E828F83E064B07003120816EEFA42
:10278300EFFB1210A4AA21E5226480FB80047A00E7
:102793007B0002296A74F212192974FC1218B9EA2F
:1027A300FEEBFFEE4F60387402121905EEF0A3EF53
:1027B300122BCFECF0A3ED122BCFAA82AB8312071F
:1027C3001AE9F52170737412121905123783E52380
:1027D300452460658E828F83122846EE4F700575FF
:1027E300210280557A067B0012110A8A258B26A8BE
:1027F30025A926E8497005752113803D88828983C0
:10280300E4122850A3A3EEF0A3EF123C1CE523F03F
:10281300A3E524F09002E71228D89002E76017E0BE
:10282300FCA3E08003EAFCEBFD8C828D831228D8A5
:1028330070F38C828D831236A8A92174041218CFE9
:10284300023E1EA3A3A3A3E0FEA3E0FF22F0A3F096
:10285300888289832274F21219298923E975F01772
:10286300A4FEAFF09002E6E4F09002E41228D860F0
:102873000A1211109002E4E4F0A3F0EEFAEFFB1257
:10288300110A8A218B22EA4522602FEEFCEFFD79A3
:102893000012108C9002E4E521F0A3E522F07B0006
:1028A30080081228C2E4F0A3F00BEBC3952340F297
:1028B300E5239002E6F0790080027913023E1EEBD5
:1028C30075F017A4F8A9F09002E4E028FAA3E03920
:1028D3008A82F5832212343EEA4B2274F4121929B8
:1028E300752100752200740C121905123BF0FEE9E4
:1028F300FF800CE5212401F521E5223400F522C3F4
:10290300E5219CE5229D50328521238522247403F1
:1029130078231218A6EA2523F8EB3524F98882894F
:1029230083A3A3A3A3A3A3123783EE65237003EFAB
:10293300652470BFE8FAE9FB80047A007B008027F6
:1029430074F41219297900EAA2E0501B75214E751F
:1029530022907821121B407C047D007A1C7B0A1292
:1029630007F874021218CF7F040219FBC082C083D8
:102973009002E71229A2601C88828983A3A3E06ADC
:102983007003A3E06B8882898370E8A3A3A3A312D7
:10299300343A80047A007B00D083D08202011F1274
:1029A3003EF1E8492274EE12192974FC1218B9EAAF
:1029B300FEEBFF854182854283E4F0A3F0EE24021F
:1029C30012368CEE2405122BBDEE2404F527EF12EC
:1029D3002FA2E024FE603924FC604624FE605224CA
:1029E300FE605E24FE7003022AC224FE7003022BE3
:1029F3003A24FE7003022B4924FE7003022B582451
:102A0300FC7003022B6724FE7003022B76022BB3A8
:102A13009003007417F0A3E4122BD7120498022B2F
:102A2300B3854182854283AC82AD8312081C022B9D
:102A330083854182854283AC82AD83120822022BB7
:102A4300838525218526227402121905AC82AD8364
:102A530085218285228312343A12073E8A258B26EA
:102A6300AC25AD26EC4D6042E4F525F5267825121C
:102A73001B407525007526037825121B407525011B
:102A83007526037825121B407408121905121B5B67
:102A9300791612343412085E74081218CFE9F5253A
:102AA300700B1234301204B0800F7525018521821A
:102AB300852283122BC51236A8852521022B867405
:102AC30002121905AC82AD838525828526831234D3
:102AD3003A12073E8A298B2AAC29AD2AEC4D604372
:102AE300852582852683A3A3121B5B752900752A7E
:102AF300037829121B40752901752A037829121BB3
:102B0300407408121905121B5B791612343412082B
:102B13005E74081218CFE9F522700B1234301204D8
:102B2300B6800F752201852582852683122BC51257
:102B330036A8852221804C854182854283AC82ADB3
:102B430083120828803A854182854283AC82AD8313
:102B530012082E802B854182854283AC82AD83127D
:102B63000834801C854182854283AC82AD83120880
:102B73003A800D854182854283AC82AD8312084041
:102B8300E9F521E52160298E828F83A3E064146037
:102B93001F852782852883E0900300122BCF123EE6
:102BA300ED9003011236A8E521A3122BD71204924C
:102BB300EEFAEFFB1207BC023594F525EF3400F56E
:102BC3002622123EF185418285428322F08541828D
:102BD30085428322F07C007D038523828524831232
:102BE300343E2274EE12192974FC1218B98A238B0D
:102BF300248C278D28EA2405F521EB3400F5227C6B
:102C0300157D0079007A007B0312108CE5212402E4
:102C1300F525E522122BC0854182854283858229D1
:102C230085832A7829121B40852182852283A3A3C9
:102C3300A3A31230EA121B40E5212405F529E5225E
:102C43003400F52A7829121B4085258285268312B4
:102C5300344412073874061218CF8A298B2AAE29F6
:102C6300AF2AE5232402F523E52412368FEE4F70B5
:102C730003022DAC8017740212190512343A8882AC
:102C83008983EAF0A3EBF0900300E004F0900300E3
:102C9300E0C394054003022DACE4F529F52A782915
:102CA300121B407529E9752A027829121B407529E0
:102CB300EA752A027829121B407406121905121BA1
:102CC3005B7910EEFCEFFD12343412085E740812C7
:102CD30018CFE9705E852182852283A3A3A3A3A3D2
:102CE300A3A3E0F89002E9E06870481230EA121BEF
:102CF300407CEA7D02E5212408FAE5223400FB1238
:102D0300108674021218CFE960298E828F83A3A3E1
:102D1300A3A312343A900300E0F529740278291230
:102D230018A674012529F5827403352AF583EAF080
:102D3300A3EBF0740212190585822985832A782969
:102D4300121B407402121905121B5B85258285260E
:102D530083123F0212074474041218CF8A298B2A64
:102D6300AE29AF2A900300E0F529752A0074027892
:102D7300291218A674002529F87403352AF98882C4
:102D83008983A31228D87003022C70E82403F8E97E
:102D93003400F9EE4F6003022C798882898374FF33
:102DA300F0A3F0900300E004F0900300E0600A1247
:102DB30034301204A47900800B852182852283128A
:102DC300369F790A02359474EA12192974FE12188F
:102DD300B98C2B8D2CEA2405F525EB12406C1228B7
:102DE3004A752100752200EA2402F529EB3400F527
:102DF3002A85418285428385822385832478231211
:102E03001B40852582852683A3A3A3A3122FAC127F
:102E13001B40E5252405F523E52612368F7823127A
:102E23001B40852582852683123F001207387406CE
:102E33001218CF8A238B24EA45247003022F5DEAFC
:102E43002404F527EB122FA212284A8A828B83A32C
:102E5300A3A3E0F9852982852A8312343A1207262F
:102E6300E9F5226003022F5DE4F52DF52E782D128E
:102E73001B40752DE9752E02782D121B40752DEA26
:102E8300752E02782D121B407406121905121B5B56
:102E93007913AC23AD24852982852A8312343A120F
:102EA300085E74081218CFE9F5226003022F5D90C3
:102EB30002E9E0F8E5217009E02402900301F080C3
:102EC30017900301E0FCE82402FAE43400FBEA6C07
:102ED3007001EB6003022F61852182AA821230E127
:102EE30094141230D95073852782852883E0C0E07B
:102EF30074022A122F99D0E0F005218527828528B4
:102F030083A3E0C0E085212374022523122F99D0E7
:102F1300E0F005219002E9122FAC121B407CEA7D00
:102F23000285212374022523FA74033400FB121053
:102F33007474021218CF9002E9E02521F52174FF81
:102F43006E700374FF6F6012EE24010EEF3400FF06
:102F5300E521C394145003022DF4E52160131233C9
:102F630025852982852A8312343A1204AA7900809E
:102F730014E522700375220A852B82852C83EEF0DB
:102F8300A3EFF0A92274021218CF7F0E0219FB855A
:102F9300212574022525F58274033400F583223438
:102FA30000F528852782F58322123C2F2274EE1226
:102FB300192974FE1218B98C278D28EA2405F525E2
:102FC300EB122BC0752400900300E4F0F523EA24F0
:102FD30002F521EB3400F5228049900300E0FA90DA
:102FE30002E9E0F81230E194171230D9400D900352
:102FF30000E0F87416C3989002E9F01230EA121B4D
:10300300407CEA7D0274012AFA74033400FB121037
:103013007474021218CF9002E9E0F8900300E028DC
:10302300F00523E5252416F582E526122F9DE0F809
:10303300E523C39840030230C2900300E0C3941613
:10304300507DE523C333F8E433F9E52528FEE5266F
:1030530039FF854182854283AC82AD838E828F8323
:1030630012343A12073E8A298B2AAC29AD2AEC4D39
:1030730070057524018043E4F529F52A7829121B8C
:10308300407529E9752A027829121B407529EA75CA
:103093002A027829121B407406121905121B5B7948
:1030A3001685218285228312343A12085E7408122F
:1030B30018CFE9F5247003022FDD12369B80107CB4
:1030C300007D0385218285228312343A1204BCA930
:1030D300247402023596E99400C365D03322EA28AA
:1030E300F8E43400F9E822E0F529752A007829226A
:1030F30074EA12192974FC1218B98A258B268C2BB1
:103103008D2CEA2405F523EB12368F7521007522E9
:1031130000E5232402F529E5243400F52A7402127C
:1031230019058582278583287827121B40852382EA
:10313300852483A3A3A3A3123BDB121B40E5232413
:1031430005F527E5243400F5287827121B40852947
:1031530082852A8312369512343412073874061284
:1031630018CF8A278B28AE27AF28E5252402F52719
:10317300E5263400F52880408882898374FFF005B2
:1031830021122F9274FFF005219002E9E0F52575D5
:1031930026007825121B407CEA7D028521257402D6
:1031A3002525FA74033400FB12107474021218CF2D
:1031B3009002E9E02521F521EE4F60718E828F8325
:1031C300A3A3A3E0F985278285288312343A120743
:1031D30026E9F522EE2404122BBDE97044E4F52D13
:1031E300F52E782D121B40752DE9752E02782D12C0
:1031F3001B40752DEA752E02782D121B40740812A0
:103203001905121B5B7911EEFCEFFD8527828528DA
:103213008312343A12085E74081218CFE9F522605B
:103223002785258285268312331B1236A8E5217054
:103233000302330112332585278285288312343A0A
:103243001204C27900023316852182AA82EA90020F
:10325300E97009E02404900301F08022E0F8900370
:1032630001E0F52DE82404FCE43400FDEC652D7049
:1032730001ED70C01230E194121230D950B6852599
:1032830082852683E0C0E074022A122F99D0E0F0F1
:103293000521852582852683A3E0C0E0122F92D0E5
:1032A300E01233378582258583267825121B4074E7
:1032B30004121905121B5B852982852A83123F029A
:1032C30012074474041218CF8A258B26AE25AF2625
:1032D30085212574022525F874033400F9EE4F7017
:1032E3000302317B854182854283E0888289831290
:1032F3003337A3E0C0E0122F92D0E0023189E522F8
:10330300700375220A85238285248312331B1236A8
:10331300A8A9227404022F8A123EF1852B82852CE0
:103323008322900301E0F5F0E52184900300F07C13
:10333300007D0322F005218541828542832274ECBE
:1033430012192974FE1218B98A218B228C278D2811
:10335300EA2405FEEB3400FF854182854283AC827B
:10336300AD838E828F8312343A12073E8A238B24D5
:10337300EE2418122BBDEA4524700302340B1235D8
:103383007D503285418285428312343A1208528A33
:10339300298B2AEA452A606B7912AC23AD24852157
:1033A3008285228312343A852982852A831219273A
:1033B300E9F5237058E4F523F5247823121B408E96
:1033C300828F83A3A3E0F5237823121B40EE24030B
:1033D30012368C7823121B408E828F831234441250
:1033E300086474061218CFE9F523702185258285B8
:1033F3002683E0701F85218285228312343A1204CA
:10340300C8801175230E80097523018004E52360AC
:103413000312369B852582852683E060047900802C
:1034230002A92374021218CF7F0C0219FB7C007DC2
:103433000385238285248312343E22E0FAA3E0FB32
:1034430022E0FCA3E0FD85218285228312343E2203
:1034530074EE12192974FE1218B98A218B228C2555
:103463008D26EA2405FEEB3400FF75270085418293
:10347300854283AC82AD838E828F8312343A1207E6
:103483003E8A238B24EA4524700302356912357D75
:10349300503585418285428312343A1208528A2775
:1034A3008B28EA4528605E7912AC23AD24852182FE
:1034B30085228312343A852782852883121927E9C6
:1034C300F527600302356C852182852283123783B9
:1034D300AA23FB1208468A298B2AA829A92AE84984
:1034E300701E7AFF7BFF1208468A298B2AA829A916
:1034F3002AE849606C88828983E523F0A3E524F0F8
:10350300752300800775270E805F05239002E6E090
:10351300FAE523C39A504AE52375F017A4FAABF0F2
:1035230088828983A3A3E02AFAA3E03BFB8A828BE8
:1035330083123695EC4D70D27523177524007823CA
:10354300121B40EEFCEFFD12107474021218CFEE42
:10355300FCEFFD85218285228312343A1204CE804A
:10356300147527098003752701123EE98525828595
:1035730026831236A8A9270230D4E5212402F52197
:10358300E5223400F5228A828B83A3A3A3E0A2E57C
:103593002274041218CF7F0A0219FB74EC12192942
:1035A3008C298D2AEA2405F525EB122BC0752800FA
:1035B300EA2402F523EB12368F852382F583123436
:1035C3003A1208468A218B22EA4522700302368189
:1035D3007527008071852582852683E06401704FFD
:1035E3008E828F83A3A3121B5B8E828F83A3A3A3DD
:1035F300A3E0F52B752C00782B121B40EE2405F568
:103603002BEF3400F52C782B121B401234341208A4
:103613006474061218CFE9F528601485258285267F
:1036230083E4F0123EE9852982852A831236A87C39
:10363300177D007900EEFAEFFB12108C8E828F83D8
:10364300E4F0A3F005279002E6E0F8E527C39850DD
:103653001EE52775F017A4F8A9F08521828522833A
:10366300A3A3124076123695EC4D60030235D8853C
:10367300218285228374FFF0A3F0E52870061234BB
:10368300341204D4A92802342BF523EF3400F52493
:1036930022A3E0FCA3E0FD228E828F83123EF185FC
:1036A3002782852883E8F0A3E9F022C082C08390B3
:1036B30002E2E06A7003A3E06B70067AE27B0280A9
:1036C300047A007B0002299BC082C08378008C822D
:1036D3008D83E06A7003A3E06B7010E875F003A4B8
:1036E300F8A9F0EC28FAED39FB8015088C828D835C
:1036F300A3A3A3E06A7003A3E06B60DF7A007B00FF
:1037030002299B74F61219291208108A828B83E509
:1037130082458370067A007B008007A3A3A3A312CC
:10372300343A023D9A74F2121929E9FE740E121901
:10373300051237837410121905123BFB8C828D839B
:10374300E064027036A3123EF7F525A3E0F9A8253D
:103753007402687003742969702175250275260047
:103763007825121B407821121B407823121B40EE50
:10377300F912088874061218CF80027901023E1EDE
:10378300E0F523A3E0F5242274E812192974FB124F
:1037930018B9E9854182854283F08A2F8B30ECFE8C
:1037A300EDFF752900741D121905123EED741D12EB
:1037B30019051236A88E828F83A3A3A3E0A2E45037
:1037C3002D741D12190512343A1208528A828B8302
:1037D300E58245837003023BCC790AEEFCEFFDAA38
:1037E3002FAB30121927E9F5296003023BCF741F71
:1037F300121905123BFB7421121905123783742326
:10380300121905E0F527A3E0F5288E828F83E06483
:10381300026003023B7AA3123EED85218285228357
:10382300A385822B85832CEE2406122BBD888289E7
:1038330083E0FAA3E0F9EA2400F52DE439F52E78C4
:103843002D121BCE0100002801286F380700022823
:1038530034390328A13800296B3A0129963A022901
:10386300373A03296B3A0429153B7A3BE527452868
:103873006003023B75852582852683123BF0FAE9B6
:10388300FB8A828B83E0852382852483123C261264
:103893001B408A828B83A3E0FCA3E0023AFFE52767
:1038A30045286003023B758523828524837401F0D8
:1038B300123C03852182852283F07C007D008E8269
:1038C3008F83A3A3A3A3E02401FAA3E03400FB1294
:1038D300073EEA4B60418A828B83E02402F885230A
:1038E30082852483E028F0EA2404F8EB3400F98885
:1038F300828983E0852B82852C83123C38123C26F7
:10390300121B408A828B83123694E5212403FAE545
:10391300223400FB023B04852382852483E02404B4
:10392300F07C047D007900AA2BAB2C12108C023B97
:10393300CFE52745286003023B75123C03FEA3E055
:10394300FF8523828524837404F0EE8521828522FA
:1039530083F0EF852B82852C83F07403121905AC59
:1039630082AD83EEFAEFFB12073E8A258B26EA45EA
:10397300267003023A188A828B83A3A31228467403
:10398300011219058582278583287827121B407425
:1039930005121905121B5B7CFF7DFF12074474049B
:1039A3001218CF8B28EA4528703385258285268314
:1039B300123BDB121B40852582852683A3121B5BEA
:1039C3007C027D007AF57B9012057074041218CF87
:1039D300E9700A740112190574FFF0A3F08E828F47
:1039E30083E0640270397525027526007825121B61
:1039F300408E828F83123694E5212404FAE5223423
:103A030000FB12107474021218CF8523828524835D
:103A1300E0240280097401121905EEF0A3EFF0749B
:103A230001121905123BECF07401121905A3123BA4
:103A3300E4023B6FE52745286003023B7585258239
:103A4300852683123695AA2FAB3012087C852382F4
:103A53008524837402F0EA852182852283F0852BF5
:103A630082852C83EB023B72E52745286003023BEA
:103A730075123C03F8A3E0F985238285248374023D
:103A8300F0E8852182852283F0E9852B82852C83CA
:103A9300023B7285258285268312343A12106EEA20
:103AA300FC8C82A882C39527E49528405FE86527AC
:103AB3007002E52870047C00802285418285428360
:103AC300E0FAE5272AFAE5283400FBC3EA98EB94E9
:103AD300005003E08005E527CCC39CFCEC852382E2
:103AE300852483F08C237524007823121B408525BD
:103AF30082852683E02527FCA3E03528FDAA21AB98
:103B03002212107474021218CF023BCF75290702D8
:103B13003BCFE5274528705A852582852683123EAB
:103B2300ED8523828524837407122852123BE41205
:103B33002852A3E0852B82852C83F0E82402FAE93E
:103B43003400FB8A828B83123BE4123C13123BEC5E
:103B5300A3123C1C123BF5F0E82405F8E93400F904
:103B630088828983123BF5A3123C38A3A3A3A3F055
:103B7300805A75290B8055741D12190512343A1297
:103B830008108A828B83E5824583603D123EED886F
:103B9300258926E8452660317827121B40782312B1
:103BA3001B407821121B407406121905E0F9EEFC44
:103BB300EFFDAA2FAB308525828526831219277442
:103BC300061218CFE9F529800375290EA929740572
:103BD3001218CF7F100219FBE0F52775280078270C
:103BE30022E085218285228322123C4222123EF169
:103BF300E822123C42A3A322E0F521A3E0F522220E
:103C0300852582852683E0F8A3E0F5838882E02278
:103C1300A3A3F08A828B83A322F088828983A3A340
:103C2300A3A322F08A828B83123C2F22E0F5237513
:103C33002400782322F088828983A3123C4222E065
:103C4300852182852283A3A32274EE12192974FE8F
:103C53001218B98A238B24ECFAEDFB74141219059C
:103C6300E0F529A3E0F52A7416121905E0FE74188D
:103C7300121905E0F527A3E0F528854182854283E3
:103C8300AC82AD8312073E8A258B26EA452660491E
:103C930085418285428312343A1208108A828B83CB
:103CA300E5824583602FA3A3123BFBE521452260F8
:103CB300247827121B407829121B40EEF9AC25AD5E
:103CC30026AA23AB24852182852283121927740413
:103CD3001218CF8006790E800279010230D474F66F
:103CE30012192974FE1218B9740C121905123BF03B
:103CF300854182854283F07401121905E9F0E4F5E8
:103D030021F5227821121B407521027821121B40D4
:103D130074041219058582218583227821121B40A0
:103D230012086474061218CF74021218CF806874D4
:103D3300F7121929EAFEEBFF89217C197D0312088A
:103D43007CEA5402600BA921EEFAEFFB12073280E2
:103D530002790102274E74F612192974FF6A70035F
:103D630074FF6B70168C828D83123D9FE4F08C82FE
:103D73008D83A3A3A3123D9FA3801812084C8A210D
:103D83008B22A821A922E849600D8882898374FFC8
:103D9300122850A3A3E4F07F020219FB74FFF0A3DF
:103DA300F08C828D83A3A32274F612192912084C76
:103DB3008A828B83E58245836006A3A3E0FA8002AF
:103DC3007A007B0080D174F21219298A218B22ECAC
:103DD300FEEDFF740E121905E0F52312084C8A2537
:103DE3008B26A825A926E8497026EEFCEFFD7AFF6D
:103DF3007BFF12084C8A258B26A825A926E8497043
:103E0300047911801688828983E521F0A3E522F0E5
:103E130088828983A3A3E523F079007F060219FB37
:103E230074EE121929EAFEEBFF8C218D2289257489
:103E330014121905123EED741612190512343A754F
:103E43002600E8496003023EE1740265256003022F
:103E53003EDC7412121905123EF7FCA3E0F9EC24C0
:103E630000F527E439F528EAF4F8EBF4F9EC58F80F
:103E7300E52859F9E849705CE5212406F8ED34009A
:103E8300F9882389248882F583123F0212087C8AE9
:103E9300298B2AE52765297004E528652A6042787D
:103EA30027121B40852382852483123F0212088236
:103EB30074021218CFE9F52670277827121B408564
:103EC3002182852283A3A3123F0012089A7402124F
:103ED30018CF800D752680800875260D8003752602
:103EE3000BA9260235998E828F83123EF122E0F8C8
:103EF300A3E0F922123EF188828983E022A3A3E0A2
:103F0300FCA3E0FDEEFAEFFB2274E812192974E733
:103F13001218B9854182854283EAF0A3EBF08C2F16
:103F23008D3089277521007522007431121905E03F
:103F3300F52BA3E0F52C7433121905E0F52DA3E05E
:103F4300F52E7435121905E0F528E52275F003A462
:103F5300F8A9F0854182854283124076E0F470032C
:103F6300A3E0F47003024059EE2402F525EF12405A
:103F73006CE07003024059852F2385302478231287
:103F83001B40AC2DAD2EAA2BAB2C120804740212CD
:103F930018CF8A238B24EA45247003024059E4F5A1
:103FA30029F52A7829121B407406121905858229DE
:103FB30085832A7829121B407409121905858229E1
:103FC30085832A7829121B40852B82852C83A3A302
:103FD300A3A3121B5B7914AC23AD248E828F8312AF
:103FE300343A12085E74081218CFE9706985238287
:103FF300852483A3A3A3A3123EED74021219051211
:1040030036A8852582852683E0A2E05018A9277467
:1040130002121905AC82AD838E828F8312343A1259
:104023000756E94221852582852683E0A2E15026B1
:10403300E528F5237823121B44A9277403121905D5
:10404300AC82AD838E828F8312343A12075074018F
:104053001218CFE942210522E522C394025003023C
:104063003F4DA9217419023BD33400F526852582DF
:10407300F58322E028FEA3E039FF8E828F8322742A
:10408300F2121929EAFEEBFF892474016524600EFC
:1040930074026524706A7901120A5CE97062EEFAAF
:1040A300EFFB1208468A218B22EA452260477523DB
:1040B30000800B7C177D00790012108C0523900281
:1040C300E6E0F8E523C3985021E52375F017A4F83B
:1040D300A9F0852182852283A3A3E028FAA3E039EE
:1040E300FB8A828B831229A270C985218285228350
:1040F30074FFF0A3F07C197D03EEFAEFFB12087650
:10410300023E1E74F21219298A218B22ECFEEDFF66
:10411300740E121905123783900A1AE0F4603D7A7F
:10412300097B0012109EEA4B60328A828B8374B142
:10413300F0A3E4123C15A3123C13A3E521F0A3E57D
:1041430022124162EEF0A3EF124162A3A3E523F032
:10415300A3E524F0900A1AE0F91210AA023E1EF019
:104163008A828B83A3A3A3A3A32274F012192974B5
:10417300FA1218B98924ECFEEDFF7523008A218B0E
:10418300227821121B880004109543B041CE41E8E8
:104193004100421E423642594271428542AF422C8F
:1041A300433D4354436F4395439543C5427401656F
:1041B3002460030243908E828F83E0F8C39403400C
:1041C30003024390E8900B0602436C74026524607B
:1041D300030243908E828F83124AD2900B07E8F03A
:1041E300A3E902436C740165246003024390124304
:1041F300BD4003024390E890076602436C74016577
:104203002460030243908E828F83E0F8C3940540B9
:1042130003024390E890076702436C7401652460CE
:10422300030243901243BD4003024390E8900768A2
:1042330002436C741065246003024390752110756A
:1042430022007821121B407A697B071210747402D2
:104253001218CF0243B6740165246003024390121F
:1042630043BD4003024390E890077902436C740115
:10427300652460030243908E828F83E0900B0A02D1
:10428300436C7404652460030243908E828F8378A9
:10429300251217719090BF782512157450030243AD
:1042A3009090077B78251217800243B6E9600302DA
:1042B30043901206DEE970051211FA805690080E3B
:1042C3008063740765246003024390752106752299
:1042D300007821121B408E828F83A3AC82AD83743E
:1042E3000212191712107A74021218CF7C007D0083
:1042F300AA41AB428E828F83E0F91211A6E9F52120
:10430300C3940A40030243B31206DEE9700CA921E9
:10431300121200795012138C806E740F2521F582CE
:10432300E43408F5837401804074016524705E12DF
:1043330043BD5059E890077A802F74016524704D6E
:104343008E828F83E0F8C3940A5042E8900B098071
:10435300187401652470368E828F83E0F874F9280F
:10436300C3940A5028E8900B0BF08047740165242E
:10437300701B90080DE0F88E828F83E090080DF09B
:10438300E87030E06401702B1211EE80267523185B
:104393008021C3EA9427EB940050157402652470BE
:1043A3000F8E828F83124E7B12057CE9F5238003E7
:1043B300752302A923740602467C8E828F83E0F85C
:1043C300C3940222740E1218CF7F040219FB74F0F7
:1043D30012192974B11218B98C258D26909048743E
:1043E3002012191F74061217CC742012191F1211F0
:1043F300A6E9FE745F121905E0F523EEC3940A40A3
:104403000302454E75F006EEA4F521744112191FFF
:104413007A0E74202521F9121386E97009744D125E
:104423001905E0FF80027F00900B06E0640270052F
:1044330075270180037527007408652370047422AF
:10444300800274212521F5287C1B7D0079007426C8
:1044530012191712108CEFA2E0E433F5227426121E
:10446300191F7A1BA928121386E9702574401219A3
:1044730005E024F9C3940A50187827121B447427C3
:1044830012191FA922AA25AB2612061E740112189F
:10449300CF7C147D007900740C12191712108C74E0
:1044A3000C12191F7A1074242521F9121386E9704E
:1044B300307C1079FF740C1219171210F2E9702175
:1044C300741C121905AC82AD837A0474252521F975
:1044D300121386740C12191FA922AA25AB261206E1
:1044E30006AC41AD427A0C74702EF9121386E97052
:1044F30049AA41AB421211D67E00EE75F003A4F82F
:10450300A9F0854182854283E58228F8E583124C30
:1045130087124E75601D88828983A3A3E0F52175F8
:1045230022007821121B40AA25AB2612086A7402C6
:104533001218CF0EEEC3940440C0EFA2E1500C90CA
:104543000765E0F9AA25AB26120870740465237089
:1045530027900B06E06402701F7A00900779E060F1
:10456300010A900766E06004780480027800E84A54
:10457300F9AA25AB261206C67900744F02467C744D
:10458300F012192974F01218B9EAFEEBFF8C218D91
:104593002275230AE9600C14600914603B14607DE2
:1045A3000246781211E8E9F523C3940A4003024650
:1045B30078E52145227003024678752506752600A5
:1045C3007825121B40EEFCEFFDAA21AB22121074DA
:1045D30074021218CF0246787525007527067528D0
:1045E300007827121B40EEFCEFFDE52575F00EA4C5
:1045F300F8A9F0748728FA740739FB12108674023D
:104603001218CFE9700B0525E525C3940A5066807F
:10461300CA852523E523C3940A505A80497525008A
:10462300AC41AD427A1075F006E525A42423F912B6
:104633001386E9701C7C1079FFAA41AB421210F279
:10464300E9700EEEFCEFFDAA41AB421205E8E9600A
:104653000B0525E525C3940A501B80C4852523E556
:1046630023C3940A500FE52145226009AA21AB22F6
:10467300A9231211E2A92374101218CF7F0802197B
:10468300FB74F4121929892175221574FF6A7003CA
:1046930074FF6B70277E00AC217A027B00EEF91267
:1046A30011C4E960037522000EEEC3940A40E8E5E5
:1046B3002160527A127B12120A6E8049120A508AC2
:1046C300238B24AE23AF24EE4F60377C007D00EEB6
:1046D3002405FAE43FFB8E828F83A3A3A3A3E0F90F
:1046E3001211A6E9C3940A500CAC217A027B001282
:1046F30011C4752200E521600CEEFAEFFB121212D1
:104703008003752214A9220243CC74F2121929ECF6
:10471300FEEDFF752115740E121905E0F523A3E0D4
:10472300F52474FF6A700374FF6B7021752200AC6B
:1047330023AD24EEFAEFFBA9221211CAE960037537
:1047430021000522E522C3940A503E80E2120A505A
:104753008A828B83E5824583602C7C007D00E58221
:104763002405FAE43583FBA3A3A3A3E0F91211A65E
:10477300E9C3940A5013AC23AD24EEFAEFFB1211F4
:10478300CA7521008003752114A921024C4FC082F0
:10479300C08390077FEAF0A3EBF0900765E0FC7D10
:1047A300007A267B0012057C900765E0F91207E684
:1047B30002526674F012192974EC1218B9EAFEEB6E
:1047C300FFEE240CF525E43FF526EE2405F527E45A
:1047D3003FF528EE2409F523E43FF524EE2403F501
:1047E30021E43FF5228E828F83A3A3E024FA700392
:1047F300024A7124FD700302498F14700302488C2E
:1048030014601024FD70030249661470030249C644
:10481300024AC81255676049E0F5838882124AD27A
:1048230088278928E845286038852582852683E0FE
:10483300F5257825121B44EE240BF582E43FF5831E
:10484300E0F9852382852483124E7B0A0A0AAB2270
:1048530085278285288312192774011218CF024AEB
:10486300C8852382852483121B5B90077B12178FD5
:1048730012061874021218CFE97003024AC87901AC
:10488300852382852483024A3C8E828F83A385827B
:1048930023858324E0600302494985278285288391
:1048A300E0A2E0400302494990081912556A6003E7
:1048B3000249497C0E7D007900AA41AB4212108C5B
:1048C300852582852683125231EA4B6010752506B1
:1048D3007526007825121B40EA2410801B12522BE8
:1048E300120A50EA4B7003024AC875250675260062
:1048F3007825121B40EA2405FCE43BFD74021219DF
:104903001712107474021218CF852782852883E04A
:10491300A2E25004D2F08002C2F0A2F0E433F874B1
:104923000C121905E048F0EEFCEFFDAA41AB421270
:1049330011DCE970117A027B00900765E0F912102F
:10494300CE7900024ACA1255677003024AC8124A56
:10495300D87003024AC8852382852483E0FC790149
:10496300024A651255677003024AC8124ACF892466
:10497300E845247003024AC88E828F83A3E0FC7942
:104983000212522B8882852483024A6C7C007D00AC
:10499300EE2404FAE43FFB852182852283E0F912A9
:1049A30011A6E9F8C3940A4003024AC8EE240AFC9C
:1049B300E43FFD7A0475F006E8A42425F912138078
:1049C300024AC812522B90077AE06007900B09E065
:1049D300F98069900B06E070047905805F120A5034
:1049E3008A258B26A825A926E82404F525E439F58C
:1049F300268E828F83A3A3A3A3A3A3A3E0A2E05045
:104A030041E8497003024AC8852582852683E0FE72
:104A13006030852382852483E054107025740E1240
:104A2300191FE82405FAE439FBEEF91211A6E9701F
:104A330011790385218285228312523112061202D3
:104A43004AC8AC27AD28852582852683E0F9125212
:104A53002B12121E125567606C124AD860677C00D5
:104A6300790012522B8E828F8312192780571206D8
:104A7300DEE9705190080EE0640170151211FA908E
:104A8300080EE4F07C0AFDF97A0F7B0812108C8083
:104A93002C752300852321740F2521FEE43408FFA0
:104AA3008E828F83E06401700BA9231212008E8221
:104AB3008F83E4F00523E523C3940A40D77950128A
:104AC300138C1211EE7901741402467C124AE7E04A
:104AD300F8A3E0F922124AE7E0F8A3E0F9E8FEE9D7
:104AE300FFEE4F22E0F5838882A3A32274F4121908
:104AF3002974F21218B9EAFE8C2475F006E9A4248D
:104B030020F521AC41AD427A0EF9121386E9704BC0
:104B13007C0679FFAA41AB421210F2E9703D740C96
:104B2300121905124AD2E8F522E5246005EE422265
:104B33008004EEF45222852282AA82E86A7001E997
:104B43006015740C121905EAF0A3E4F0AC41AD4210
:104B53007A0EA9211213807901800279000243C7DA
:104B630074F212192974E61218B989238A218B2247
:104B7300ECFEEDFF740C12191F7A0E75F006E9A412
:104B83002420F9121386E96003024C487C0679FF5E
:104B9300740C1219171210F2E96003024C48747076
:104BA3002523F524AC41AD427A0CF9121386E96052
:104BB30003024C44AA41AB421211D6E521452270AF
:104BC3001D7C0C7900AA41AB421210F2E970727C91
:104BD3000C7D007900AA41AB4212108C8051AC418C
:104BE300AD42AA21AB221211D08A258B26A825A972
:104BF30026E8497022EE4F604CAC41AD427A007B0F
:104C0300001211D0EAF8EBF9EA4B60398882898304
:104C1300E521F0A3E522F0124CC3FAEE6A7001EF2E
:104C2300601FEEF04F700888828983E4F0A3F0AA36
:104C330041AB421211D6AC41AD427A0CA9241213F6
:104C430080790180027900741A1218CF7F06021945
:104C5300FB74F71219297F00EF75F003A4F8A9F08C
:104C6300EC28F8ED124C87E06A7003A3E06B700642
:104C7300E8FAE9FB800B0FEFC3940440DB7A007B77
:104C830000024FB839F9888289832274F7121929EF
:104C93007E00EE75F003A4F8A9F0EA28F8EB124CB5
:104CA30087E0F4FCA3E0F4FD88828983ECF0A3EDB4
:104CB300F0124CC3F4F00EEEC3940440D5024FB887
:104CC300E82402F582E439F583E02274F412192909
:104CD30074F41218B9EAFEEBFF8C218D22900819A7
:104CE30012556A704FEE4F7003024E54EC4522701A
:104CF30003024E541211E8E9900B0CF0C3940A40DE
:104D0300337524007C0679FFE52475F00EA4FAAB15
:104D1300F074812AFA74073BFB1210F2E960030274
:104D23004DB40524E524C3940A40D975230AE52329
:104D3300900B0CF0900B0CE0C3940A4003024E540A
:104D430075F006E0A4FB90081912556A7069EEFC31
:104D5300EFFD7A0E74202BF91213807C0C7D007901
:104D6300FFAA41AB4212108CAC41AD427A0C900BBE
:104D73000CE02470F912138075230E752400782338
:104D8300121B40EEFCEFFD900B0CE075F00EA4F847
:104D9300A9F0748128FA740739FB12107474021293
:104DA30018CF900819E521F0A3E522F07900024E0F
:104DB30056852423024D31E0C82406124E6F601934
:104DC3007A1B74212BF9121380124E5B2406F58291
:104DD300E438F583E4F0A380D2124E5B240A124E2A
:104DE3006F60107A1B74222BF9121380124E5B240E
:104DF3000A80DB124E5B240C124E6F60107A107423
:104E0300232BF9121380124E5B240C80C1124E64C3
:104E1300124E6F60307A1074242BF9121380124EE5
:104E230064F582E438F583E02410FCA3E03400FD4C
:104E33007A0475F006900B0CE0A42425F912138074
:104E4300124E64808990080DE0600312122412123E
:104E5300187901740C0243C9900819E0F8A3E0C85B
:104E630022900819E0F8A3E0C8240822F582E43868
:104E7300F583124E7BEC4D22E0FCA3E0FD2274F49B
:104E830012192974F21218B9EAFEEBFFE9C3940A66
:104E93005004EE4F700479028034AC41AD427A0E77
:104EA30075F006E9A42420F9121386E9F521701C94
:104EB3007523067524007823121B40740212191FF0
:104EC300EEFAEFFB12107474021218CFA9210243F9
:104ED300C774F4121929EAFEEBFF75210075230646
:104EE3007524007823121B40EEFCEFFDE52175F0DD
:104EF3000EA4F8A9F0748128FA740739FB121086FE
:104F030074021218CFE96004A921800B0521E52161
:104F1300C3940A40C8790A0243CC74F7121929755D
:104F23002100E52175F00EA4F8A9F0748128FE7420
:104F33000739FFEEFCEFFD7A0E75F006E521A42498
:104F430020F9121386E960297C067D0079FFEEFAC9
:104F5300EFFB12108C7C067D0079FFEE2CFAE43F08
:104F6300FB12108CEE240CF582E43FF583E4F0A3EE
:104F7300F00521E521C3940A40A890080DE06003E1
:104F8300121224121218802D74F71219297E007F31
:104F9300007C0679FFEF75F00EA4FAABF074812A5A
:104FA300FA74073BFB1210F2E970010E0FEFC39482
:104FB3000A40DEEEF97F010219FB74F71219297E0C
:104FC30000EEF91212000EEEC3940A5003E960F1E9
:104FD30080E374F312192974CB1218B9E9FE900B0C
:104FE3000CE06E701B7A017B00900765E0F91210EC
:104FF300D47A027B00900765E0F91210D4121230C4
:1050030075F006EEA4FF74202FF521742712191FE3
:105013007A0EA921121386E960030250DB7C06791C
:10502300FF74271219171210F2E960030250DB7C98
:105033000E7D0079FF742712191712108C7C1B7DCB
:105043000079FF740C12191712108C7C0C7D0079F7
:10505300FFAA41AB4212108C742712191F7A0EA9B2
:1050630021121380E9F521740C12191F7A1B742184
:105073002FF9121380E9F522740C12191F7A1B748D
:10508300222FF9121380E9F523740C12191F7A10D9
:1050930074232FF9121380E9F524740C12191F7A63
:1050A3001074242FF9121380E9F525740C12191FBB
:1050B3007A0474252FF9121380E9FFAC41AD427ACB
:1050C3000C74702EF9121380E9F8E5224523452468
:1050D30045254F4842218003752100A921743512CB
:1050E30018CF7F050219FB74F7121929E990076598
:1050F300F01211EE024FB874F4121929EAFEEBFF15
:1051030054807003025192900765E0F91210B68A39
:10511300218B22EA4522607078018A828B83E02406
:1051230050603D14600624E1604F8052A3A3A3A303
:10513300E0704E8A828B83A3A3A3A3A3A3A3121B12
:105143005B8A828B83A3A3A3A3A3124E7B8A828B46
:1051530083A3A31252311211B274021218CF802109
:10516300A3A3A3A3E0641E701879008A828B83A390
:10517300A31252311211AC80081211BEE9F8E86093
:1051830007AA21AB221210A4EEFAEF64808065EE29
:10519300540260237C007D007A007B001211DCE95D
:1051A30060117A017B00900765E0F91210CEEE647E
:1051B30002803F7A028046EEA2E0503F125205126F
:1051C300523112122AE9602F125567601F124ACF1B
:1051D30088218922E8452260137C00790112520557
:1051E300125231852182852283121927121230EE41
:1051F3006401FAEFFB80087A0180027A007B0002E7
:1052030043CC900819E0F8A3124AE7A3227F0202D5
:1052130019FBC082C083900765E0F98A828B83A360
:10522300125231120870803B852182852283E0FA75
:10523300A3E0FB22C082C08374FF1218B91211F4D9
:10524300E9C394028541828542834004740280024B
:10525300740AF0AC41AD427A0179051206F6740185
:105263001218CFD083D08202011F74F2121929744D
:10527300E81218B9EAFEEBFF89238C218D227C18F2
:105283007D007900AA41AB4212108C854182854290
:1052930083EEF0A3EFF0900767E0C0E07402121909
:1052A30005D0E0F0900768E0C0E07403121905D060
:1052B300E0F0900B0BE0C0E07417121905D0E0F09A
:1052C3007415121905E054FEF8A3E0F9900B0AE0F7
:1052D300A2E0E433FAE84AF87415121905125407E8
:1052E300A2E15004D2F08002C2F0E854FDFAA2F029
:1052F300E43325E0F8EA48F8741512190512540747
:10530300A2E35004D2F08002C2F0E854F7FAA2F00C
:10531300E433F525752600740378251218A6125474
:1053230000121905125407A2E45004D2F08002C2FD
:10533300F0E854EFFAA2F0E433F52574047825126B
:1053430018A6125400121905125407A2E55004D2EC
:10535300F08002C2F0E854DFFAA2F0E433F52574DA
:105363000578251218A6125400121905125407A223
:10537300E25004D2F08002C2F0E854FBFAA2F0E457
:1053830033F525740278251218A612540012190554
:10539300E8F0A3E9F0900768E0601D752510782513
:1053A300121B407C697D077406121905AA82AB8320
:1053B30012107474021218CF900779E06011E5237C
:1053C30060097415121905E04402F078018002782F
:1053D300007414121905E048F0900766E060047841
:1053E30004800278007414121905E048F0AC21AD72
:1053F30022AA41AB4212060C7418024C4CEA452512
:10540300F8741522E8F0A3E9F0900B0AE02274F790
:105413001219291208E8752100E52175F00EA4F888
:10542300A9F0748128FE740739FF7C0679FFEEFA30
:10543300EFFB1210F2E97009EEFAEFFB79001208A4
:10544300EE0521E521C3940A40CF024FB874F6124A
:10545300192974FD1218B9EAFEEBFF90081B1255C7
:105463006A703975211D7522087821121B40752138
:10547300027522007821121B407521EF7522907866
:1054830021121B407CFF7DFF7A017B0012073874D9
:10549300061218CF90081BEAF0A3EBF090081B123A
:1054A300556A7003025551E4F521F5227821121B48
:1054B30040740412190F882189227821121B407429
:1054C3000412190F882189227821121B4090081D8C
:1054D300121B5B790290081B12555F12085E740859
:1054E3001218CFE97036854182854283E0FA740150
:1054F300121905E0F8E4C8F9EA28F521E439F522A0
:10550300EA452260177821121B4090081B125208AB
:10551300A312555F1211B274021218CFE4F521F5EC
:10552300227821121B4090081D121B5B7CFF7DFF1C
:1055330090081B12523112074474041218CF9008BA
:105543001BEAF0A3EBF090081B12556A7004790173
:105553008002790074031218CF025210124E7BEEB0
:10556300FAEFFB2290077FE0F8A3E0F9E84922C0B5
:1055730082C08390081912556A601090081912525C
:10558300311210A4900819E4F0A3F0900B0C740AE4
:10559300F0025266C082C0839061907404F0A374D9
:1055A30048F0A3E4F09061807440F09061BC74070C
:1055B300F09061877469F09061B67416F079001207
:1055C3000B587902120B5E902704E493F46006E40F
:1055D30093F9120B347905120E58025992C082C006
:1055E30083E9540FF9906185E0696012E5C6548040
:1055F3004449F5C6E59E547F644970F8E9F053C603
:1056030080E59E547F70FA02599274F7121929E5C6
:10561300A8FE53A87E120B40C2BA539AFEC28975E4
:105623009B00C2C2120B4675A91175B905120B4C2A
:10563300D2BA439A0174805E42A8025F29C082C035
:1056430083906181E4F0A302598F75E9007591009D
:1056530075BF0002011FC082C083906181E4F0A383
:1056630074C0F0A3E4025991C082C08374F8121885
:10567300B99003A41268C2700302574A9003A4E0CE
:10568300544060237908854182854283AA82AB8393
:10569300120C54854182854283AA82AB8312090C82
:1056A3009003A4E054BFF0E054806010790C7A6555
:1056B3007B05120C549003A4E0547FF0E0A2E05069
:1056C3000F7900120B581209129003A4E054FEF054
:1056D300E05402600F7901120B581209129003A4CF
:1056E300E054FDF0E05404600F7900120B5E1209E0
:1056F300189003A4E054FBF0E05408600F79011202
:105703000B5E1209189003A4E054F7F0E054106004
:105713000F7902120B5E1209189003A4E054EFF004
:10572300E05420600F7903120B5E1209189003A452
:10573300E054DFF0A3E05401600D120B6A12091E5E
:105743009003A5E054FEF074081218CF025992C0DA
:1057530082C083E9600514602A804F90619A743394
:10576300F0A37455F09061A0743AF090053FE064A3
:10577300017009C2919003A67467802D9003A674EB
:1057830061802690619A743FF0A3745AF09061A0EF
:10579300747FF090053FE064017009D2919003A6F5
:1057A300747180059003A6746AF0025992C082C096
:1057B30083E9600B14600D14601714600C80209053
:1057C30027088015902709801090053FE064017039
:1057D3000590270A800390270BE493906186F002DB
:1057E300599274EE12192974F41218B985418285FD
:1057F3004283AC82AD837583907582B374041217B0
:10580300CC90270893F4600302590F907808E0C303
:10581300940250030258EF7404121905AC82AD834D
:1058230075839075822474081217CCFC7EFF7FFF6A
:105833008E257D008C82858227800F74086D606DB4
:1058430074096D6068740A6D60638D21752200743C
:105853000278211218A6125919121771A922E523E9
:10586300C9F88829741878211216B2E5294521FA56
:10587300E9FBE527C333F8E433F97404121905E5AA
:105883008228F582E58339125E19C3E89AE99B40C1
:1058930008E8C39AF8E99B8006EAC398F8EB99F9FC
:1058A300C3E89EE99F5006E8FEE9FF8D250DEDC391
:1058B3009413408774FF6E700374FF6F6024852513
:1058C30021740278211218A61259191217718541F1
:1058D30082854283E5822527F582E5831262B8E556
:1058E30021F00CECC39404500302582F7521017569
:1058F30022007821121B407402121905AC82AD8379
:105903007AC27B0912126C74021218CF740C12182B
:10591300CF7F0A0219FB74482521F582747835225A
:10592300F583782122C082C083906186E0F89027B6
:105933000BE49368700990270AE493906186F090D2
:1059430061AE7468F0A3746AF090624574FBF0A3CF
:1059530004F053F4FD43FE0290053F7401F090619F
:10596300A0E0643A7004790080027901120B5802B6
:105973005992C082C0839004F1E06401700A9004DC
:10598300F6E06004790C800279008003F0A3F0D084
:1059930083D08202011FC082C08375E1F19004F4B9
:1059A300E0604D1460091460511460491470501282
:1059B3000B7C9004EAE0F97AEB7B04120DDA909009
:1059C300AB12178F120E1090908B12178F120DE6D9
:1059D3009004F5E0F9120DF27901120E4C125AB54A
:1059E30024161262B57494F0A3740BF07900809FAF
:1059F300120B8280BD120B8880B8120B8E80B37994
:105A03001280EB74F412192975D90D9004D5E0A214
:105A1300E0E4331313F8125AAB484401F5D9780084
:105A2300125B1840FB7800882174D612681874043E
:105A3300125B2240F275E1959004D5E0F97AD67BAA
:105A430004120DE0900A3C740AF0A3740B125B2855
:105A5300125B6C125B63125C809004F4E06401904F
:105A630004E8700B125ABE1217719090A7800912A6
:105A73005ABE1217719090A378211216FD9090C30D
:105A8300782112174B125AB5240E1262B5782112DF
:105A93001780125AB524141262B57413F09003A23E
:105AA3007402F07F040219FB9004EAE0C433335418
:105AB300C0229004E8E0F8A3E0C8221267507821DE
:105AC3002274F6121929125C518AD97800125B18D4
:105AD30040FB78008006125BC9125D06E8C399405B
:105AE300F5125C43125B1840FB78008008126814BF
:105AF3007405125D06E8C39940F375E195900A3C7D
:105B03007416F0A3740B125B28125B327412F090BC
:105B130003A2025EED882174EB2521F58274041241
:105B23005E83940622125C697410F0A3740B221234
:105B33005B6C125B63125C849004E8E0F8A3E0C83A
